:020000040800F2
:10000000F033002045010008B92000087D1C0008DD
:10001000B5200008A10C00085938000800000000B5
:10002000000000000000000000000000B92A0008E5
:1000300049190008000000002D210008293000089F
:100040005F0100085F0100085F0100085F01000810
:100050005F0100085F0100085F0100085F01000800
:100060005F0100085F0100085F0100085F010008F0
:100070005F0100085F0100085F0100085F010008E0
:100080005F0100085F0100085F0100085F010008D0
:10009000E93500085F0100085F0100085F01000802
:1000A0005F0100085F0100085F0100085F010008B0
:1000B000E9300008D93100085F0100085F0100083D
:1000C0005F0100085F0100085F0100085F01000890
:1000D0005F010008153400085F010008253400089E
:1000E0005F0100085F0100085F0100085F01000870
:1000F0005F0100085F0100085F0100085F01000860
:100100005F0100085F0100085F0100085F0100084F
:100110005F0100085F0100085F0100085F0100083F
:100120005F0100085F0100085F0100085F0100082F
:10013000DFF80CD000F0BCF90048004795410008FA
:10014000F03300200648804706480047FEE7FEE7F8
:10015000FEE7FEE7FEE7FEE7FEE7FEE7FEE7FEE777
:10016000893000083101000880EA010210B502F070
:100170000043400022D04A001FD0010E01EB126163
:10018000C0F35600C2F3560240F4000042F40002ED
:10019000A0FB022000047F39140400D0401C50EA68
:1001A000124001D44000491EC2B20C0604EBD0102C
:1001B000401C4008802A02D003E0002010BD20F03F
:1001C0000100002900DA0020184310BD2DE9F04D90
:1001D00081EA030404F0004B21F0004514464FF07F
:1001E000000A23F0004150EA050220D054EA01023F
:1001F0001DD0C5F30A570246C5F31303C1F313001C
:10020000C1F30A5640F4801543F48013A7EB0608A7
:10021000101BD64608F2FD3873EB050002D308F137
:10022000010801E092185B41B8F1000F03DA0020E9
:100230000146BDE8F08D00204FF48011064684464B
:100240000EE0171B73EB050705D3121B63EB0503C9
:1002500006434CEA010C49084FEA300092185B4112
:1002600050EA0107EDD152EA030012D082EA0400FD
:1002700083EA0501084305D0101BAB4106D20122D9
:10028000002306E000224FF0004302E06FF001027D
:1002900053101AEB06004CEB085110EB0A0041EB2F
:1002A0000B01BDE8F04D00F0A5B80EB540F23341AA
:1002B00002910021CDE900110A460B4600F0A9F891
:1002C00003B000BD20F00040C10DC0F3160040F4A3
:1002D00000007F2901DA00207047962903DCC1F174
:1002E0009601C840704796398840704701F0004336
:1002F00030B421F0004150EA010206D00A0DA2F507
:100300006072C1F31301002A02DC30BC0020704788
:10031000440F44EAC104C100E01830BC00EBC250F5
:1003200000F031B82DE9F05F0546002092469B466B
:1003300088460646814640241BE0284641464746FB
:10034000224600F0D6F853465A46C01A914110D3BF
:1003500011461846224600F0BDF82D1A67EB010839
:100360004F4622460120002100F0B4F817EB0009A7
:100370004E41201EA4F10104DFDC484631462A46E6
:100380004346BDE8F09F0029A8BF7047401C4900C4
:1003900008BF20F00100704710B4B0FA80FC00FAEA
:1003A0000CF050EA010404BF10BC704749B1CCF115
:1003B000200421FA04F411FA0CF118BF01212143A1
:1003C0000843A3EB0C01CB1D4FEA00614FEA10205C
:1003D00042BF002010BC704700EBC35010440029FE
:1003E000A4BF10BC7047401C490008BF20F00100AA
:1003F00010BC704710B5141E73F1000408DA401CDD
:1004000041F1000192185B411A4301D120F0010033
:1004100010BD2DE9F04D92469B4611B1B1FA81F223
:1004200002E0B0FA80F22032904600F053F8044621
:100430000F4640EA0A0041EA0B0153465A46084378
:1004400013D0114653EA010019D0C8F140025046BA
:1004500000F04FF805460E4650465946424600F019
:1004600039F8084305D0012004E020463946BDE8AC
:10047000F08D0020054346EAE0762C4337430A9886
:100480006305E40AA0EB08000022FD0A44EA475491
:100490000A3002D500200146E9E70105101969413B
:1004A000DDE9084500196941BDE8F04DA2E700000B
:1004B000064C074D06E0E06840F0010394E80700B1
:1004C00098471034AC42F6D3FFF736FE8846000852
:1004D000A8460008202A04DB203A00FA02F1002096
:1004E00070479140C2F1200320FA03F31943904072
:1004F0007047202A04DB203A21FA02F000217047DD
:1005000021FA02F3D040C2F120029140084319467B
:10051000704770B58C1810F8015B15F0070301D116
:1005200010F8013B2A1106D110F8012B03E010F856
:10053000016B01F8016B5B1EF9D12B0705D4002379
:10054000521E0DD401F8013BFAE710F8013BCB1A1B
:10055000921C03E013F8015B01F8015B521EF9D510
:10056000A142D8D3002070BD21B1826842F00102BF
:10057000826003E0826822F001028260704700001E
:1005800010B504461248844208D10121401501F0FB
:10059000FBFD0021601501F0F7FD17E00D488442D6
:1005A00008D10121001501F0EFFD0021201501F017
:1005B000EBFD0BE00848844208D10121C80301F09B
:1005C000E3FD00214FF4004001F0DEFD10BD00000E
:1005D0000024014000280140003C01400146002069
:1005E0008A6802F004020AB1012000E0002070478E
:1005F000014600208A6802F008020AB1012000E0EA
:100600000020704730B502460020002350680F4C90
:1006100020400D790C6844EA05242043506090681E
:100620000B4C2040D1E902542C434D7944EA450457
:1006300020439060D06A20F470000C7C641EE4B209
:10064000234340EA0350D06230BD0000FFFEF0FFBC
:10065000FDF7F1FF816841F0080181607047816812
:1006600041F004018160704700B587B001214FF46B
:10067000017001F079FD4FF4004001F059FD0220B6
:10068000ADF8040000208DF8070001A9174801F01B
:1006900073F91748FFF774FF002002908DF80C00E3
:1006A0008DF80D004FF4602004900020059001208B
:1006B0008DF8180002A90E48FFF7A4FF01210C488D
:1006C000FFF752FF0A48FFF7C5FF00BF0848FFF7D2
:1006D0008FFF0028FAD10648FFF7C1FF00BF04488A
:1006E000FFF77CFF0028FAD107B000BD00080140E9
:1006F000002401401FB50121082001F035FD4FF411
:100700000070ADF8040010208DF8070003208DF86C
:10071000060001A91C4801F02FF901F0F5F801F0DD
:100720004BF818B919A003F099F802E01CA003F0E7
:1007300095F8002405E001F0A5F802A90855601C11
:10074000C4B2052CF7DB9DF808009DF80910084499
:100750009DF80A1008449DF80B100844C0B29DF89B
:100760000C10884203D014A003F078F80BE09DF839
:100770000B0000909DF80A309DF809209DF80810A4
:1007800014A003F06BF81FBD000C01404448543125
:10079000315F496E6974204F4B21202020000000FA
:1007A00044485431315F496E6974204572726F72EA
:1007B0002120202000000000526561642044617403
:1007C0006520436865636B204572726F72210D0A64
:1007D00000000000483A25642E25643B20543A2549
:1007E000642E25642E0D0A0008B501211C2001F09D
:1007F000BBFC47F2C000ADF8000010208DF80300EC
:1008000003208DF802006946114801F0B5F84FF455
:100810000040ADF8000010208DF8030069460D4837
:1008200001F0AAF80420ADF8000010208DF80300B4
:100830006946094801F0A0F84FF40040ADF8000007
:1008400048208DF803006946014801F095F808BD7D
:10085000000C0140000801400014014010B504469E
:10086000204603F03DFC10BD10B50446204603F0C1
:100870005DFC10BD08B50121102001F075FC4FF49E
:100880007070ADF8000010208DF8030003208DF883
:1008900002006946064801F06FF81020ADF800002C
:1008A00048208DF803006946014801F065F808BD4D
:1008B0000010014010B50446204603F011FC10BDA5
:1008C00010B50446204603F031FC10BD70B5044657
:1008D00025464FF48061214801F0E2F84FF40061B1
:1008E0001E4801F0DDF8012001F0BAF9002625E0EC
:1008F00005F40040B0F5004F05D14FF48051174882
:1009000001F0D0F804E04FF48051144801F0C8F829
:10091000012001F0A5F94FF40061104801F0C2F880
:10092000012001F09DF94FF400610C4801F0B8F886
:100930004FF6FF7000EA4505701CC6B2102ED7DBDB
:100940004FF48061054801F0ADF8012001F088F90D
:100950004FF48061014801F0A3F870BD0010014020
:1009600010B50821144801F09DF80421124801F047
:1009700099F80221104801F095F8402000F038F96C
:1009800008210D4801F08EF8C02000F031F9002454
:1009900004E0002000F02CF9601CC4B2102CF8DB3D
:1009A0000821054801F07EF8802000F021F9082197
:1009B000014801F077F810BD0010014008B5012191
:1009C000102001F0D1FB0E20ADF8000010208DF8B2
:1009D000030003208DF802006946034800F0CCFFB5
:1009E000FFF7BEFF08BD00000010014001B581B057
:1009F0000BE06420009004E09DF80000401EC0B2AF
:100A000000909DF800000028F6DCBDF80400411EAF
:100A100089B201910028ECD10CBD00002DE9F04114
:100A200004460D466D480078A04203D16C4800682A
:100A3000A8427DD069480078A04201D0FFF790FF1E
:100A40006648047066480560402000F0D1F808212F
:100A5000644801F027F8A12C1BD1C02000F0C8F891
:100A60000F2000F0C5F8002000F0C2F8002607E0D3
:100A7000092000F0BDF8002000F0BAF8701CC6B2E2
:100A8000022EF5DB092000F0B3F8032000F0B0F8E7
:100A900097E0C02000F0ACF80A2095FBF0F100FBD5
:100AA000115051490F5C384600F0A2F80A2095FB1E
:100AB000F0F100FB11504C49085C0711384600F07A
:100AC00097F80A2095FBF0F00A2190FBF1F201FB68
:100AD000120045490F5C384600F08AF80A2095FB61
:100AE000F0F00A2190FBF1F201FB12003E49085C94
:100AF0000711384600F07CF8642095FBF0F03A4985
:100B00000F5C384600F074F8642095FBF0F036492D
:100B1000085C0711384600F06BF86CB93349887DE2
:100B200000F066F83149897D082242EA211000E090
:100B300052E000F05DF844E0012C0BD12B4908781D
:100B400000F056F829490978082242EA211000F0FD
:100B50004FF836E0022C0BD12449887800F048F891
:100B600022498978082242EA211000F041F828E061
:100B7000032C0BD11D49887900F03AF81B4989797B
:100B8000082242EA211000F033F81AE0042C0BD1BD
:100B90001649487C00F02CF81449497C082242EAA6
:100BA000211000F025F80CE0052C0AD10F49487BF4
:100BB00000F01EF80D49497B082242EA211000F09E
:100BC00017F80821074800F06DFF8A2000F010F8A0
:100BD0000821044800F066FFBDE8F0812C010020E8
:100BE000300100200010014014460008244600088F
:100BF00070B504460821124800F052FF00251CE0A1
:100C000004210F4800F04CFF04F0010020B1022144
:100C10000B4800F047FF03E00221094800F040FFC5
:100C20000120FFF7E3FE0421054800F03BFF6410BC
:100C30000120FFF7DBFE681CC5B2082DE0DB70BDAC
:100C40000010014008B501210C2001F08DFAA02010
:100C5000ADF8000010208DF8030003208DF802008D
:100C600069460D4800F088FE3820ADF800001020DD
:100C70008DF8030003208DF802006946074800F054
:100C80007BFE4020ADF8000048208DF80300694647
:100C9000014800F071FE08BD00080140000C014051
:100CA00000BFFEE710B50021837A012202FA03F1AA
:100CB0003D4A126842F001023B4B1A603A4A1C322C
:100CC00012688A43384B1C331A60027BCAB9364A11
:100CD0000C3212688A43344B0C331A604288C38842
:100CE00042EA0343304A4032847A42F83430028880
:100CF000838842EA03432C4A4032847A02EBC402DE
:100D00005360027B012A19D1274A0C3212680A4328
:100D1000254B0C331A604288038842EA0343224A77
:100D20004032847A42F83430C288838842EA0343EE
:100D30001D4A4032847A02EBC4025360C27A3AB947
:100D4000194A121D12688A43174B1B1D1A6006E0D0
:100D5000154A121D12680A43134B1B1D1A600289A3
:100D600032B9114A143212688A430F4B14331A6095
:100D70000289012A06D10C4A143212680A430A4B2E
:100D800014331A60427B012A06D1074A1C321268CA
:100D90000A43054B1C331A60034A126822F0010211
:100DA000014B1A6010BD0000006600401AB1436993
:100DB0000B43436102E043698B434361704730B5A5
:100DC000024600200023146824F002041460146812
:100DD00044F00104146000E05B1C546804F001045A
:100DE0001CB94FF6FF74A342F6D1546804F0010415
:100DF0000CB900206CE08C79012C04D1146844F00B
:100E00008004146003E0146824F080041460CC793A
:100E1000012C04D1146844F04004146003E0146809
:100E200024F0400414600C7A012C04D1146844F0BE
:100E30002004146003E0146824F0200414604C7A49
:100E4000012C04D1146844F01004146003E0146809
:100E500024F0100414608C7A012C04D1146844F03E
:100E60000804146003E0146824F008041460CC7AC9
:100E7000012C04D1146844F00404146003E01468E5
:100E800024F0040414608C78A407CD7844EA056447
:100E90000D7944EA05444D7944EA05540D886D1EE8
:100EA0002C43D461146824F001041460002300E092
:100EB0005B1C546804F001041CB14FF6FF74A3429C
:100EC000F6D1546804F001040CB1002000E00120C8
:100ED00030BD00002DE9F04F89B006460F46904620
:100EE0009946DDF848B04FF400742546DFF86CA150
:100EF0000121042001F038F90121480601F024F90C
:100F0000E000ADF8200003208DF8220018208DF8B5
:100F1000230008A9524800F02FFDA000ADF82000E2
:100F200048208DF8230008A94D4800F025FD002039
:100F30008DF81A008DF81B008DF81C0001208DF82B
:100F40001D0000208DF81E008DF81F008DF816B0D2
:100F50008DF817608DF818808DF81970ADF8149021
:100F600005A94048FFF72BFF00208DF80E00012057
:100F70008DF80F008DF81000A54212D04FF6FF70CB
:100F800000EA4410ADF804000020ADF806004FF66A
:100F9000FF7000EA4510ADF808000020ADF80A0027
:100FA00013E04FF6FF7000EA4410ADF80400002093
:100FB000ADF80600CAF34F30ADF808004FF6FF70E9
:100FC00000EACA00001DADF80A000020ADF80C00D0
:100FD00001208DF8110001A8FFF764FE4FF4807422
:100FE0002148C07840F4807509208DF80E0001205A
:100FF0008DF80F008DF810004FF6FF7000EA4410D6
:10100000ADF804000020ADF806004FF6FF7000EACE
:101010004510ADF808000020ADF80A00ADF80C004E
:1010200001208DF8110001A8FFF73CFE01220221EA
:101030000C48FFF7BBFE14208DF8000001208DF84E
:10104000010000208DF8020001208DF803006846A1
:1010500001F034F8002009B0BDE8F08F01F000186D
:1010600000080140006400403C01002010B500F57C
:10107000D87303EB01131B6803F004031372137A94
:1010800053B900F5D87303EB01131B6840F2FF74EA
:1010900004EA5353136009E000F5D87303EB01131E
:1010A0001B686FF0604404EAD303536000F5D87303
:1010B00003EB01131B6803F00203537200F5D873AE
:1010C00003EB01135B6803F00F03937200F5D87311
:1010D00003EB01135B681B0AD37400F5D87303EBB1
:1010E00001139B68D37200F5D87303EB01139B685F
:1010F0001C0A147300F5D87303EB01139B681C0CD6
:10110000547300F5D87303EB01139B681B0E9373A4
:1011100000F5D87303EB0113DB68D37300F5D873C4
:1011200003EB0113DB681C0A147400F5D87303EB9E
:101130000113DB681C0C547400F5D87303EB011326
:10114000DB681B0E937421B9C36843F02003C360AE
:1011500003E0036943F02003036110BD10B50B49A0
:101160000978491CC9B2094A1170084601EBD071CF
:101170004910A0EB410121B91021054800F092FC73
:1011800003E01021024800F08BFC10BD1700002086
:101190000008014010B50246002006E013784340E5
:1011A000034CE05C521C4B1ED9B20029F6DC10BD8A
:1011B0002300002070B5044620211A4800F072FC7C
:1011C0002021194800F06CFC00251DE0322002F0BF
:1011D000ADFF2021134800F063FC04F0800020B133
:1011E0008021104800F05EFC03E080210D4800F0F3
:1011F00057FC322002F09AFF20210A4800F052FCEE
:101200006006040E681CC5B2082DDFDB322002F038
:101210008DFF8021034800F045FC2021024800F0AA
:1012200041FC70BD00080140000C01402DE9F04177
:10123000054688462021374800F032FC05F0BF05FE
:1012400000241DE0322002F071FF2021324800F01E
:1012500027FC05F0800020B180212F4800F022FCFF
:1012600003E080212C4800F01BFC322002F05EFFDE
:101270002021294800F016FC6806050E601CC4B247
:10128000082CDFDB8021244800F00CFC002632E033
:101290000024002729E0322002F048FF20211E48C8
:1012A00000F0FEFB072C04D180211B4800F0F8FB66
:1012B00003E08021184800F0F5FB322002F036FFF1
:1012C0007806070E4021144800F0E1FB10B147F00A
:1012D000010701E007F0FE0720210F4800F0E2FBC4
:1012E000322002F023FF601CC4B2082CD3DB08F8C4
:1012F0000670701CC6B2032ECADB322002F016FF45
:101300008021054800F0CEFB2021024800F0CAFBF6
:10131000BDE8F081000C0140000801402DE9F041DA
:1013200006460F462021324800F0BAFB00241DE09B
:10133000322002F0FBFE20212E4800F0B1FB06F027
:10134000800020B180212B4800F0ACFB03E080211D
:10135000284800F0A5FB322002F0E8FE20212548B5
:1013600000F0A0FB7006060E601CC4B2082CDFDB88
:101370000025322002F0DAFE2AE017F8058000246A
:101380001FE0322002F0D2FE20211A4800F088FB34
:1013900008F0800020B18021164800F083FB03E0B4
:1013A0008021144800F07CFB322002F0BFFE202197
:1013B000104800F077FB4FEA48604FEA1068601C65
:1013C000C4B2082CDDDB322002F0B0FE681CC5B2CE
:1013D000032DD2DB8021074800F064FB2021044864
:1013E00000F060FB322002F0A1FEBDE8F0810000B9
:1013F000000C01400008014010B500240C491E20DB
:10140000FFF714FF0A48007800F0800070B1084828
:10141000007800F0030020B90548407800F0700023
:1014200010B100F03BF901E044F00104204610BD8A
:101430006C0100202DE9FC41002000900190002467
:1014400069461620FFF7F2FE9DF802008DF80400B1
:101450009DF801008DF805009DF800008DF806004C
:101460000198FEF722FF07464FF060420B4BFEF754
:10147000ADFE0546FEF73AFF044609492046FEF751
:1014800073FE044607492046FEF76EFE04462046DA
:10149000FEF718FF01900198BDE8FC81FFFF6F4146
:1014A0000000104100007A442DE9FC41002000902A
:1014B000019069461820FFF7B9FE9DF802008DF8EB
:1014C00004009DF801008DF805009DF800008DF8DE
:1014D00006000198FEF7E9FE07464FF060420C4B0C
:1014E000FEF774FE0546FEF701FF04460949204653
:1014F000FEF73AFE044608492046FEF735FE04464C
:101500002046FEF7DFFE01900198BDE8FC81000057
:10151000FFFF6F41008076440000204110B5044673
:1015200010215C4800F0BCFA0A2002F0D9FD10211D
:10153000584800F0B7FA002C54D0FF2056490870E4
:101540004870FE208870FF20FFF7E8FE0020524917
:1015500008700F204870A02088704A20FFF7DEFE38
:1015600000204D490870487088706420FFF7D6FE4F
:101570000020494908704870012088704020FFF71A
:10158000CDFEFF2044490870487088705E20FFF748
:10159000C5FE802040490870002048708870742083
:1015A000FFF7BCFE00203C49087048708870782026
:1015B000FFF7B4FEFF20384908704870FE2088709D
:1015C000FF20FFF7ABFE2021324800F069FA0A2025
:1015D00002F0ACFDE820FFF7EDFD20212D4800F0E2
:1015E00061FA55E0FF202C4908704870FE20887091
:1015F000FF20FFF793FE0020274908704870012064
:1016000088704020FFF78AFE002023490870487048
:10161000602088706420FFF781FE00201E4908705A
:101620000F204870A02088704A20FFF777FEFF2027
:1016300019490870487088705E20FFF76FFE80209F
:101640001549087000204870802088707420FFF7CA
:1016500065FE002010490870487088707820FFF7F8
:101660005DFEFF200C4908704870FE208870FF2046
:10167000FFF754FE2021074800F012FA0A2002F07A
:1016800055FDE820FFF796FD2021024800F00AFAF8
:1016900010BD0000000C01406C01002010B5FF20BF
:1016A00003490870487088705E2000F003F810BD90
:1016B0006C01002070B506460D4620210B4800F055
:1016C000EFF90A2002F032FD304600F011F8002454
:1016D00004E0285D00F00CF8601CC4B2032CF8DBB9
:1016E0002021024800F0DEF970BD0000000C01402E
:1016F00070B50446254600261DE00A2002F016FDBE
:101700002021124800F0CCF905F0800020B980219A
:101710000E4800F0C5F903E080210C4800F0C2F942
:10172000022002F003FD6806050E2021074800F0A4
:10173000B9F9701CC6B2082EDFDB0A2002F0F6FCF5
:101740002021024800F0ACF970BD00000008014003
:10175000014609B909487047012901D10020FAE77B
:10176000022901D10648F6E7032901D10020F2E75A
:10177000042901D10020EEE70020ECE7140200204C
:101780003C0A002008B525208DF8000000208DF8C7
:10179000020001208DF80300684600F08FFC27202E
:1017A0008DF8000002208DF8020001208DF8030062
:1017B000684600F083FC08BD10B500241948006895
:1017C00020F0F000174908600846006840F08000EB
:1017D000086004E0601CC4B2012002F0A7FC4FF4D2
:1017E00000711048001F00F052F908B16E2CF1DBB7
:1017F000642C01DB012010BD002404E0601CC4B295
:10180000012002F093FC4FF400710648001F00F025
:101810003EF908B9642CF1DB642C01DB0120EAE716
:101820000020E8E7040C014010B5002404E0601C2F
:10183000C4B2012002F07AFC4FF40071104800F0AD
:1018400026F908B1642CF2DB002404E0601CC4B269
:10185000012002F06BFC4FF40071094800F017F909
:1018600008B9642CF2DB282002F060FC4FF4007110
:10187000034800F00CF908B1012010BD0020FCE77E
:10188000000C014070B50024002506E06006040E3F
:10189000FFF7CAFF0443681CC5B2082DF6DB2046DB
:1018A00070BD000070B5044600F02EF8FFF784FF0D
:1018B000C0B9002504E0FFF7E5FF6055681CC5B21C
:1018C000052DF8DB207861780844A1780844E17898
:1018D0000844C0B22179884206D004A001F0BEFFBE
:1018E000012070BD0120FCE70020FAE75265616429
:1018F000204461746520436865636B204572726F94
:1019000072210D0A0000000010B50E48006820F09A
:10191000F0000C4908600846006840F0300008609C
:1019200049150848001F00F0BBF8142002F0D8FB4E
:101930004FF400710348001F00F0B4F81E2002F0BD
:10194000F5FB10BD040C01407047000008B50020F5
:101950000090084800788DF80000064840788DF81F
:101960000100044880788DF80200684600F036FED9
:1019700008BD0000200000202DE9F04102460025AE
:101980000026002000230024002791F803C00CF05B
:101990000F0591F803C00CF0100CBCF1000F03D040
:1019A00091F802C04CEA050591F800C0BCF1000FA7
:1019B00031D0146800202BE04FF0010C0CFA00F33A
:1019C000B1F800C00CEA03069E4220D183004FF01C
:1019D0000F0C0CFA03F7BC4305FA03FC4CEA0404B1
:1019E00091F803C0BCF1280F06D14FF0010C0CFA9E
:1019F00000FCC2F814C00AE091F803C0BCF1480F23
:101A000005D14FF0010C0CFA00FCC2F810C0401CCC
:101A10000828D1D31460B1F800C0BCF1FF0F34DD49
:101A2000546800202EE000F1080C4FF0010808FA7D
:101A30000CF3B1F800C00CEA03069E4221D18300EA
:101A40004FF00F0C0CFA03F7BC4305FA03FC4CEA09
:101A5000040491F803C0BCF1280F05D100F1080C73
:101A600008FA0CF8C2F8148091F803C0BCF1480FD2
:101A700007D100F1080C4FF0010808FA0CF8C2F881
:101A80001080401C0828CED35460BDE8F081024687
:101A9000002093680B400BB1012000E0002070474C
:101AA000416170470161704770B554480078012862
:101AB00031D1022001F04AF9002001F06FF91E2017
:101AC00002F034FBFFF798FC044604F00100002804
:101AD00020D0FFF7E9FC4A490860FFF7ABFC494911
:101AE0000860474800880A2190FBF1F201FB1205CB
:101AF0004348008890FBF1F642482A463146036885
:101B000041A001F0ABFEFFF7C9FD3C480078401C46
:101B10003A49087067E039480078022831D101203D
:101B200001F014F9012001F039F91E2002F0FEFA4B
:101B3000FFF762FC044604F00100002853D0FFF7D1
:101B4000B3FC2F490860FFF775FC2E4908602C484C
:101B500000880A2190FBF1F201FB12052848008859
:101B600090FBF1F627482A46314603682DA001F084
:101B700075FEFFF793FD21480078401C1F4908704F
:101B800031E01E48007803282DD1002001F0DEF856
:101B9000022001F003F91E2002F0C8FAFFF72CFC26
:101BA000044604F00100F0B1FFF77EFC1449086020
:101BB000FFF740FC13490860114800880A2190FB98
:101BC000F1F201FB12050E48008890FBF1F60D487A
:101BD0002A46314603681AA001F040FEFFF75EFD79
:101BE000012006490870064800880A2190FBF1F0A0
:101BF0001A49088003480088488070BD8001002091
:101C0000780100207C0100204120563A2533642EC3
:101C1000256456202C20493A2533646D412E0D0A47
:101C2000000000004220563A2533642E25645620D9
:101C30002C20493A2533646D412E0D0A0000000026
:101C40004320563A2533642E256456202C20493AE9
:101C50002533646D412E0D0A00000000AC01002008
:101C6000014605E00F2001E0421ED0B20028FBDC57
:101C70000A1EA1F1010399B2F4D1704700BFFEE73B
:101C800010B500F091FA02F089F902F007FA4FF46A
:101C9000FA7002F025FA00F0F1F802F013F902F000
:101CA0008DF914A001F0DAFD01211CA001F0D6FD90
:101CB0002048016820A001F0D1FD4FF4FA7002F035
:101CC0000FFAFEF77BFEFEF715FD02F0B5F8FEF702
:101CD000D1FDFEF789FDFEF7B5FF0020FFF71EFCE2
:101CE00040F2CF21632001F0DBFAFEF7BDFC02F0E9
:101CF000D5F810BD0D0A5374617274696E67205572
:101D0000702E2E2E0D0A4A4F534F4E472D585330EA
:101D1000332056332E302E2E2E0D0A005665727348
:101D2000696F6E4E6F3A20253032582E2E2E0D0AD6
:101D3000000000009801002053797374656D436FB3
:101D40007265436C6F636B3A2025642E2E2E0D0A4C
:101D50000000000000B585B00121052000F004FA64
:101D60000121880300F000FA4FF40070ADF8100074
:101D700018208DF8130003208DF8120004A93B48A9
:101D8000FFF7FAFD4FF48060ADF8100004208DF8E5
:101D9000130004A93548FFF7EFFD4FF4E130009040
:101DA0000020ADF80400ADF80600ADF80800ADF86D
:101DB0000C000C20ADF80A0069462D4801F09EFB8E
:101DC000012240F225512A4801F073FB01212848E5
:101DD00001F039FB4021264801F02CFB01210920AC
:101DE00000F0C2F90121880400F0AEF94FF48060E0
:101DF000ADF8100018208DF8130003208DF81200A4
:101E000004A91C48FFF7B8FD4FF40060ADF81000BE
:101E100004208DF8130004A91648FFF7ADFD04A9AE
:101E20001448FFF7A9FD4FF4965000900020ADF83C
:101E30000400ADF80600ADF80800ADF80C000C2069
:101E4000ADF80A0069460C4801F058FB012240F247
:101E50002551094801F02DFB0121074801F0F3FA53
:101E60004021054801F0E6FA05B000BD0008014038
:101E700000380140000C01400048004008B5012135
:101E8000042000F071F91020ADF800008DF8030077
:101E900003208DF8020069460148FFF76DFD08BD7B
:101EA000000801400448806800F0010008B90120E2
:101EB00070470020FCE700000010014004488068E3
:101EC00000F4004008B9012070470020FCE7000042
:101ED000001001400448806800F4804008B90120E7
:101EE00070470020FCE700000010014004488068B3
:101EF00000F4005008B9012070470020FCE7000002
:101F00000010014070B505460C46012D2BD164B977
:101F10002CA001F0A3FC012000F090F8022000F0BA
:101F20008DF8042000F08AF84AE0012C0CD12AA098
:101F300001F094FC012000F089F8022000F086F8FE
:101F4000042000F07BF83BE0022C39D127A001F0FF
:101F500085FC012000F07AF8022000F06FF80420E0
:101F600000F074F82CE0022D2AD164B924A001F00D
:101F700075FC082000F062F8102000F05FF82020C7
:101F800000F05CF81CE0012C0CD122A001F066FCF2
:101F9000082000F05BF8102000F058F8202000F036
:101FA0004DF80DE0022C0BD11FA001F057FC0820CA
:101FB00000F04CF8102000F041F8202000F046F826
:101FC00070BD0000D6F7D2BBB1B8B6FEA3ACCDA3AE
:101FD000D6B92E0D0A000000D6F7D2BBB1B8B6FEB6
:101FE000A3ACB5CDCBD92E0D0A000000D6F7D2BBDD
:101FF000B1B8B6FEA3ACB8DFCBD92E0D0A000000F5
:10200000D6F7B6FEB1B8D2BBA3ACCDA3D6B92E0DD0
:102010000A000000D6F7B6FEB1B8D2BBA3ACB5CD6E
:10202000CBD92E0D0A000000D6F7B6FEB1B8D2BB50
:10203000A3ACB8DFCBD92E0D0A00000002490988F5
:102040000143014A1180704752010020024909886A
:102050008143014A118070475201002010B50D489C
:1020600000880D490988884213D040F6FF70FEF7BA
:102070002DFC09480088074908800748018807A007
:1020800001F0ECFB642002F02BF803480088FEF717
:102090001DFC10BD5401002052010020675F4C65FB
:1020A0006453686F774461743A20253034582E2E7B
:1020B0002E0D0A0000BFFEE77047000070B500213A
:1020C00000230F22C47804B3154C246804F4E064A0
:1020D000C4F5E064210AC1F10403CA40447804FA5B
:1020E00003F184781440214309010E4C0678A15570
:1020F000047804F01F050124AC4005786D11AD0093
:1021000005F1E025C5F8004109E0047804F01F0559
:102110000124AC40044D0678761145F8264070BD88
:102120000CED00E000E400E080E100E0704700001A
:1021300001460020034A506820F4404008435060A4
:10214000704700000010024029B1064AD2690243DC
:10215000044BDA6104E0034AD2698243014BDA613D
:10216000704700000010024029B1064A92690243FC
:10217000044B9A6104E0034A92698243014B9A61DD
:10218000704700000010024029B1064AD26802439D
:10219000044BDA6004E0034AD2688243014BDA6000
:1021A00070470000001002407047000030B5002169
:1021B0000022002400232D4D6D6805F00C0121B193
:1021C000042905D0082923D105E0294D056022E026
:1021D000274D05601FE0254D6D6805F47012234DF5
:1021E0006D6805F48034022505EB92421CB9214D3F
:1021F000554305600BE01D4D6D6805F400351DB1BC
:102200001C4D5543056002E0194D5543056002E041
:10221000174D056000BF00BF144D6D6805F0F0015B
:102220000909154D6B5C0568DD4045600F4D6D6813
:1022300005F4E061090A104D6B5C4568DD4085607E
:102240000A4D6D6805F46051C90A0B4D6B5C456819
:10225000DD40C560054D6D6805F44041890B074DB3
:102260006B5CC568B5FBF3F5056130BD001002403D
:1022700000127A0000093D00810100209101002038
:102280000348407820F00200014948707047000080
:10229000200000200348407840F0020001494870C7
:1022A00070470000200000200348407820F008001C
:1022B0000149487070470000200000200348407822
:1022C00040F00800014948707047000020000020DD
:1022D0000348407820F01000014948707047000022
:1022E000200000200348407840F010000149487069
:1022F00070470000200000200348407820F02000B4
:1023000001494870704700002000002003484078D1
:1023100040F0200001494870704700002000002074
:102320000348407820F040000149487070470000A1
:10233000200000200348407840F0400001494870E8
:1023400070470000200000200348407820F0800003
:102350000149487070470000200000200348407881
:1023600040F08000014948707047000020000020C4
:102370000348807820F00100014988707047000010
:10238000200000200348807840F001000149887057
:1023900070470000200000200348807820F00200F1
:1023A00001498870704700002000002003488078B1
:1023B00040F00200014988707047000020000020B2
:1023C0000348807820F004000149887070470000BD
:1023D000200000200348807840F004000149887004
:1023E00070470000200000200348007840F0010002
:1023F00001490870704700002000002003488078E1
:1024000020F008000149887070470000200000207B
:102410000348807840F00800014988707047000048
:10242000200000200348007820F0020001490870D5
:1024300070470000200000200348007840F00200B0
:102440000149087070470000200000200348007810
:1024500020F00800014908707047000020000020AB
:102460000348007840F008000149087070470000F8
:10247000200000200348007820F040000149087047
:1024800070470000200000200348007840F0400022
:1024900001490870704700002000002003480078C0
:1024A00020F08000014908707047000020000020E3
:1024B0000348007840F08000014908707047000030
:1024C0002000002008B501210820FFF74DFE032061
:1024D0008DF8020010208DF803000220ADF80000F6
:1024E00069460448FFF748FA02200249143108609F
:1024F00008BD0000000C014038B500254CE06946DD
:10250000022001F0A5FD002844D02548007800F005
:10251000800000283ED19DF800002249204A127810
:1025200088541F480078401C1D49087008460078F0
:102530000A2801DD0020087019480078401E19495A
:10254000085CF2280DD116480078032809DAF22138
:1025500013480078401E134A115401201049087096
:1025600018E0104840780E490978884212DC0621AC
:102570000C48FEF70FFE04460A488079A04206D1B7
:102580000748007840F080000549087002E000200C
:1025900003490870681C85B2B5F5806FAFDB38BDA4
:1025A00035010020E80100207047000002200149A9
:1025B00008607047100C014070B504460D460220BB
:1025C000054908602A46214601F051FD02200249D2
:1025D000091F086070BD0000140C01403EB50446A0
:1025E0000DA207CA8DE8070020788DF802006078F8
:1025F0008DF80300A0788DF80400E0788DF80500D0
:1026000006216846FEF7C6FD8DF806009DF801100C
:102610006846FFF7D1FF3EBDF1090100000000034D
:10262000020000000220014908607047140C0140BC
:102630002DE9F05F04460D4600260027B046B1465E
:10264000B246B3460A2000F027FA012809D00B2031
:1026500000F022FA012804D00C2000F01DFA012815
:1026600003D114B94FF0AA0801E04FF000080D2083
:1026700000F012FA012809D00E2000F00DFA01280E
:1026800004D00F2000F008FA012803D115B94FF04B
:10269000AA0901E04FF00009022000F0BBF806464D
:1026A000032000F0B7F80746022000F051F9012896
:1026B00009D0012000F04CF9012804D0002000F0DE
:1026C00047F9012803D114B94FF0AA0A01E04FF0ED
:1026D000000A032000F03CF9012809D0042000F092
:1026E00037F9012804D0052000F032F9012803D180
:1026F00015B94FF0AA0B01E04FF0000B46B9B8F145
:10270000000F05D1BAF1000F02D1FFF7B3FE01E0CF
:10271000FFF7BAFE47B9B9F1000F05D1BBF1000FC1
:1027200002D1FFF7BBFE01E0FFF7C2FE1EB917B9E9
:10273000FFF796FE01E0FFF789FE4CB30A2000F098
:10274000ABF901280FD10B2000F0A6F901280AD11E
:102750000C2000F0A1F930B9FFF7A6FDFFF7C2FD8C
:10276000FFF7CAFD1AE00A2000F096F9012815D1FA
:102770000B2000F091F988B90C2000F08DF90128A8
:102780000CD1FFF791FDFFF7A3FDFFF7BFFD05E0BB
:10279000FFF794FDFFF79CFDFFF7AEFD4DB30D2055
:1027A00000F07AF901280FD10E2000F075F9012808
:1027B0000AD10F2000F070F930B9FFF7EDFDFFF7F7
:1027C00009FEFFF71BFE1AE00D2000F065F9012855
:1027D00015D10E2000F060F988B90F2000F05CF9E7
:1027E00001280CD1FFF7D8FDFFF7EAFDFFF710FE37
:1027F00005E0FFF7DBFDFFF7E3FDFFF7FFFD04203A
:1028000000F04AF910B1FFF73BFD01E0FFF742FD90
:10281000BDE8F09F10B50446042C7DDA204600F098
:102820004DF91420FEF74CF810214648FFF72FF918
:1028300040B90A2044490855002044490855084633
:10284000005D10BD4048005D00286FDD0320FEF7ED
:1028500031F810213B48FFF71AF940B90A203A49EC
:1028600008550020394908550846005DE9E703206E
:10287000FEF720F810213348FFF709F940B90A2084
:10288000314908550020314908550846005DD8E710
:102890000320FEF70FF810212A48FFF7F8F840B997
:1028A0000A20294908550020284908550846005D96
:1028B000C7E70520FDF7FEFF10212248FFF7E7F8E4
:1028C00040B90A20204908550020204908550846EB
:1028D000005DB6E70520FDF7EDFF10211948FFF771
:1028E000D6F840B90A20184908550020174908555C
:1028F0000846005DA5E70520FDF7DCFF1021114823
:10290000FFF7C5F848B90A200F49085500200F49BC
:1029100008550846005D94E711E00B48005D401E35
:10292000094908550948005D8BE7FFE70A20064979
:1029300008550120054908550846005D81E7EF204C
:102940007FE7000000100140560100205A010020DE
:1029500010B50446062C72DA204600F04DFA3220FB
:10296000FDF782FF4FF400414848FFF790F840B967
:102970000A20474908550020464908550846005D89
:1029800010BD4348005D002875DD0320FDF766FF9C
:102990004FF400413D48FFF77AF840B90A203C491E
:1029A000085500203B4908550846005DE8E703202C
:1029B000FDF754FF4FF400413448FFF768F840B981
:1029C0000A20334908550020324908550846005D61
:1029D000D6E70320FDF742FF4FF400412B48FFF7F5
:1029E00056F840B90A202A490855002029490855B7
:1029F0000846005DC4E70520FDF730FF4FF40041B5
:102A00002248FFF744F840B90A2021490855002020
:102A1000204908550846005DB2E70520FDF71EFF76
:102A20004FF400411948FFF732F848B90A20184915
:102A300008550020174908550846005DA0E723E027
:102A40000520FDF70BFF4FF400411048FFF71FF87A
:102A500040B90A200E49085500200E49085508467D
:102A6000005D8DE70A48005D401E09490855094888
:102A7000005D85E7FFE70A20054908550120054963
:102A800008550846005D7BE7EF2079E7000C014020
:102A90005E0100206401002010B50446204600F0CD
:102AA0000DF83220FDF70CFF10210248FEF7EFFF72
:102AB00010BD0000001001407047000010B5044632
:102AC000102C7BD2DFE804F0081B2E4154677B8E6C
:102AD000A1B4C7DAF1EFEEED4FF400719A48FEF7BA
:102AE000DFFF4FF480719848FEF7DAFF80219648A7
:102AF000FEF7D6FF40219448FEF7D2FF22E14FF4C3
:102B000000719148FEF7CEFF4FF480718E48FEF7BA
:102B1000C7FF80218C48FEF7C3FF40218A48FEF79B
:102B2000BFFF0FE14FF400718748FEF7B9FF4FF484
:102B300080718548FEF7B6FF80218348FEF7B0FF1D
:102B400040218148FEF7ACFFFCE04FF400717E4865
:102B5000FEF7A8FF4FF480717B48FEF7A3FF8021AA
:102B60007948FEF79DFF40217748FEF799FFE9E09D
:102B70004FF400717448FEF793FF4FF48071724870
:102B8000FEF78EFF80217048FEF78CFF40216E48D3
:102B9000FEF786FFD6E04FF400716B48FEF782FF28
:102BA0004FF480716848FEF77BFF80216648FEF78E
:102BB00079FF40216448FEF773FFC3E0C1E04FF4A2
:102BC00000716148FEF76CFF4FF480715E48FEF7BC
:102BD00069FF80215C48FEF765FF40215A48FEF7F7
:102BE0005FFFAFE04FF400715748FEF75BFF4FF413
:102BF00080715548FEF756FF80215348FEF752FF7B
:102C000040215148FEF74CFF9CE04FF400714E48C4
:102C1000FEF746FF4FF480714B48FEF741FF8021DD
:102C20004948FEF73DFF40214748FEF73BFF89E05A
:102C30004FF400714448FEF735FF4FF4807142486D
:102C4000FEF72EFF80214048FEF72AFF40213E4834
:102C5000FEF728FF76E04FF400713B48FEF720FFB7
:102C60004FF480713848FEF71DFF80213648FEF78B
:102C700017FF40213448FEF715FF63E04FF4007161
:102C80003148FEF70FFF4FF480712F48FEF70AFF1F
:102C900080212D48FEF704FF40212B48FEF702FF5C
:102CA00050E03BE027E013E0FFE74FF400712648D7
:102CB000FEF7F6FE4FF480712348FEF7F1FE802107
:102CC0002148FEF7EFFE40211F48FEF7EBFE39E0FA
:102CD0004FF400711C48FEF7E5FE4FF480711A486E
:102CE000FEF7DEFE80211848FEF7DCFE4021164884
:102CF000FEF7D8FE26E04FF400711348FEF7D0FE31
:102D00004FF480711048FEF7CDFE80210E48FEF78B
:102D1000C9FE40210C48FEF7C5FE13E04FF40071D8
:102D20000948FEF7BFFE4FF480710748FEF7BAFE70
:102D300080210548FEF7B6FE40210348FEF7B2FEAB
:102D400000E000BF00BF10BD0010014010B50446F8
:102D500024B1012C0BD0022C1BD111E040210E48D4
:102D6000FEF79EFE80210C48FEF79AFE12E04021FD
:102D70000948FEF797FE80210748FEF791FE09E01B
:102D800040210548FEF78CFE80210348FEF78AFEAD
:102D900000E000BF00BF10BD000C014010B50446AC
:102DA00024B1012C0CD0022C1ED113E04FF40041B1
:102DB0000F48FEF775FE04210E48FEF773FE14E07F
:102DC0004FF400410A48FEF76DFE04210948FEF762
:102DD00067FE0AE04FF400410548FEF761FE04215A
:102DE0000448FEF75DFE00E000BF00BF10BD00001C
:102DF000000801400014014010B50446082C74D2AC
:102E0000DFE804F004132333435363744FF4805119
:102E10004048FEF745FE80213E48FEF741FE4FF454
:102E200080413C48FEF73CFE71E04FF48051394848
:102E3000FEF738FE4FF400513648FEF731FE4FF4EE
:102E400080413448FEF72CFE61E04FF48051314858
:102E5000FEF726FE4FF400512E48FEF723FE4FF4F6
:102E600080412C48FEF71CFE51E04FF48051294868
:102E7000FEF718FE4FF400512648FEF713FE4FF4FC
:102E800080412448FEF70CFE41E04FF48051214878
:102E9000FEF706FE4FF400511E48FEF701FE4FF408
:102EA00080411C48FEF7FEFD31E04FF48051194887
:102EB000FEF7F8FD4FF400511648FEF7F1FD4FF410
:102EC00080411448FEF7EEFD21E04FF48051114897
:102ED000FEF7E6FD4FF400510E48FEF7E3FD4FF418
:102EE00080410C48FEF7DEFD11E00FE04FF4805109
:102EF0000848FEF7D7FD4FF400510648FEF7D2FD13
:102F00004FF480410348FEF7CDFD00E000BF00BF55
:102F100010BD0000000C014010B500F001F810BD1C
:102F20000CB50020019000903348006840F48030D8
:102F30003149086000BF3048006800F4003000905C
:102F40000198401C0190009818B90198B0F5A06F45
:102F5000F1D12948006800F4003010B10120009040
:102F600001E0002000900098012843D12348006828
:102F700040F01000214908600846006820F0030076
:102F800008600846006840F0020008601A4840687F
:102F9000194948600846406848600846406840F45F
:102FA000806048600846406820F47C10486008460D
:102FB000406840F4E81048600846006840F08070BF
:102FC000086000BF0C48006800F000700028F9D0CD
:102FD0000948406820F003000749486008464068F7
:102FE00040F00200486000BF0348406800F00C0059
:102FF0000828F9D10CBD000000100240002002405A
:10300000042808D14FF0E021096941F004014FF094
:10301000E022116107E04FF0E021096921F004018D
:103020004FF0E0221161704710B500F001F810BDBB
:1030300010B5002406E0114901EBC40000F0E4FFE4
:10304000601CC4B2042CF6DB0D480068401C0C491F
:103050000860084600686FF00041884202D10020F5
:103060000749086007480078401CC0B2054908704D
:103070000A2801DB0020087010BD0000B801002004
:10308000240100202801002010B51348006840F0FA
:1030900001001149086008464068104908400E497F
:1030A0004860084600680E4908400B490860084619
:1030B000006820F4802008600846406820F4FE0084
:1030C00048604FF41F008860FFF726FF4FF0006054
:1030D0000449086010BD0000001002400000FFF825
:1030E000FFFFF6FE08ED00E010B53748007800F06D
:1030F0008000002862D10121880700F013F9A8B1EF
:103100003148007800F0400080B12F48007800F08E
:103110003F003F2805D100202B4908702B4908802B
:1031200004E029480078401C27490870022148071C
:1031300000F0F8F8002841D02348007800F0400063
:1031400040282CD12048007840F080001E490870AB
:103150004FF0804000F0E3F81C4908800221480746
:1031600000F0FAF819480088262814DD174800886E
:103170003E2810DA14480078C0280CD11448007892
:10318000AA2805D113480078401C1249087002E0B3
:1031900000201049087000200B4908700EE0002044
:1031A0000A4908804020084908700021000600F004
:1031B000DCF800214FF0804000F0CEF803214FF002
:1031C000804000F09DF810BD180000201A0000207B
:1031D000090000200A00002010B501212A4800F053
:1031E000A1F800284FD02948008840F6B83188421D
:1031F0000FDD00202549088025480078401CC0B21A
:1032000023490870062190FBF1F201FB12002049CE
:1032100008701E480088401C1C4908801D48007822
:10322000AA2818D11C480088401C1B490880084661
:103230000088B0F57A7F16DD0020088017480078F6
:10324000401C164908700846007806280BDDBB2094
:103250001049087007E00F48007820B900200E4997
:1032600008800E490870FFF7E3FE084800880A212D
:1032700090FBF1F201FB120008B900F0A9FE012158
:10328000014800F03DF810BD00040040120000208D
:103290000B00002010000020140000201600002069
:1032A0007FB505460C4601210220FEF74DFFADF823
:1032B0000850ADF804400020ADF80A00ADF8060053
:1032C00001A90E4800F054F8012211460B4800F005
:1032D0003AF81D208DF8000000208DF80100032031
:1032E0008DF8020001208DF803006846FEF7E6FE27
:1032F0000121024800F007F87FBD000000040040F3
:10330000CA430282704721B1028842F00102028062
:1033100004E002884FF6FE731A40028070470146AF
:10332000888E704730B50246002000230024158A9D
:1033300005EA0103958905EA010413B10CB10120E6
:1033400000E0002030BD1AB183890B43838102E085
:1033500083898B43838170470A460021018C4FF695
:10336000FD73194011430184704781847047000048
:10337000002202881D4B98420ED01D4B98420BD064
:10338000B0F1804F08D01B4B984205D01A4B9842A1
:1033900002D01A4B984204D14FF68F731A404B88D3
:1033A0001A43174B984207D0164B984204D04FF659
:1033B000FF431A40CB881A4302808B8883850B8891
:1033C00003850A4B98420BD0094B984208D00E4B0C
:1033D000984205D00D4B984202D00D4B984201D136
:1033E0000B7A03860123838270470000002C014082
:1033F000003401400004004000080040000C004080
:103400000010004000140040004001400044014012
:103410000048014010B5024800F02DF910BD000031
:103420001402002010B5024800F025F910BD00007C
:103430003C0A002001F40072B2F5007F00D100BF09
:10344000CA430280704721B1828942F400528281CE
:1034500004E082894DF6FF731A408281704770B58F
:103460000246002400230025002040F66A16B142DF
:1034700000D100BFC1F3421501F01F03012606FA77
:1034800003F3012D02D19689334006E0022D02D1CB
:10349000168A334001E0968A33400C12012606FA60
:1034A00004F41688344013B10CB1012000E0002070
:1034B00070BDF0B50346002400260025002040F62C
:1034C0006A17B94200D100BF1846C1F3421401F097
:1034D0001F06012707FA06F5012C01D10C3004E084
:1034E000022C01D1103000E014301AB107682F43CC
:1034F000076002E00768AF430760F0BD2DE9F047C1
:1035000086B005460E460024A24600BFA14600270D
:10351000B08900B100BF2F462C8A4CF6FF700440E2
:10352000F08804432C82AC894EF6F3100440B08836
:1035300031890843718908430443AC81AC8A4FF652
:10354000FF400440B0890443AC8201A8FEF72EFE80
:103550001F48874202D1DDF810A001E0DDF80CA081
:10356000A88900F4004040B10AEBCA0000EB0A1041
:1035700031684900B0FBF1F807E00AEBCA0000EB44
:103580000A1031688900B0FBF1F86420B8FBF0F054
:1035900004012009642101FB1089A88900F400407E
:1035A00040B1322000EBC900B0FBF1F000F00700A1
:1035B000044308E0322000EB09106421B0FBF1F075
:1035C00000F00F0004432C8106B0BDE8F087000036
:1035D0000038014001468888C0F308007047C1F3F5
:1035E000080282807047000010B586B0002401AA4E
:1035F00000210B48FDF73AFD0A480078AA280CD0B4
:1036000000BF05E00DF10F00005D07490855641C7F
:10361000082CF7DBAA200349087006B010BD000093
:1036200000640040080000200000002070B504463F
:103630000D46012000F034F9668B002000F030F9CF
:103640000EB9002070BD218BA068405C287001205D
:1036500000F026F9208B401C80B22083E18988424B
:1036600001DB00202083608B401E6083002000F07F
:1036700017F90120E6E770B5044640F225512068AD
:10368000FFF7EDFEE0B12068FFF7A4FFC5B2E18AC5
:10369000A0684554E08A401C80B2E082E1898842FB
:1036A00001DB0020E082608BE189884202DA608BD6
:1036B000401C6083606A10B12846616A884700BF79
:1036C00040F227712068FFF7CAFE08B3A08A60B9EC
:1036D000002240F227712068FFF7EBFE012240F242
:1036E00026612068FFF7E5FE37E0638A6268D15CF7
:1036F0002068FFF774FF608A401C80B26082A18955
:10370000884201DB00206082A08A401EA08224E063
:1037100040F226612068FFF7A2FEF0B1A08A50B9FE
:10372000002240F226612068FFF7C3FE206AA0B1A4
:10373000206A804711E0638A6268D15C2068FFF7E5
:103740004EFF608A401C80B26082A189884201DB02
:1037500000206082A08A401EA08270BD2DE9F04149
:1037600004460E461746002527E00CE0012000F035
:1037700097F8B4F81480002000F092F8A089404532
:1037800000DD01E000BFF1E700BF705D228A6168E3
:103790008854012000F084F8208A401C80B22082E6
:1037A000A189884201DB00202082A08A401CA082DF
:1037B000002000F075F8681C85B2BD42D5DB0122FF
:1037C00040F227712068FFF774FEBDE8F081000029
:1037D00016481749086017484860174888604FF432
:1037E00080608881C881002008824882C88208835E
:1037F00048838882C861086248621048104908609E
:1038000010484860104888604FF480608881C88103
:10381000002008824882C8820883488388820B4837
:10382000C8610B4808620B48486270470038014085
:10383000140200203C0200203C060020004800400A
:103840003C0A0020640A0020640E0020AD25000818
:1038500025260008A925000800BFFEE70FB4054B88
:1038600010B503A9044A029800F01EF810BC5DF8D8
:1038700014FB0000794100083801002002E008C86C
:10388000121F08C1002AFAD170477047002001E0DA
:1038900001C1121F002AFBD1704780F310887047C6
:1038A00080F31088704700002DE9FF4F8DB00F4660
:1038B0000546002606E025280BD0DDE90F129047CB
:1038C0006D1C761C28780028F5D111B03046BDE873
:1038D000F08F0024A246A1460122EC4900E00443F7
:1038E00015F8013F203B02FA03F00842F7D128788F
:1038F0002A2810D06FF02F022878A0F13001092972
:1039000014D80AEB8A0102EB410144F0020400EBF7
:10391000010A6D1CF0E701CF5FEA000A03D544F409
:103920000054CAF1000A44F002046D1C28782E28C5
:1039300017D115F8010F44F004042A280ED06FF0B7
:103940002F022878A0F1300109290AD809EB890152
:1039500002EB410100EB01096D1CF2E757F8049BF3
:103960006D1C28786C280FD006DC4C2817D06828EE
:103970000DD06A2814D104E0742810D07A280FD111
:103980000DE044F400140AE044F4801401E044F42F
:1039900040146978814202D104F580146D1C6D1CBD
:1039A0002A786E2A1FD00CDC632A31D004DC002A6E
:1039B0008BD0582A11D1A3E0642A68D0692A0CD18F
:1039C00065E0732A2ED004DC6F2A73D0702A04D1EC
:1039D0009BE0752A6FD0782A6ED01046DDE90F1271
:1039E0009047761C50E1C4F30250022806D0032809
:1039F00009D0042801CF09D0066045E101CFF117B5
:103A0000C0E9006140E101CF06803DE106703BE185
:103A100017F8040B8DF8000000208DF80100EB462C
:103A2000012003E057F804BB4FF0FF3061074FF06F
:103A3000000102D40DE008F10101884649450FDA82
:103A40008045F8DB1BF808100029F4D108E008F1E4
:103A5000010188468142FADB1BF808100029F6D1E3
:103A6000DDE90F23AAEB08008146214600F036F974
:103A7000304400EB080604E0DDE90F121BF8010BEF
:103A80009047B8F10108F7D221464846F7E00A21ED
:103A9000C4F302534FF0000B0891022B04D001CF66
:103AA000C117032B09D00AE0FF1D27F00707F7E82D
:103AB000020108E032E01FE020E000B2C117042B51
:103AC00001D140B2C117031E71F1000307DA4FF0B4
:103AD000000CD0EB0C006CEB01012D2302E0230560
:103AE00004D52B238DF82430012303E0E30701D014
:103AF0002023F7E7984658E00A2110E010210EE055
:103B000010204FF0000B08900CE010214FF0000B3C
:103B100044F004044FF00809089103E008214FF035
:103B2000000B0891C4F30253022B04D001CF0021F3
:103B3000032B06D006E0FF1D27F00707F7E8020178
:103B400003E080B2042B00D1C0B24FF0000823077D
:103B50002BD5702A07D0DDF820C08CF0100C5CEA61
:103B60000B0C05D00EE040238DF82430012308E033
:103B700050EA010306D030238DF824308DF825203B
:103B800002239846DDF820C08CF0080C5CEA0B0C90
:103B90000BD150EA010301D1630706D530238DF81C
:103BA00024304FF00108A9F10109582A04D038A2A5
:103BB0000B9208AA0A920BE03AA2F9E75B46089A30
:103BC000FCF7B0FB0B9B9B5C0A9A521E0A92137087
:103BD00050EA0102F2D10A98ADEB000000F1200B8F
:103BE000600702D524F4803401E04FF00109D94583
:103BF00002DDA9EB0B0000E0002000EB0B014144CB
:103C00000890AAEB010AE00306D4DDE90F23214660
:103C1000504600F063F806444FF0000908E009A997
:103C200011F80900DDE90F12904709F10109761C2E
:103C3000C145F4DBE0030CD5DDE90F2321465046F6
:103C400000F04CF8064404E0DDE90F123020904704
:103C5000761C0899481E08900029F5DC08E00A98AF
:103C60000A990078491C0A91DDE90F129047761CE9
:103C7000BBF10001ABF1010BF1DC21465046DDE95F
:103C80000F2300F019F806446D1C1BE609280100FB
:103C900030313233343536373839616263646566C2
:103CA0000000000030313233343536373839414284
:103CB00043444546000000002DE9F041044600253C
:103CC0001E461746880404D405E039462020B04734
:103CD0006D1C641EF9D52846BDE8F0812DE9F04140
:103CE000044600251E469046C80301D5302700E053
:103CF0002027880404D505E041463846B0476D1CAE
:103D0000641EF9D52846BDE8F0810000014604296B
:103D100001DB00207047074800EBC1000079012853
:103D200006D10020034A02EBC10210710120F1E725
:103D30000020EFE7B801002070B50546304800EBE1
:103D400005142068804700283ED02079052802DA33
:103D50000520207152E020790A2803DA2079401CDE
:103D600020714BE0A07A38B90120A07205EB450123
:103D7000491CC8B200F038F9208900283EDDE088EF
:103D8000218988420DDAE088401C80B2E0802189D8
:103D9000884233D105EB4501C91CC8B200F024F9B3
:103DA0002CE0E07A002829DD207B401CC0B2207383
:103DB000E17A884222DB0020207305EB4501491C93
:103DC000C8B200F011F919E02079052802DD0520BC
:103DD000207110E0207918B12079401E20710AE08E
:103DE000A07A012807D10020A07205EB4501891CAB
:103DF000C8B200F0F9F80020E080207370BD000028
:103E0000AC1300200B4800790A4A5279904201D144
:103E10000020704707480079064A115C1046007977
:103E2000401CC0B21071042801DB0020107108464C
:103E3000EFE700004A01002008B501211420FEF739
:103E400093F94FF4E050ADF8000010208DF8030016
:103E500003208DF8020069460E48FDF78DFD042110
:103E60000D48FDF71FFE08210B48FDF71BFE0C2037
:103E7000ADF8000010208DF8030069460648FDF7F4
:103E80007BFD04210448FDF70DFE08210248FDF7E3
:103E900009FE08BD0010014000080140002007494C
:103EA00081F8A00081F8A10081F8A200044981F8FE
:103EB000A00081F8A10081F8A2007047071300203C
:103EC0006412002010B500F031F800F001F810BDC8
:103ED00008B501211020FEF747F903208DF80200F4
:103EE00004208DF803000120ADF8000069460E485B
:103EF000FDF742FD4FF40040ADF8000069460A4866
:103F0000FDF73AFD4FF48040ADF8000069460648E1
:103F1000FDF732FD4FF40050ADF80000694602484D
:103F2000FDF72AFD08BD0000001001400021154AE0
:103F3000117151719171002018E03221124A02EB87
:103F4000001211810221104A02EB001211710021AE
:103F50000D4A02EB001291720B4A02EB0012D17271
:103F6000094A02EB00121173411CC8B20428E4DBB9
:103F70000649054A11600649116106491162064960
:103F8000116370474A010020AC130020A51E0008F1
:103F9000BD1E0008D51E0008ED1E0008002008E028
:103FA0000021054A42F8301002EBC0021171411C99
:103FB000C8B20428F4DB7047B801002010B5FFF741
:103FC00007FCFDF7C7FEFEF77DFAFDF7DBFB10BD32
:103FD00010B5002404E02046FFF7AEFE601CC4B21A
:103FE000042CF8DB10BD000006494979054A5054FD
:103FF00011464979491CC9B25171042901DB0021DC
:10400000517170474A010020017939B9016829B11D
:104010000168491E016009B9012101717047000062
:1040200070B504460D46042C00DB70BD0120FFF77F
:1040300034FC064840F834500020044901EBC40128
:104040000871FFF72AFC00BFEFE70000B80100206D
:1040500070B505460E462846FDF77AFB04460CB9B6
:10406000002070BD31462046FFF7E0FAF9E72DE960
:10407000F04105460E4617462846FDF769FB044603
:104080000CB9BDE8F081E06908B1E06980473A46C3
:1040900031462046FFF762FB00BFF2E710B56FF034
:1040A0000400FEF7ADFF0A4800680A49B0FBF1F0D2
:1040B000094908700846007800EB4001C1EBC010C8
:1040C0004FF6FF7101EAC0000449088010BD0000EE
:1040D0009801002000127A001C0000201E00002021
:1040E0000146114A12884A434FF0E0235A610022E8
:1040F0009A611A46126942F001021A6100BF4FF03C
:10410000E022106900F001021AB100F48032002AA6
:10411000F5D04FF0E022126922F001024FF0E023C7
:104120001A6100229A6170471E0000200146114A60
:1041300012784A434FF0E0235A6100229A611A46EE
:10414000126942F001021A6100BF4FF0E0221069CB
:1041500000F001021AB100F48032002AF5D04FF0CD
:10416000E022126922F001024FF0E0231A610022DE
:104170009A6170471C00002000BF054A128802F0B7
:104180004002002AF9D0C2B2014B1B1D1A807047B1
:104190000038014086B0002004900590039000266E
:1041A0000025002400278046FEF76EFFFDF768FD1E
:1041B0000021A020FCF732FC00204B230222032127
:1041C0000090FCF787FEDBA0FFF748FBE248FFF713
:1041D00045FBC8210120FFF723FF40F6FF70FDF7E4
:1041E0002DFF0421DD48FDF75BFC0821DB48FDF7CE
:1041F00057FCFEF7F9F8FEF71FF9FEF75FF8FEF738
:1042000071F8FEF783F8FEF7D1F8FEF7E3F8FEF752
:10421000FFF8FEF7A3F88CE1FCF7A0FF0120FFF701
:1042200075FD00287BD0C8210120FFF7F9FE142E70
:1042300002DA701CC6B20DE0002604A8FDF732FBBE
:1042400030B99DF81200C64988809DF81000C880DA
:10425000FDF72AFCC248C34A127830F81210C14850
:104260000078FCF7DBFB9DF804109DF80800FEF7D2
:10427000DFF9FDF76BFBFFF7C5FD0546002D30D0DC
:104280000C2D2CD2DFE805F006070B2B0F132B1794
:104290001B2B1F2524E0B4A0FFF7E0FA20E0B6A016
:1042A000FFF7DCFA1CE0B8A0FFF7D8FA18E0BAA0D4
:1042B000FFF7D4FA14E0BCA0FFF7D0FA10E0BEA0DC
:1042C000FFF7CCFA0CE0FEF7B7F8BFA0FFF7C6FA8D
:1042D00006E0FEF7A7F8C0A0FFF7C0FA00E000BFB5
:1042E00000BFFEF709F9C048007800F08000802880
:1042F00044D10020BC490870BC4800798DF80C00FE
:10430000BA4840798DF80D009DF80C0010B99DF861
:104310000D0040B19DF80D209DF80C1000E0F8E074
:10432000B3A0FFF79BFA9DF80D0000F0010028BB39
:104330009DF80D0000F00800082806D10124002097
:104340008DF80C008DF80D0018E09DF80D0000F0C0
:104350001000102806D1002400208DF80C008DF8E4
:104360000D000BE09DF80D0000F02000202805D185
:10437000022400208DF80C008DF80D00002C76D161
:10438000FDF7CEFFFDF7EAFFFDF7F2FF9DF80D0008
:1043900000F0020002280CD100208DF80800012056
:1043A000FDF74CFE0220FDF749FE0420FDF746FE16
:1043B0006EE09DF80C0000F0010058B101208DF86E
:1043C0000800FDF743FE0220FDF740FE0420FDF744
:1043D00035FE5DE09DF80D0000F0040004280CD1CE
:1043E00002208DF808000120FDF730FE0220FDF7C5
:1043F00025FE0420FDF72AFE4AE09DF80D0000F09E
:10440000400040280CD100208DF804000820FDF762
:1044100015FE1020FDF712FE2020FDF70FFE37E0FD
:104420009DF80C0000F0020002280CD101208DF84C
:1044300004000820FDF70AFE1020FDF707FE2020EB
:10444000FDF7FCFD24E09DF80D0000F080008028C1
:104450001ED102208DF804000820FDF7F7FD102082
:10446000FDF7ECFD2020FDF7F1FD11E0FFE7012C49
:1044700006D1FDF75FFFFDF767FFFDF779FF07E066
:10448000022C05D1FDF74CFFFDF75EFFFDF77AFF2B
:10449000BC421BD0274600205D4908708DF80800FB
:1044A0000120FDF7CBFD0220FDF7C8FD0420FDF73C
:1044B000C5FD00208DF804000820FDF7BFFD102089
:1044C000FDF7BCFD2020FDF7B9FD30E00CB308205E
:1044D000FEF7E2FA18B10920FEF7DEFAD0B94C482F
:1044E000007848B94FF00108AA20494908704146B0
:1044F0002046FDF707FD1AE045480078BB2816D195
:104500004FF00208CC204249087041462046FDF792
:10451000F9FC0CE03E480078CC2808D14FF00008A8
:1045200000203B49087041462046FDF7EBFCFDF7B3
:1045300095FD71E643414E5F4D6F64655F496E695D
:10454000742C43414E5F426175643A2036304B62B1
:1045500070732E2E2E0D0A00404600080008014000
:10456000AC0100200B00002020204B45595F315F3B
:10457000444F574E210D0A0020204B45595F315FB3
:104580005550210D0A00000020204B45595F325F35
:10459000444F574E210D0A0020204B45595F325F92
:1045A0005550210D0A00000020204B45595F335F14
:1045B000444F574E210D0A0020204B45595F335F71
:1045C0005550210D0A00000020204B45595F345FF3
:1045D000444F574E210D0A0020204B45595F345F50
:1045E0005550210D0A00000035010020E80100208F
:1045F00052533438355F526563656976654461743A
:1046000028292C253032582C253032582E0D0A00FE
:10461000100000203F065B4F666D7D077F6F777C43
:10462000395E7971777C39585E79713D76740F0EF9
:10463000753837545C73673149783E1C7E646E5A16
:104640002D2D2D2D2D2D2D2D2D2D2D2D2D2D2D2D9A
:104650002D2D2D2D2D2D2D2D2D2D2D2D2D2D2D2D8A
:104660002D2D2D2D2D2D2D2D2D2D2D2D2D2D2D2D7A
:104670002D2D2D2D2D2D2D2D2D2D2D2D2D2D2D2D6A
:104680002D2D2D0D0A000000A84600080000002076
:10469000AC01000012050008DC470008AC01002056
:1046A000443200008C380008012400FF005EBCE2A8
:1046B000613FDD83C29C7E20A3FD1F419DC3217FFE
:1046C000FCA2401E5F01E3BD3E6082DC237D9FC1F2
:1046D000421CFEA0E1BF5D0380DE3C62BEE0025CE6
:1046E000DF81633D7C22C09E1D43A1FF4618FAA4D2
:1046F00027799BC584DA3866E5BB5907DB856739BE
:10470000BAE406581947A5FB7826C49A653BD987B1
:10471000045AB8E6A7F91B45C6987A24F8A6441AA5
:1047200099C7257B3A6486D85B05E7B98CD2306E91
:10473000EDB3510F4E10F2AC2F7193CD114FADF37D
:10474000702ECC92D38D6F31B2EC0E50AFF1134D71
:10475000CE90722C6D33D18F0C52B0EE326C8ED065
:10476000530DEFB1F0AE4C1291CF2D73CA94762851
:10477000ABF517490856B4EA6937D58B5709EBB53D
:1047800036688AD495CB2977F4AA4816E9B7550B31
:1047900088D6346A2B7597C94A14F6A8742AC89625
:1047A000154BA9F7B6E80A54D7896B021D352AFFC5
:1047B00001D5F129321D1A0A016908490A21021599
:1047C0000139162D010203040440090607080902F5
:0C47D0000406087CA24A0424591B0000C7
:0400000508000131BD
:00000001FF
