:020000040800F2
:10000000F0330020450100084D220008411F000880
:10001000492200084D0F00087D370008000000004D
:10002000000000000000000000000000552A000849
:10003000311C000800000000C1220008C52F000884
:100040005F0100085F0100085F0100085F01000810
:100050005F0100085F0100085F0100085F01000800
:100060005F0100085F0100085F0100085F010008F0
:100070005F0100085F0100085F0100085F010008E0
:100080005F0100085F0100085F0100085F010008D0
:100090000D3500085F0100085F0100085F010008DE
:1000A0005F0100085F0100085F0100085F010008B0
:1000B00085300008753100085F0100085F01000805
:1000C0005F0100085F0100085F0100085F01000890
:1000D0005F010008393300085F0100084933000858
:1000E0005F0100085F0100085F0100085F01000870
:1000F0005F0100085F0100085F0100085F01000860
:100100005F0100085F0100085F0100085F0100084F
:100110005F0100085F0100085F0100085F0100083F
:100120005F0100085F0100085F0100085F0100082F
:10013000DFF80CD000F0BCF900480047B9400008D7
:10014000F03300200648804706480047FEE7FEE7F8
:10015000FEE7FEE7FEE7FEE7FEE7FEE7FEE7FEE777
:10016000253000083101000880EA010210B502F0D4
:100170000043400022D04A001FD0010E01EB126163
:10018000C0F35600C2F3560240F4000042F40002ED
:10019000A0FB022000047F39140400D0401C50EA68
:1001A000124001D44000491EC2B20C0604EBD0102C
:1001B000401C4008802A02D003E0002010BD20F03F
:1001C0000100002900DA0020184310BD2DE9F04D90
:1001D00081EA030404F0004B21F0004514464FF07F
:1001E000000A23F0004150EA050220D054EA01023F
:1001F0001DD0C5F30A570246C5F31303C1F313001C
:10020000C1F30A5640F4801543F48013A7EB0608A7
:10021000101BD64608F2FD3873EB050002D308F137
:10022000010801E092185B41B8F1000F03DA0020E9
:100230000146BDE8F08D00204FF48011064684464B
:100240000EE0171B73EB050705D3121B63EB0503C9
:1002500006434CEA010C49084FEA300092185B4112
:1002600050EA0107EDD152EA030012D082EA0400FD
:1002700083EA0501084305D0101BAB4106D20122D9
:10028000002306E000224FF0004302E06FF001027D
:1002900053101AEB06004CEB085110EB0A0041EB2F
:1002A0000B01BDE8F04D00F0A5B80EB540F23341AA
:1002B00002910021CDE900110A460B4600F0A9F891
:1002C00003B000BD20F00040C10DC0F3160040F4A3
:1002D00000007F2901DA00207047962903DCC1F174
:1002E0009601C840704796398840704701F0004336
:1002F00030B421F0004150EA010206D00A0DA2F507
:100300006072C1F31301002A02DC30BC0020704788
:10031000440F44EAC104C100E01830BC00EBC250F5
:1003200000F031B82DE9F05F0546002092469B466B
:1003300088460646814640241BE0284641464746FB
:10034000224600F0D6F853465A46C01A914110D3BF
:1003500011461846224600F0BDF82D1A67EB010839
:100360004F4622460120002100F0B4F817EB0009A7
:100370004E41201EA4F10104DFDC484631462A46E6
:100380004346BDE8F09F0029A8BF7047401C4900C4
:1003900008BF20F00100704710B4B0FA80FC00FAEA
:1003A0000CF050EA010404BF10BC704749B1CCF115
:1003B000200421FA04F411FA0CF118BF01212143A1
:1003C0000843A3EB0C01CB1D4FEA00614FEA10205C
:1003D00042BF002010BC704700EBC35010440029FE
:1003E000A4BF10BC7047401C490008BF20F00100AA
:1003F00010BC704710B5141E73F1000408DA401CDD
:1004000041F1000192185B411A4301D120F0010033
:1004100010BD2DE9F04D92469B4611B1B1FA81F223
:1004200002E0B0FA80F22032904600F053F8044621
:100430000F4640EA0A0041EA0B0153465A46084378
:1004400013D0114653EA010019D0C8F140025046BA
:1004500000F04FF805460E4650465946424600F019
:1004600039F8084305D0012004E020463946BDE8AC
:10047000F08D0020054346EAE0762C4337430A9886
:100480006305E40AA0EB08000022FD0A44EA475491
:100490000A3002D500200146E9E70105101969413B
:1004A000DDE9084500196941BDE8F04DA2E700000B
:1004B000064C074D06E0E06840F0010394E80700B1
:1004C00098471034AC42F6D3FFF736FE04450008D7
:1004D00024450008202A04DB203A00FA02F100201B
:1004E00070479140C2F1200320FA03F31943904072
:1004F0007047202A04DB203A21FA02F000217047DD
:1005000021FA02F3D040C2F120029140084319467B
:10051000704770B58C1810F8015B15F0070301D116
:1005200010F8013B2A1106D110F8012B03E010F856
:10053000016B01F8016B5B1EF9D12B0705D4002379
:10054000521E0DD401F8013BFAE710F8013BCB1A1B
:10055000921C03E013F8015B01F8015B521EF9D510
:10056000A142D8D3002070BD21B1826842F00102BF
:10057000826003E0826822F001028260704700001E
:1005800010B504461248844208D10121401501F0FB
:10059000C5FE0021601501F0C1FE17E00D48844240
:1005A00008D10121001501F0B9FE0021201501F04C
:1005B000B5FE0BE00848844208D10121C80301F0D0
:1005C000ADFE00214FF4004001F0A8FE10BD000078
:1005D0000024014000280140003C01400146002069
:1005E0008A6802F004020AB1012000E0002070478E
:1005F000014600208A6802F008020AB1012000E0EA
:100600000020704730B502460020002350680F4C90
:1006100020400D790C6844EA05242043506090681E
:100620000B4C2040D1E902542C434D7944EA450457
:1006300020439060D06A20F470000C7C641EE4B209
:10064000234340EA0350D06230BD0000FFFEF0FFBC
:10065000FDF7F1FF816841F0080181607047816812
:1006600041F004018160704700B587B001214FF46B
:10067000017001F043FE4FF4004001F023FE022020
:10068000ADF8040000208DF8070001A9174801F01B
:10069000E7FA1748FFF774FF002002908DF80C006E
:1006A0008DF80D004FF4602004900020059001208B
:1006B0008DF8180002A90E48FFF7A4FF01210C488D
:1006C000FFF752FF0A48FFF7C5FF00BF0848FFF7D2
:1006D0008FFF0028FAD10648FFF7C1FF00BF04488A
:1006E000FFF77CFF0028FAD107B000BD00080140E9
:1006F000002401401FB50121082001F0FFFD4FF447
:100700000070ADF8040010208DF8070003208DF86C
:10071000060001A91C4801F0A3FA01F069FA01F0F2
:10072000A1F918B919A003F02BF802E01CA003F0FE
:1007300027F8002405E001F0FBF902A90855601C28
:10074000C4B2052CF7DB9DF808009DF80910084499
:100750009DF80A1008449DF80B100844C0B29DF89B
:100760000C10884203D014A003F00AF80BE09DF8A7
:100770000B0000909DF80A309DF809209DF80810A4
:1007800014A002F0FDFF1FBD000C0140444854318D
:10079000315F496E6974204F4B21202020000000FA
:1007A00044485431315F496E6974204572726F72EA
:1007B0002120202000000000526561642044617403
:1007C0006520436865636B204572726F72210D0A64
:1007D00000000000483A25642E25643B20543A2549
:1007E000642E25642E0D0A0008B501211C2001F09D
:1007F00085FD47F2C000ADF8000010208DF8030021
:1008000003208DF802006946114801F029FA4FF4DF
:100810000040ADF8000010208DF8030069460D4837
:1008200001F01EFA0420ADF8000010208DF803003E
:100830006946094801F014FA4FF40040ADF8000091
:1008400048208DF803006946014801F009FA08BD07
:10085000000C0140000801400014014010B504469E
:10086000204603F0CFFB10BD10B50446204603F030
:10087000EFFB10BD08B50121102001F03FFD4FF442
:100880007070ADF8000010208DF8030003208DF883
:1008900002006946064801F0E3F91020ADF80000B7
:1008A00048208DF803006946014801F0D9F908BDD8
:1008B0000010014010B50446204603F0A3FB10BD14
:1008C00010B50446204603F0C3FB10BD70B50446C6
:1008D00025464FF48061214801F056FA4FF400613B
:1008E0001E4801F051FA012001F01CFB002625E012
:1008F00005F40040B0F5004F05D14FF48051174882
:1009000001F044FA04E04FF48051144801F03CFA3D
:10091000012001F007FB4FF40061104801F036FAA6
:10092000012001F0FFFA4FF400610C4801F02CFAAD
:100930004FF6FF7000EA4505701CC6B2102ED7DBDB
:100940004FF48061054801F021FA012001F0EAFA34
:100950004FF48061014801F017FA70BD00100140AA
:1009600010B50821144801F011FA0421124801F0D1
:100970000DFA0221104801F009FA402000F08EFA29
:1009800008210D4801F002FAC02000F087FA002487
:1009900004E0002000F082FA601CC4B2102CF8DBE6
:1009A0000821054801F0F2F9802000F077FA0821CB
:1009B000014801F0EBF910BD0010014008B501211C
:1009C000102001F09BFC0E20ADF8000010208DF8E7
:1009D000030003208DF802006946034801F040F946
:1009E000FFF7BEFF08BD00000010014001B581B057
:1009F0000BE06420009004E09DF80000401EC0B2AF
:100A000000909DF800000028F6DCBDF80400411EAF
:100A100089B201910028ECD10CBD00002DE9F04114
:100A200007460D46FE480078B84203D1FD480068ED
:100A3000A8426FD0FA480078B84201D0FFF790FF83
:100A4000F7480770F7480560402000F027FA0821B2
:100A5000F54801F09BF9022F0CD1C02000F01EFADE
:100A6000002604E0002000F019FA701CC6B2102E17
:100A7000F8DB01E2012F1BD1C02000F00FFA0F209C
:100A800000F00CFA002000F009FA002607E0092027
:100A900000F004FA002000F001FA701CC6B2022E29
:100AA000F5DB092000F0FAF9032000F0F7F9E3E1A3
:100AB000062F30D1C02000F0F1F9002607E0002019
:100AC00000F0ECF9042000F0E9F9701CC6B2032E26
:100AD000F5DB0124D549085D00F0E0F9D349095D53
:100AE000081100F0DBF90024D049085D00F0D6F9C8
:100AF000CE49095D081100F0D1F9002607E0002079
:100B000000F0CCF9042000F0C9F9701CC6B2032E25
:100B1000F5DBB1E1BBE1032F6DD1C02000F0BEF9E0
:100B20000A20B5FBF0F100FB1150C04911F800801C
:100B3000404600F0B3F90A20B5FBF0F100FB11507C
:100B4000BA49085C4FEA2018404600F0A7F90A208D
:100B5000B5FBF0F00A21B0FBF1F201FB1200B34942
:100B600011F80080404600F099F90A20B5FBF0F03A
:100B70000A21B0FBF1F201FB1200AC49085C4FEA1C
:100B80002018404600F08AF96420B5FBF0F0A74930
:100B900011F80080404600F081F96420B5FBF0F0C8
:100BA000A249085C4FEA2018404600F077F99F49B7
:100BB000087800F073F99D490978082242EA21106B
:100BC00000F06CF9002000F069F9002000F066F9EF
:100BD000002000F063F9002000F060F9002000F030
:100BE0005DF9002000F05AF9002000F057F90020CC
:100BF00000F054F940E1042F6FD1C02000F04EF90D
:100C000025F07F458A48854269D20A20B5FBF0F17C
:100C100000FB11548549085D00F040F98349095DE6
:100C2000081100F03BF90A20B5FBF0F00A21B0FBF7
:100C3000F1F201FB12047D49085D00F02FF97B49B8
:100C4000095D081100F02AF96420B5FBF0F00A21D3
:100C5000B0FBF1F201FB12047449085D00F01EF9CB
:100C60007249095D081100F019F94FF47A70B5FB6B
:100C7000F0F00A21B0FBF1F201FB12046B49085DB0
:100C800000F00CF96949095D082242EA211000F0E0
:100C900005F942F21070B5FBF0F00A21B0FBF1F259
:100CA00001FB12046149085D00F0F8F85F49095D35
:100CB000081100F0F3F85F48B5FBF0F00A21B0FB33
:100CC000F1F201FB12045949085D00F0E7F85749B9
:100CD000095D081100F0E2F86BE077E0FFE70A2019
:100CE000B5FBF0F00A21B0FBF1F201FB12044F4911
:100CF000085D00F0D3F84D49095D081100F0CEF809
:100D00006420B5FBF0F00A21B0FBF1F201FB120404
:100D10004649085D00F0C2F84449095D081100F039
:100D2000BDF84FF47A70B5FBF0F00A21B0FBF1F298
:100D300001FB12043D49085D00F0B0F83B49095D34
:100D4000082242EA211000F0A9F842F21070B5FB27
:100D5000F0F00A21B0FBF1F201FB12043349085D07
:100D600000F09CF83149095D081100F097F831480E
:100D7000B5FBF0F00A21B0FBF1F201FB12042B49A4
:100D8000085D00F08BF82949095D081100F086F82C
:100D90002748B5FBF0F00A21B0FBF1F201FB120489
:100DA0002249085D00F07AF82049095D081100F039
:100DB00075F8002000F072F8002000F06FF80020B5
:100DC00000F06CF8002000F069F855E0052F53D1D1
:100DD000C02000F063F80024204600F05FF82046B1
:100DE00000F05CF800BF204600F058F8204600F004
:100DF00055F800BF0D49085D00F050F80B49095D3A
:100E0000081100F04BF800BF0849085D00F046F8F3
:100E10000649095D081100F041F800BF03490BE0E5
:100E2000280100202C01002000100140300100208A
:100E300040420F00A0860100085D00F02FF8154920
:100E4000095D081100F02AF80E241249085D00F02F
:100E500025F81049095D081100F020F8002420460B
:100E600000F01CF8204600F019F800BF204600F002
:100E700015F8204600F012F80821074800F086FF18
:100E80008A2000F00BF80821034800F07FFFBDE83E
:100E9000F0810000300100200010014070B50446D0
:100EA0000821124800F070FF00251CE004210F48C3
:100EB00000F06AFF04F0010020B102210B4800F0AD
:100EC00065FF03E00221094800F05EFF0120FFF703
:100ED0008DFD0421054800F059FF64100120FFF743
:100EE00085FD681CC5B2082DE0DB70BD0010014017
:100EF00008B501210C2001F001FAA020ADF8000096
:100F000010208DF8030003208DF8020069460D487B
:100F100000F0A6FE3820ADF8000010208DF8030088
:100F200003208DF802006946074800F099FE402032
:100F3000ADF8000048208DF803006946014800F034
:100F40008FFE08BD00080140000C014000BFFEE715
:100F500010B50021837A012202FA03F13D4A12689A
:100F600042F001023B4B1A603A4A1C3212688A4333
:100F7000384B1C331A60027BCAB9364A0C321268ED
:100F80008A43344B0C331A604288C38842EA0343D5
:100F9000304A4032847A42F834300288838842EA08
:100FA00003432C4A4032847A02EBC4025360027B32
:100FB000012A19D1274A0C3212680A43254B0C33F7
:100FC0001A604288038842EA0343224A4032847A04
:100FD00042F83430C288838842EA03431D4A4032D3
:100FE000847A02EBC4025360C27A3AB9194A121DDC
:100FF00012688A43174B1B1D1A6006E0154A121D22
:1010000012680A43134B1B1D1A60028932B9114A38
:10101000143212688A430F4B14331A600289012A72
:1010200006D10C4A143212680A430A4B14331A6070
:10103000427B012A06D1074A1C3212680A43054B3B
:101040001C331A60034A126822F00102014B1A6035
:1010500010BD0000006600401AB143690B434361B4
:1010600002E043698B434361704730B5024600207C
:101070000023146824F002041460146844F001048E
:10108000146000E05B1C546804F001041CB94FF6C6
:10109000FF74A342F6D1546804F001040CB9002097
:1010A0006CE08C79012C04D1146844F08004146045
:1010B00003E0146824F080041460CC79012C04D17E
:1010C000146844F04004146003E0146824F0400401
:1010D00014600C7A012C04D1146844F020041460CC
:1010E00003E0146824F0200414604C7A012C04D12D
:1010F000146844F01004146003E0146824F0100431
:1011000014608C7A012C04D1146844F00804146033
:1011100003E0146824F008041460CC7A012C04D194
:10112000146844F00404146003E0146824F0040418
:1011300014608C78A407CD7844EA05640D7944EAFC
:1011400005444D7944EA05540D886D1E2C43D46145
:10115000146824F001041460002300E05B1C546850
:1011600004F001041CB14FF6FF74A342F6D1546899
:1011700004F001040CB1002000E0012030BD0000AB
:101180002DE9F04F89B006460F4690469946DDF8A6
:1011900048B04FF400742546DFF86CA1012104200B
:1011A00001F0ACF80121480601F098F8E000ADF834
:1011B000200003208DF8220018208DF8230008A9B4
:1011C000524800F04DFDA000ADF8200048208DF8F9
:1011D000230008A94D4800F043FD00208DF81A00B7
:1011E0008DF81B008DF81C0001208DF81D000020DB
:1011F0008DF81E008DF81F008DF816B08DF8176061
:101200008DF818808DF81970ADF8149005A9404834
:10121000FFF72BFF00208DF80E0001208DF80F0046
:101220008DF81000A54212D04FF6FF7000EA44106E
:10123000ADF804000020ADF806004FF6FF7000EA9C
:101240004510ADF808000020ADF80A0013E04FF695
:10125000FF7000EA4410ADF804000020ADF806006D
:10126000CAF34F30ADF808004FF6FF7000EACA002D
:10127000001DADF80A000020ADF80C0001208DF82B
:10128000110001A8FFF764FE4FF480742148C07874
:1012900040F4807509208DF80E0001208DF80F00B4
:1012A0008DF810004FF6FF7000EA4410ADF804000E
:1012B0000020ADF806004FF6FF7000EA4510ADF8CB
:1012C00008000020ADF80A00ADF80C0001208DF8F0
:1012D000110001A8FFF73CFE012202210C48FFF794
:1012E000BBFE14208DF8000001208DF801000020C5
:1012F0008DF8020001208DF80300684600F0A8FF79
:10130000002009B0BDE8F08F01F00018000801408E
:10131000006400404801002010B500F5D87303EBCD
:1013200001131B6803F004031372137A53B900F519
:10133000D87303EB01131B6840F2FF7404EA5353A4
:10134000136009E000F5D87303EB01131B686FF01D
:10135000604404EAD303536000F5D87303EB011330
:101360001B6803F00203537200F5D87303EB0113FB
:101370005B6803F00F03937200F5D87303EB01135E
:101380005B681B0AD37400F5D87303EB01139B68E9
:10139000D37200F5D87303EB01139B681C0A147316
:1013A00000F5D87303EB01139B681C0C547300F514
:1013B000D87303EB01139B681B0E937300F5D8736E
:1013C00003EB0113DB68D37300F5D87303EB011350
:1013D000DB681C0A147400F5D87303EB0113DB6897
:1013E0001C0C547400F5D87303EB0113DB681B0E5F
:1013F000937421B9C36843F02003C36003E0036919
:1014000043F02003036110BD10B50B490978491C56
:10141000C9B2094A1170084601EBD0714910A0EB1E
:10142000410121B91021054800F0B0FC03E0102172
:10143000024800F0A9FC10BD110000200008014086
:1014400010B50246002006E013784340034CE05CF0
:10145000521C4B1ED9B20029F6DC10BD1D00002025
:1014600070B5044620211A4800F090FC202119484C
:1014700000F08AFC00251DE0322002F0E9FD202169
:10148000134800F081FC04F0800020B18021104856
:1014900000F07CFC03E080210D4800F075FC322058
:1014A00002F0D6FD20210A4800F070FC6006040E10
:1014B000681CC5B2082DDFDB322002F0C9FD802197
:1014C000034800F063FC2021024800F05FFC70BD7F
:1014D00000080140000C01402DE9F0410546884616
:1014E0002021374800F050FC05F0BF0500241DE026
:1014F000322002F0ADFD2021324800F045FC05F01D
:10150000800020B180212F4800F040FC03E08021C2
:101510002C4800F039FC322002F09AFD20212948A5
:1015200000F034FC6806050E601CC4B2082CDFDB3A
:101530008021244800F02AFC002632E00024002705
:1015400029E0322002F084FD20211E4800F01CFC1E
:10155000072C04D180211B4800F016FC03E08021F9
:10156000184800F013FC322002F072FD7806070ED6
:101570004021144800F0FFFB10B147F0010701E0E3
:1015800007F0FE0720210F4800F000FC322002F097
:101590005FFD601CC4B2082CD3DB08F80670701C19
:1015A000C6B2032ECADB322002F052FD802105486C
:1015B00000F0ECFB2021024800F0E8FBBDE8F081E0
:1015C000000C0140000801402DE9F04106460F469D
:1015D0002021324800F0D8FB00241DE0322002F028
:1015E00037FD20212E4800F0CFFB06F0800020B10F
:1015F00080212B4800F0CAFB03E08021284800F03E
:10160000C3FB322002F024FD2021254800F0BEFB60
:101610007006060E601CC4B2082CDFDB00253220E9
:1016200002F016FD2AE017F8058000241FE03220A2
:1016300002F00EFD20211A4800F0A6FB08F0800001
:1016400020B18021164800F0A1FB03E0802114485E
:1016500000F09AFB322002F0FBFC2021104800F041
:1016600095FB4FEA48604FEA1068601CC4B2082C32
:10167000DDDB322002F0ECFC681CC5B2032DD2DBAE
:101680008021074800F082FB2021044800F07EFB07
:10169000322002F0DDFCBDE8F0810000000C0140CA
:1016A0000008014010B500240C491E20FFF714FF6C
:1016B0000A48007800F0800070B10848007800F017
:1016C000030020B90548407800F0700010B100F028
:1016D0003BF901E044F00104204610BD78010020F0
:1016E0002DE9FC410020009001900024694616205D
:1016F000FFF7F2FE9DF802008DF804009DF801004E
:101700008DF805009DF800008DF806000198FEF7A1
:10171000CCFD07464FF060420B4BFEF757FD0546E8
:10172000FEF7E4FD044609492046FEF71DFD044688
:1017300007492046FEF718FD04462046FEF7C2FD85
:1017400001900198BDE8FC81FFFF6F41000010414E
:1017500000007A442DE9FC41002000900190694688
:101760001820FFF7B9FE9DF802008DF804009DF8DF
:1017700001008DF805009DF800008DF80600019825
:10178000FEF793FD07464FF060420C4BFEF71EFD3F
:101790000546FEF7ABFD044609492046FEF7E4FC8A
:1017A000044608492046FEF7DFFC04462046FEF7C3
:1017B00089FD01900198BDE8FC810000FFFF6F41A9
:1017C000008076440000204110B5044610215C489A
:1017D00000F0DAFA0A2002F015FC1021584800F057
:1017E000D5FA002C54D0FF20564908704870FE20CE
:1017F0008870FF20FFF7E8FE0020524908700F2094
:101800004870A02088704A20FFF7DEFE00204D4976
:101810000870487088706420FFF7D6FE00204949A0
:1018200008704870012088704020FFF7CDFEFF202F
:1018300044490870487088705E20FFF7C5FE80201C
:10184000404908700020487088707420FFF7BCFE83
:1018500000203C490870487088707820FFF7B4FE7B
:10186000FF20384908704870FE208870FF20FFF77D
:10187000ABFE2021324800F087FA0A2002F0E8FB94
:10188000E820FFF7EDFD20212D4800F07FFA55E01C
:10189000FF202C4908704870FE208870FF20FFF759
:1018A00093FE00202749087048700120887040206E
:1018B000FFF78AFE00202349087048706020887076
:1018C0006420FFF781FE00201E4908700F20487039
:1018D000A02088704A20FFF777FEFF201949087082
:1018E000487088705E20FFF76FFE802015490870F1
:1018F00000204870802088707420FFF765FE00206B
:1019000010490870487088707820FFF75DFEFF204E
:101910000C4908704870FE208870FF20FFF754FEC5
:101920002021074800F030FA0A2002F091FBE8205D
:10193000FFF796FD2021024800F028FA10BD0000B4
:10194000000C01407801002010B5FF200349087009
:10195000487088705E2000F003F810BD7801002008
:1019600070B506460D4620210B4800F00DFA0A20FE
:1019700002F06EFB304600F011F8002404E0285D10
:1019800000F00CF8601CC4B2032CF8DB20210248E4
:1019900000F0FCF970BD0000000C014070B5044679
:1019A000254600261DE00A2002F052FB20211248A5
:1019B00000F0EAF905F0800020B980210E4800F01F
:1019C000E3F903E080210C4800F0E0F9022002F086
:1019D0003FFB6806050E2021074800F0D7F9701C70
:1019E000C6B2082EDFDB0A2002F032FB20210248BB
:1019F00000F0CAF970BD000000080140014609B9B5
:101A000009487047012901D10020FAE7022901D1D4
:101A10000648F6E7032901D10020F2E7042901D1A5
:101A20000020EEE70020ECE7140200203C0A002032
:101A300008B525208DF8000000208DF80200012057
:101A40008DF80300684600F003FC27208DF80000A5
:101A500002208DF8020001208DF80300684600F096
:101A6000F7FB08BD10B500241948006820F0F0000D
:101A7000174908600846006840F08000086004E0EC
:101A8000601CC4B2012002F0E3FA4FF40071104868
:101A9000001F00F070F908B16E2CF1DB642C01DB43
:101AA000012010BD002404E0601CC4B2012002F03B
:101AB000CFFA4FF400710648001F00F05CF908B936
:101AC000642CF1DB642C01DB0120EAE70020E8E76D
:101AD000040C014010B5002404E0601CC4B20120D5
:101AE00002F0B6FA4FF40071104800F044F908B162
:101AF000642CF2DB002404E0601CC4B2012002F07C
:101B0000A7FA4FF40071094800F035F908B9642CC0
:101B1000F2DB282002F09CFA4FF40071034800F039
:101B20002AF908B1012010BD0020FCE7000C01409B
:101B300070B50024002506E06006040EFFF7CAFF1A
:101B40000443681CC5B2082DF6DB204670BD0000BA
:101B500038B5044600F04CF8FFF784FF002821D187
:101B6000002504E0FFF7E4FF6055681CC5B2052DB1
:101B7000F8DB207861780844A1780844E1780844CB
:101B8000C0B22179884204D008A001F0F9FD0120FB
:101B900038BDE0780090A378627821780AA001F03F
:101BA000EFFD01E00120F3E70020F1E752656164F9
:101BB000204461746520436865636B204572726FD1
:101BC00072210D0A000000003E3E44485431315F4E
:101BD000526561645F4461746120483A25642E2532
:101BE000643B20543A25642E25642E0D0A00000023
:101BF00010B50E48006820F0F0000C490860084657
:101C0000006840F03000086049150848001F00F0E7
:101C1000BBF8142002F0F6F94FF400710348001FDE
:101C200000F0B4F81E2002F013FA10BD040C0140BD
:101C30007047000008B500200090084800788DF833
:101C40000000064840788DF80100044880788DF83F
:101C50000200684600F000FD08BD00001A000020E8
:101C60002DE9F04102460025002600200023002433
:101C7000002791F803C00CF00F0591F803C00CF099
:101C8000100CBCF1000F03D091F802C04CEA05051E
:101C900091F800C0BCF1000F31D0146800202BE097
:101CA0004FF0010C0CFA00F3B1F800C00CEA030687
:101CB0009E4220D183004FF00F0C0CFA03F7BC4377
:101CC00005FA03FC4CEA040491F803C0BCF1280FA8
:101CD00006D14FF0010C0CFA00FCC2F814C00AE067
:101CE00091F803C0BCF1480F05D14FF0010C0CFA7C
:101CF00000FCC2F810C0401C0828D1D31460B1F811
:101D000000C0BCF1FF0F34DD546800202EE000F16C
:101D1000080C4FF0010808FA0CF3B1F800C00CEA07
:101D200003069E4221D183004FF00F0C0CFA03F7FB
:101D3000BC4305FA03FC4CEA040491F803C0BCF16F
:101D4000280F05D100F1080C08FA0CF8C2F814802D
:101D500091F803C0BCF1480F07D100F1080C4FF017
:101D6000010808FA0CF8C2F81080401C0828CED3ED
:101D70005460BDE8F0810246002093680B400BB12F
:101D8000012000E000207047416170470161704709
:101D900070B54F480078012831D1022000F0A4FF2F
:101DA000002000F0C9FF1E2002F052F9FFF77AFC74
:101DB000044604F00100002820D0FFF7CBFC454981
:101DC0000860FFF78DFC44490860424800880A21FA
:101DD00090FBF1F201FB12053E48008890FBF1F602
:101DE0003D482A46314603683CA001F0C9FCFFF794
:101DF000ABFD37480078401C3549087067E034482F
:101E00000078022831D1012000F06EFF012000F09F
:101E100093FF1E2002F01CF9FFF744FC044604F077
:101E20000100002853D0FFF795FC2A490860FFF70E
:101E300057FC29490860274800880A2190FBF1F2E5
:101E400001FB12052348008890FBF1F622482A4640
:101E50003146036827A001F093FCFFF775FD1C488D
:101E60000078401C1A49087031E0194800780328AE
:101E70002DD1002000F038FF022000F05DFF1E2071
:101E800002F0E6F8FFF70EFC044604F00100F0B1A2
:101E9000FFF760FC0F490860FFF722FC0E4908605D
:101EA0000C4800880A2190FBF1F201FB1205094859
:101EB000008890FBF1F608482A463146036813A0D3
:101EC00001F05EFCFFF740FD01200149087070BD84
:101ED0008C01002084010020880100204120563A16
:101EE00025642E256456202C20493A25646D412E08
:101EF0000D0A00004220563A25642E256456202CF7
:101F000020493A25646D412E0D0A00004320563ABF
:101F100025642E256456202C20493A25646D412ED7
:101F20000D0A0000014605E00A2001E0421ED0B281
:101F30000028FBDC0A1EA1F1010399B2F4D170471D
:101F400000BFFEE710B500F0F9F901F0B9FF02F0AB
:101F500037F84FF4FA7002F055F800F0F1F801F09C
:101F600043FF01F0BDFF14A001F00AFC01211CA0F9
:101F700001F006FC2048016820A001F001FC4FF4AC
:101F8000FA7002F03FF8FEF719FDFEF7B3FB01F01F
:101F9000E5FEFEF76FFCFEF727FCFEF7A9FF002029
:101FA000FFF712FC40F2CF21632001F00BF9FEF79E
:101FB0005BFB01F005FF10BD0D0A5374617274697B
:101FC0006E672055702E2E2E0D0A4A4F534F4E47E6
:101FD0002D585330332056332E302E2E2E0D0A001E
:101FE00056657273696F6E4E6F3A20253032582EE7
:101FF0002E2E0D0A00000000A401002053797374F6
:10200000656D436F7265436C6F636B3A2025642E78
:102010002E2E0D0A0000000000B585B0012105201C
:1020200000F06CF90121880300F068F94FF40070AA
:10203000ADF8100018208DF8130003208DF8120061
:1020400004A93B48FFF70CFE4FF48060ADF8100088
:1020500004208DF8130004A93548FFF701FE4FF462
:10206000E13000900020ADF80400ADF80600ADF8B6
:102070000800ADF80C000C20ADF80A0069462D48A8
:1020800001F0CEF9012240F225512A4801F0A3F9CE
:102090000121284801F069F94021264801F05CF946
:1020A0000121092000F02AF90121880400F016F925
:1020B0004FF48060ADF8100018208DF81300032055
:1020C0008DF8120004A91C48FFF7CAFD4FF4006008
:1020D000ADF8100004208DF8130004A91648FFF78E
:1020E000BFFD04A91448FFF7BBFD4FF496500090C4
:1020F0000020ADF80400ADF80600ADF80800ADF81A
:102100000C000C20ADF80A0069460C4801F088F973
:10211000012240F22551094801F05DF901210748EB
:1021200001F023F94021054801F016F905B000BD82
:102130000008014000380140000C01400048004008
:1021400008B50121042000F0D9F81020ADF80000F6
:102150008DF8030003208DF8020069460148FFF75F
:102160007FFD08BD000801400448806800F00100C0
:1021700008B9012070470020FCE700000010014072
:102180000448806800F4004008B90120704700202E
:10219000FCE70000001001400448806800F4804023
:1021A00008B9012070470020FCE700000010014042
:1021B0000448806800F4005008B9012070470020EE
:1021C000FCE700000010014010B5044607480088F5
:1021D0002043064908800846018805A001F0D0FA8E
:1021E00002480088FEF772FB10BD00005E0100206F
:1021F000675F4C656453686F774461743A2025309B
:1022000032582E2E2E0D0A0010B5044607480088BD
:10221000A043064908800846018805A001F0B0FAED
:1022200002480088FEF752FB10BD00005E0100204E
:10223000675F4C656453686F774461743A2025305A
:1022400032582E2E2E0D0A0000BFFEE77047000008
:1022500070B5002100230F22C47804B3154C246804
:1022600004F4E064C4F5E064210AC1F10403CA4047
:10227000447804FA03F184781440214309010E4C98
:102280000678A155047804F01F050124AC400578B8
:102290006D11AD0005F1E025C5F8004109E00478B5
:1022A00004F01F050124AC40044D0678761145F872
:1022B000264070BD0CED00E000E400E080E100E0AD
:1022C0007047000001460020034A506820F4404057
:1022D00008435060704700000010024029B1064AD0
:1022E000D2690243044BDA6104E0034AD2698243B3
:1022F000014BDA61704700000010024029B1064A24
:1023000092690243044B9A6104E0034A9269824352
:10231000014B9A61704700000010024029B1064A43
:10232000D2680243044BDA6004E0034AD268824375
:10233000014BDA6070470000001002407047000057
:1023400030B500210022002400232D4D6D6805F0DA
:102350000C0121B1042905D0082923D105E0294D1C
:10236000056022E0274D05601FE0254D6D6805F4EE
:102370007012234D6D6805F48034022505EB9242FE
:102380001CB9214D554305600BE01D4D6D6805F4EA
:1023900000351DB11C4D5543056002E0194D5543F4
:1023A000056002E0174D056000BF00BF144D6D6869
:1023B00005F0F0010909154D6B5C0568DD404560CD
:1023C0000F4D6D6805F4E061090A104D6B5C4568BE
:1023D000DD4085600A4D6D6805F46051C90A0B4DFA
:1023E0006B5C4568DD40C560054D6D6805F4404196
:1023F000890B074D6B5CC568B5FBF3F5056130BD16
:102400000010024000127A0000093D008D010020FA
:102410009D0100200348407820F0020001494870E7
:10242000704700001A0000200348407840F0020086
:1024300001494870704700001A00002003484078A6
:1024400040F0080001494870704700001A00002061
:102450000348407840F08000014948707047000010
:102460001A0000200348807840F00200014988707B
:10247000704700001A0000200348007820F0010097
:1024800001490870704700001A00002003480078D6
:1024900040F0010001490870704700001A00002058
:1024A0000348007820F002000149087070470000DE
:1024B0001A0000200348007840F00200014908702B
:1024C000704700001A0000200348007820F0080040
:1024D00001490870704700001A0000200348007886
:1024E00040F0080001490870704700001A00002001
:1024F0000348007820F04000014908707047000050
:102500001A0000200348007840F04000014908709C
:10251000704700001A0000200348007820F0800077
:1025200001490870704700001A0000200348007835
:1025300040F0800001490870704700001A00002038
:1025400008B501210820FFF7D9FE03208DF802000D
:1025500010208DF803000220ADF800006946044801
:10256000FFF77EFB022002491431086008BD00001D
:10257000000C014038B500254CE06946022001F00E
:10258000F9FC002844D02548007800F0800000289D
:102590003ED19DF800002249204A127888541F48F5
:1025A0000078401C1D490870084600780A2801DDA3
:1025B0000020087019480078401E1949085CF2286C
:1025C0000DD116480078032809DAF2211348007863
:1025D000401E134A115401201049087018E0104899
:1025E00040780E490978884212DC06210C48FEF733
:1025F00027FF04460A488079A04206D107480078A0
:1026000040F080000549087002E00020034908708E
:10261000681C85B2B5F5806FAFDB38BD4101002085
:10262000E80100207047000002200149086070475F
:10263000100C014070B504460D46022005490860A3
:102640002A46214601F0A5FC02200249091F086024
:1026500070BD0000140C01403EB504460DA207CA2F
:102660008DE8070020788DF8020060788DF803006F
:10267000A0788DF80400E0788DF805000621684602
:10268000FEF7DEFE8DF806009DF801106846FFF7A4
:10269000D1FF3EBDF109010000000003020000006F
:1026A0000220014908607047140C01402DE9F047F1
:1026B0000024002500260027A046A1460A2000F09D
:1026C000B9F9012809D00B2000F0B4F9012804D091
:1026D0000C2000F0AFF9012801D1AA2600E0002665
:1026E0000D2000F0A7F9012809D00E2000F0A2F972
:1026F000012804D00F2000F09DF9012801D1AA275C
:1027000000E00027022000F053F80446032000F008
:102710004FF80546022000F0E9F8012809D0012011
:1027200000F0E4F8012804D0002000F0DFF80128D0
:1027300002D14FF0AA0801E04FF00008032000F09A
:10274000D5F8012809D0042000F0D0F8012804D0E1
:10275000052000F0CBF8012802D14FF0AA0901E0D2
:102760004FF0000934B92EB9B8F1000F02D1FFF7CC
:10277000BFFE01E0FFF7C6FE35B92FB9B9F1000F72
:1027800002D1FFF7C9FE01E0FFF7D0FE1CB915B971
:10279000FFF7A4FE01E0FFF797FE042000F04AF9DE
:1027A00010B1FFF737FE01E0FFF73EFEBDE8F0870E
:1027B00010B50446042C7DDA204600F04DF91420B3
:1027C000FEF77EF810214648FFF7D5FA40B90A20F7
:1027D000444908550020444908550846005D10BD8D
:1027E0004048005D00286FDD0320FEF763F81021EC
:1027F0003B48FFF7C0FA40B90A203A490855002083
:10280000394908550846005DE9E70320FEF752F80C
:1028100010213348FFF7AFFA40B90A203149085573
:102820000020314908550846005DD8E70320FEF72F
:1028300041F810212A48FFF79EFA40B90A20294999
:1028400008550020284908550846005DC7E70520BF
:10285000FEF730F810212248FFF78DFA40B90A2020
:10286000204908550020204908550846005DB6E774
:102870000520FEF71FF810211948FFF77CFA40B930
:102880000A20184908550020174908550846005DD8
:10289000A5E70520FEF70EF810211148FFF76BFAA7
:1028A00048B90A200F49085500200F490855084625
:1028B000005D94E711E00B48005D401E0949085592
:1028C0000948005D8BE7FFE70A200649085501200B
:1028D000054908550846005D81E7EF207FE70000C5
:1028E00000100140600100206401002010B5044682
:1028F000062C72DA204600F04DFA3220FDF7B4FFC4
:102900004FF400414848FFF736FA40B90A204749DA
:1029100008550020464908550846005D10BD43484B
:10292000005D002875DD0320FDF798FF4FF400419E
:102930003D48FFF720FA40B90A203C4908550020DD
:102940003B4908550846005DE8E70320FDF786FF90
:102950004FF400413448FFF70EFA40B90A203349DA
:1029600008550020324908550846005DD6E7032087
:10297000FDF774FF4FF400412B48FFF7FCF940B915
:102980000A202A4908550020294908550846005DB3
:10299000C4E70520FDF762FF4FF400412248FFF72E
:1029A000EAF940B90A202149085500202049085574
:1029B0000846005DB2E70520FDF750FF4FF40041E7
:1029C0001948FFF7D8F948B90A20184908550020D6
:1029D000174908550846005DA0E723E00520FDF7EC
:1029E0003DFF4FF400411048FFF7C5F940B90A20F8
:1029F0000E49085500200E4908550846005D8DE730
:102A00000A48005D401E094908550948005D85E7F0
:102A1000FFE70A20054908550120054908550846E1
:102A2000005D7BE7EF2079E7000C014068010020A2
:102A30006E01002010B50446204600F00DF832204B
:102A4000FDF73EFF10210248FFF795F910BD000089
:102A5000001001407047000010B50446102C7BD2D6
:102A6000DFE804F0081B2E4154677B8EA1B4C7DA5F
:102A7000F1EFEEED4FF400719A48FFF785F94FF44E
:102A800080719848FFF780F980219648FFF77CF91C
:102A900040219448FFF778F922E14FF40071914802
:102AA000FFF774F94FF480718E48FFF76DF98021BC
:102AB0008C48FFF769F940218A48FFF765F90FE173
:102AC0004FF400718748FFF75FF94FF48071854834
:102AD000FFF75CF980218348FFF756F940218148D0
:102AE000FFF752F9FCE04FF400717E48FFF74EF912
:102AF0004FF480717B48FFF749F980217948FFF74F
:102B000043F940217748FFF73FF9E9E04FF40071BE
:102B10007448FFF739F94FF480717248FFF734F9C0
:102B200080217048FFF732F940216E48FFF72CF9F9
:102B3000D6E04FF400716B48FFF728F94FF480712D
:102B40006848FFF721F980216648FFF71FF9402107
:102B50006448FFF719F9C3E0C1E04FF40071614820
:102B6000FFF712F94FF480715E48FFF70FF98021EB
:102B70005C48FFF70BF940215A48FFF705F9AFE031
:102B80004FF400715748FFF701F94FF48071554831
:102B9000FFF7FCF880215348FFF7F8F8402151482F
:102BA000FFF7F2F89CE04FF400714E48FFF7ECF8A5
:102BB0004FF480714B48FFF7E7F880214948FFF751
:102BC000E3F840214748FFF7E1F889E04FF400714E
:102BD0004448FFF7DBF84FF480714248FFF7D4F820
:102BE00080214048FFF7D0F840213E48FFF7CEF85B
:102BF00076E04FF400713B48FFF7C6F84FF4807160
:102C00003848FFF7C3F880213648FFF7BDF8402168
:102C10003448FFF7BBF863E04FF400713148FFF729
:102C2000B5F84FF480712F48FFF7B0F880212D4898
:102C3000FFF7AAF840212B48FFF7A8F850E03BE047
:102C400027E013E0FFE74FF400712648FFF79CF8F8
:102C50004FF480712348FFF797F880212148FFF750
:102C600095F840211F48FFF791F839E04FF40071C3
:102C70001C48FFF78BF84FF480711A48FFF784F86F
:102C800080211848FFF782F840211648FFF77EF8A8
:102C900026E04FF400711348FFF776F84FF4807187
:102CA0001048FFF773F880210E48FFF76FF84021B6
:102CB0000C48FFF76BF813E04FF400710948FFF779
:102CC00065F84FF480710748FFF760F880210548E8
:102CD000FFF75CF840210348FFF758F800E000BF19
:102CE00000BF10BD0010014010B5044624B1012CF6
:102CF0000BD0022C1BD111E040210E48FFF744F805
:102D000080210C48FFF740F812E040210948FFF706
:102D10003DF880210748FFF737F809E040210548D2
:102D2000FFF732F880210348FFF730F800E000BFDA
:102D300000BF10BD000C014010B5044624B1012CA9
:102D40000CD0022C1ED113E04FF400410F48FFF7C6
:102D50001BF804210E48FFF719F814E04FF4004166
:102D60000A48FFF713F804210948FFF70DF80AE0B5
:102D70004FF400410548FFF707F804210448FFF726
:102D800003F800E000BF00BF10BD000000080140D4
:102D90000014014010B50446082C74D2DFE804F09A
:102DA00004132333435363744FF480514048FEF7B8
:102DB000EBFF80213E48FEF7E7FF4FF480413C489F
:102DC000FEF7E2FF71E04FF480513948FEF7DEFF75
:102DD0004FF400513648FEF7D7FF4FF48041344896
:102DE000FEF7D2FF61E04FF480513148FEF7CCFF8F
:102DF0004FF400512E48FEF7C9FF4FF480412C4894
:102E0000FEF7C2FF51E04FF480512948FEF7BEFFA4
:102E10004FF400512648FEF7B9FF4FF48041244893
:102E2000FEF7B2FF41E04FF480512148FEF7ACFFBE
:102E30004FF400511E48FEF7A7FF4FF480411C4895
:102E4000FEF7A4FF31E04FF480511948FEF79EFFD2
:102E50004FF400511648FEF797FF4FF48041144895
:102E6000FEF794FF21E04FF480511148FEF78CFFEC
:102E70004FF400510E48FEF789FF4FF480410C4893
:102E8000FEF784FF11E00FE04FF480510848FEF791
:102E90007DFF4FF400510648FEF778FF4FF4804164
:102EA0000348FEF773FF00E000BF00BF10BD000045
:102EB000000C014010B500F001F810BD0CB5002069
:102EC000019000903348006840F480303149086038
:102ED00000BF3048006800F4003000900198401CAA
:102EE0000190009818B90198B0F5A06FF1D1294868
:102EF000006800F4003010B10120009001E00020D3
:102F000000900098012843D12348006840F0100049
:102F1000214908600846006820F003000860084660
:102F2000006840F0020008601A484068194948608B
:102F30000846406848600846406840F48060486041
:102F40000846406820F47C1048600846406840F419
:102F5000E81048600846006840F08070086000BFD4
:102F60000C48006800F000700028F9D0094840685B
:102F700020F00300074948600846406840F002001E
:102F8000486000BF0348406800F00C000828F9D1F1
:102F90000CBD00000010024000200240042808D1AF
:102FA0004FF0E021096941F004014FF0E022116186
:102FB00007E04FF0E021096921F004014FF0E02221
:102FC0001161704710B500F001F810BD10B5002474
:102FD00006E0114901EBC40000F0A8FF601CC4B278
:102FE000042CF6DB0D480068401C0C4908600846BC
:102FF00000686FF00041884202D100200749086054
:1030000007480078401CC0B2054908700A2801DB57
:103010000020087010BD0000B80100202001002031
:103020002401002010B51348006840F00100114948
:10303000086008464068104908400E494860084644
:1030400000680E4908400B4908600846006820F4F3
:10305000802008600846406820F4FE0048604FF475
:103060001F008860FFF726FF4FF0006004490860EA
:1030700010BD0000001002400000FFF8FFFFF6FE48
:1030800008ED00E010B53748007800F08000002817
:1030900062D10121880700F0D7F8A8B13148007843
:1030A00000F0400080B12F48007800F03F003F283A
:1030B00005D100202B4908702B49088004E02948DD
:1030C0000078401C274908700221480700F0BCF82E
:1030D000002841D02348007800F0400040282CD13F
:1030E0002048007840F080001E4908704FF0804072
:1030F00000F0A7F81C4908800221480700F0BEF83C
:1031000019480088262814DD174800883E2810DA60
:1031100014480078C0280CD114480078AA2805D19A
:1031200013480078401C1249087002E00020104942
:10313000087000200B4908700EE000200A49088042
:103140004020084908700021000600F0A0F8002186
:103150004FF0804000F092F803214FF0804000F0E3
:1031600061F810BD120000201400002009000020AA
:103170000A00002010B50121104800F065F8D8B110
:103180000F480078C82802DD00200D4908700C485F
:103190000078401C0A490870FFF718FF08480078BB
:1031A0000A2190FBF1F201FB120008B900F0A2FE27
:1031B0000121024800F036F810BD00000004004074
:1031C000100000207FB505460C4601210220FFF7C4
:1031D00085F8ADF80850ADF804400020ADF80A00BD
:1031E000ADF8060001A90E4800F054F8012211467E
:1031F0000B4800F03AF81D208DF8000000208DF8F3
:10320000010003208DF8020001208DF803006846BC
:10321000FFF71EF80121024800F007F87FBD00000B
:1032200000040040CA430282704721B1028842F084
:103230000102028004E002884FF6FE731A40028009
:1032400070470146888E704730B502460020002343
:103250000024158A05EA0103958905EA010413B1E2
:103260000CB1012000E0002030BD1AB183890B436E
:10327000838102E083898B43838170470A46002162
:10328000018C4FF6FD73194011430184704781840E
:1032900070470000002202881D4B98420ED01D4B43
:1032A00098420BD0B0F1804F08D01B4B984205D00C
:1032B0001A4B984202D01A4B984204D14FF68F73A2
:1032C0001A404B881A43174B984207D0164B984226
:1032D00004D04FF6FF431A40CB881A4302808B88F4
:1032E00083850B8803850A4B98420BD0094B984283
:1032F00008D00E4B984205D00D4B984202D00D4B92
:10330000984201D10B7A0386012383827047000023
:10331000002C01400034014000040040000800403F
:10332000000C00400010004000140040004001402C
:10333000004401400048014010B5024800F02DF95A
:1033400010BD00001402002010B5024800F025F95D
:1033500010BD00003C0A002001F40072B2F5007FAD
:1033600000D100BFCA430280704721B1828942F474
:103370000052828104E082894DF6FF731A408281F7
:10338000704770B50246002400230025002040F657
:103390006A16B14200D100BFC1F3421501F01F030C
:1033A000012606FA03F3012D02D19689334006E087
:1033B000022D02D1168A334001E0968A33400C1266
:1033C000012606FA04F41688344013B10CB101202A
:1033D00000E0002070BDF0B5034600240026002563
:1033E000002040F66A17B94200D100BF1846C1F369
:1033F000421401F01F06012707FA06F5012C01D13E
:103400000C3004E0022C01D1103000E014301AB16D
:1034100007682F43076002E00768AF430760F0BD0D
:103420002DE9F04786B005460E460024A24600BFAF
:10343000A1460027B08900B100BF2F462C8A4CF668
:10344000FF700440F08804432C82AC894EF6F310E0
:103450000440B08831890843718908430443AC8132
:10346000AC8A4FF6FF400440B0890443AC8201A807
:10347000FEF766FF1F48874202D1DDF810A001E089
:10348000DDF80CA0A88900F4004040B10AEBCA00A6
:1034900000EB0A1031684900B0FBF1F807E00AEBD5
:1034A000CA0000EB0A1031688900B0FBF1F8642013
:1034B000B8FBF0F004012009642101FB1089A88900
:1034C00000F4004040B1322000EBC900B0FBF1F045
:1034D00000F00700044308E0322000EB09106421EB
:1034E000B0FBF1F000F00F0004432C8106B0BDE802
:1034F000F08700000038014001468888C0F30800CA
:103500007047C1F3080282807047000010B586B092
:10351000002401AA00210B48FDF7FEFE0A480078AE
:10352000AA280CD000BF05E00DF10F00005D07498F
:103530000855641C082CF7DBAA200349087006B064
:1035400010BD0000006400400800002000000020C2
:1035500070B504460D46012000F034F9668B00205A
:1035600000F030F90EB9002070BD218BA068405CDE
:103570002870012000F026F9208B401C80B22083A7
:10358000E189884201DB00202083608B401E60833C
:10359000002000F017F90120E6E770B5044640F27C
:1035A00025512068FFF7EDFEE0B12068FFF7A4FF8A
:1035B000C5B2E18AA0684554E08A401C80B2E0822E
:1035C000E189884201DB0020E082608BE18988424A
:1035D00002DA608B401C6083606A10B12846616A21
:1035E000884700BF40F227712068FFF7CAFE08B382
:1035F000A08A60B9002240F227712068FFF7EBFE35
:10360000012240F226612068FFF7E5FE37E0638A79
:103610006268D15C2068FFF774FF608A401C80B24A
:103620006082A189884201DB00206082A08A401E5E
:10363000A08224E040F226612068FFF7A2FEF0B1EC
:10364000A08A50B9002240F226612068FFF7C3FE2D
:10365000206AA0B1206A804711E0638A6268D15C69
:103660002068FFF74EFF608A401C80B26082A1890B
:10367000884201DB00206082A08A401EA08270BDCB
:103680002DE9F04104460E461746002527E00CE0E0
:10369000012000F097F8B4F81480002000F092F8B0
:1036A000A089404500DD01E000BFF1E700BF705D8B
:1036B000228A61688854012000F084F8208A401C26
:1036C00080B22082A189884201DB00202082A08A6A
:1036D000401CA082002000F075F8681C85B2BD4235
:1036E000D5DB012240F227712068FFF774FEBDE8A8
:1036F000F0810000164817490860174848601748CD
:1037000088604FF480608881C881002008824882E8
:10371000C882088348838882C8610862486210486A
:103720001049086010484860104888604FF4806075
:103730008881C881002008824882C8820883488323
:1037400088820B48C8610B4808620B484862704782
:1037500000380140140200203C0200203C060020FA
:10376000004800403C0A0020640A0020640E00204B
:1037700029260008A12600082526000800BFFEE72C
:103780000FB4054B10B503A9044A029800F01EF8C7
:1037900010BC5DF814FB00009D40000844010020AF
:1037A00002E008C8121F08C1002AFAD1704770470A
:1037B000002001E001C1121F002AFBD1704780F3F5
:1037C0001088704780F31088704700002DE9FF4F84
:1037D0008DB00F460546002606E025280BD0DDE912
:1037E0000F1290476D1C761C28780028F5D111B077
:1037F0003046BDE8F08F0024A246A1460122EC49E4
:1038000000E0044315F8013F203B02FA03F00842B0
:10381000F7D128782A2810D06FF02F022878A0F14D
:103820003001092914D80AEB8A0102EB410144F066
:10383000020400EB010A6D1CF0E701CF5FEA000A09
:1038400003D544F40054CAF1000A44F002046D1C8C
:1038500028782E2817D115F8010F44F004042A28DF
:103860000ED06FF02F022878A0F1300109290AD874
:1038700009EB890102EB410100EB01096D1CF2E744
:1038800057F8049B6D1C28786C280FD006DC4C2858
:1038900017D068280DD06A2814D104E0742810D0FD
:1038A0007A280FD10DE044F400140AE044F48014A7
:1038B00001E044F440146978814202D104F5801497
:1038C0006D1C6D1C2A786E2A1FD00CDC632A31D047
:1038D00004DC002A8BD0582A11D1A3E0642A68D0D6
:1038E000692A0CD165E0732A2ED004DC6F2A73D0CC
:1038F000702A04D19BE0752A6FD0782A6ED01046CA
:10390000DDE90F129047761C50E1C4F30250022803
:1039100006D0032809D0042801CF09D0066045E16C
:1039200001CFF117C0E9006140E101CF06803DE120
:1039300006703BE117F8040B8DF8000000208DF8AD
:103940000100EB46012003E057F804BB4FF0FF30C5
:1039500061074FF0000102D40DE008F10101884633
:1039600049450FDA8045F8DB1BF808100029F4D12F
:1039700008E008F1010188468142FADB1BF80810D3
:103980000029F6D1DDE90F23AAEB08008146214684
:1039900000F036F9304400EB080604E0DDE90F12D0
:1039A0001BF8010B9047B8F10108F7D221464846B1
:1039B000F7E00A21C4F302534FF0000B0891022BE9
:1039C00004D001CFC117032B09D00AE0FF1D27F057
:1039D0000707F7E8020108E032E01FE020E000B24C
:1039E000C117042B01D140B2C117031E71F10003AE
:1039F00007DA4FF0000CD0EB0C006CEB01012D232B
:103A000002E0230504D52B238DF82430012303E0A5
:103A1000E30701D02023F7E7984658E00A2110E099
:103A200010210EE010204FF0000B08900CE0102148
:103A30004FF0000B44F004044FF00809089103E034
:103A400008214FF0000B0891C4F30253022B04D05D
:103A500001CF0021032B06D006E0FF1D27F007074A
:103A6000F7E8020103E080B2042B00D1C0B24FF0AE
:103A7000000823072BD5702A07D0DDF820C08CF072
:103A8000100C5CEA0B0C05D00EE040238DF82430BE
:103A9000012308E050EA010306D030238DF82430DA
:103AA0008DF8252002239846DDF820C08CF0080C04
:103AB0005CEA0B0C0BD150EA010301D1630706D578
:103AC00030238DF824304FF00108A9F10109582A5C
:103AD00004D038A20B9208AA0A920BE03AA2F9E7A6
:103AE0005B46089AFCF71EFC0B9B9B5C0A9A521ED5
:103AF0000A92137050EA0102F2D10A98ADEB00006D
:103B000000F1200B600702D524F4803401E04FF06F
:103B10000109D94502DDA9EB0B0000E0002000EB14
:103B20000B0141440890AAEB010AE00306D4DDE949
:103B30000F232146504600F063F806444FF0000979
:103B400008E009A911F80900DDE90F12904709F111
:103B50000109761CC145F4DBE0030CD5DDE90F2338
:103B60002146504600F04CF8064404E0DDE90F120F
:103B700030209047761C0899481E08900029F5DCF3
:103B800008E00A980A990078491C0A91DDE90F12A9
:103B90009047761CBBF10001ABF1010BF1DC214633
:103BA0005046DDE90F2300F019F806446D1C1BE6B2
:103BB0000928010030313233343536373839616203
:103BC00063646566000000003031323334353637C7
:103BD0003839414243444546000000002DE9F04198
:103BE000044600251E461746880404D405E03946DD
:103BF0002020B0476D1C641EF9D52846BDE8F08131
:103C00002DE9F041044600251E469046C80301D523
:103C1000302700E02027880404D505E041463846D7
:103C2000B0476D1C641EF9D52846BDE8F081000040
:103C30000146042901DB00207047074800EBC10062
:103C40000079012806D10020034A02EBC10210715D
:103C50000120F1E70020EFE7B801002070B505462C
:103C6000304800EB05142068804700283ED02079BA
:103C7000052802DA0520207152E020790A2803DAAB
:103C80002079401C20714BE0A07A38B90120A07245
:103C900005EB4501491CC8B200F038F9208900281D
:103CA0003EDDE088218988420DDAE088401C80B240
:103CB000E0802189884233D105EB4501C91CC8B297
:103CC00000F024F92CE0E07A002829DD207B401C5C
:103CD000C0B22073E17A884222DB0020207305EB1A
:103CE0004501491CC8B200F011F919E020790528F6
:103CF00002DD0520207110E0207918B12079401EE6
:103D000020710AE0A07A012807D10020A07205EBFB
:103D10004501891CC8B200F0F9F80020E08020734A
:103D200070BD0000AC1300200B4800790A4A52799C
:103D3000904201D10020704707480079064A115C83
:103D400010460079401CC0B21071042801DB00202D
:103D500010710846EFE700005601002008B5012168
:103D60001420FEF7CBFA4FF4E050ADF8000010201D
:103D70008DF8030003208DF8020069460E48FDF718
:103D80006FFF04210D48FEF701F808210B48FDF7ED
:103D9000FDFF0C20ADF8000010208DF803006946EF
:103DA0000648FDF75DFF04210448FDF7EFFF0821F9
:103DB0000248FDF7EBFF08BD00100140000801407C
:103DC0000020074981F8A00081F8A10081F8A20035
:103DD000044981F8A00081F8A10081F8A200704791
:103DE000071300206412002010B500F031F800F035
:103DF00001F810BD08B501211020FEF77FFA03205D
:103E00008DF8020004208DF803000120ADF80000B9
:103E100069460E48FDF724FF4FF40040ADF800005E
:103E200069460A48FDF71CFF4FF48040ADF80000DA
:103E300069460648FDF714FF4FF40050ADF8000046
:103E400069460248FDF70CFF08BD00000010014064
:103E50000021154A117151719171002018E0322131
:103E6000124A02EB001211810221104A02EB0012E9
:103E7000117100210D4A02EB001291720B4A02EB04
:103E80000012D172094A02EB00121173411CC8B230
:103E90000428E4DB0649054A116006491161064918
:103EA000116206491163704756010020AC130020CF
:103EB000692100088121000899210008B12100082A
:103EC000002008E00021054A42F8301002EBC00251
:103ED0001171411CC8B20428F4DB7047B8010020FE
:103EE00010B5FFF707FCFEF797F8FEF729FBFDF783
:103EF0009FFD10BD10B5002404E02046FFF7AEFE84
:103F0000601CC4B2042CF8DB10BD000006494979DE
:103F1000054A505411464979491CC9B251710429C6
:103F200001DB00215171704756010020017939B938
:103F3000016829B10168491E016009B901210171B7
:103F40007047000070B504460D46042C00DB70BDC0
:103F50000120FFF734FC064840F8345000200449A3
:103F600001EBC4010871FFF72AFC00BFEFE7000076
:103F7000B801002070B505460E462846FDF73EFD07
:103F800004460CB9002070BD31462046FFF7E0FA28
:103F9000F9E72DE9F04105460E4617462846FDF79C
:103FA0002DFD04460CB9BDE8F081E06908B1E06977
:103FB00080473A4631462046FFF762FB00BFF2E7F2
:103FC00010B56FF00400FEF7E9FF0A4800680A49DF
:103FD000B0FBF1F0094908700846007800EB400199
:103FE000C1EBC0104FF6FF7101EAC0000449088020
:103FF00010BD0000A401002000127A00160000206D
:10400000180000200146114A12884A434FF0E0236D
:104010005A6100229A611A46126942F001021A613D
:1040200000BF4FF0E022106900F001021AB100F465
:104030008032002AF5D04FF0E022126922F001020E
:104040004FF0E0231A6100229A61704718000020A7
:104050000146114A12784A434FF0E0235A61002288
:104060009A611A46126942F001021A6100BF4FF0CC
:10407000E022106900F001021AB100F48032002A37
:10408000F5D04FF0E022126922F001024FF0E02358
:104090001A6100229A6170471600002000BF054A8D
:1040A000128802F04002002AF9D0C2B2014B1B1D57
:1040B0001A8070470038014086B0002004900590B7
:1040C0000390002500240026FEF7ACFFFDF73AFF21
:1040D00000210120FCF7A2FC00204B230222032137
:1040E0000090FDF74DF8A2A0FFF74AFBA948FFF7A3
:1040F00047FBC8210120FFF725FF40F6FF70FEF7C0
:1041000063F80421A448FDF73FFE0821A248FDF70B
:104110003BFEFEF7BBF9FEF7CDF9FEF78FF9FEF790
:10412000A1F9FEF795F922E1FDF76EF90120FFF7FD
:104130007FFD0028F7D0C8210120FFF703FF142DD1
:1041400002DA681CC5B205E0002504A8FDF700FDF1
:10415000FDF71EFEFEF7AAFAFDF76CFDFFF7E4FD82
:104160000446002C34D00C2C30D2DFE804F00607D3
:104170000B2F0F132F171D2F232928E087A0FFF7E0
:10418000FFFA24E089A0FFF7FBFA20E08BA0FFF7FD
:10419000F7FA1CE08DA0FFF7F3FA18E0FEF776F9C6
:1041A0008EA0FFF7EDFA12E0FEF766F98FA0FFF799
:1041B000E7FA0CE0FEF77EF990A0FFF7E1FA06E0DF
:1041C000FEF76EF991A0FFF7DBFA00E000BF00BF39
:1041D000FEF7D0F99148007800F08000802842D1A5
:1041E00000208E4908708E4800798DF80C008C48AC
:1041F00040798DF80D009DF80C0010B99DF80D0068
:1042000030B19DF80D209DF80C1086A0FFF7B8FA8C
:104210009DF80D0000F0010028BB9DF80D0000F096
:104220000800082806D1012600208DF80C008DF822
:104230000D0018E09DF80D0000F01000102806D1C8
:10424000002600208DF80C008DF80D000BE09DF885
:104250000D0000F02000202805D1022600208DF856
:104260000C008DF80D00002E14D19DF80D0000F00B
:10427000020002280FD100208DF8080071A0FFF77E
:104280007FFA0120FDF7A0FF0220FDF79DFF04202B
:10429000FDF79AFF6BE09DF80C0000F0010078B18B
:1042A00001208DF808006CA0FFF76AFA0120FDF7E5
:1042B000ABFF0220FDF7A8FF0420FDF785FF56E0C5
:1042C0009DF80D0000F0040004280FD102208DF8A5
:1042D000080066A0FFF754FA0120FDF795FF0220C1
:1042E000FDF772FF0420FDF78FFF40E09DF80D0001
:1042F00000F0400040280FD100208DF8040060A09D
:10430000FFF73EFA0820FDF75FFF1020FDF75CFF86
:104310002020FDF759FF2AE09DF80C0000F0020074
:1043200002280FD101208DF804005AA0FFF728FAC7
:104330000820FDF769FF1020FDF766FF2020FDF73C
:1043400043FF14E09DF80D0000F0800080280ED19E
:1043500002208DF8040054A0FFF712FA0820FDF7A0
:1043600053FF1020FDF730FF2020FDF74DFFDBE667
:1043700043414E5F4D6F64655F496E69742C4341E4
:104380004E5F426175643A2036304B6270732E2E58
:104390002E0D0A00BC4400080008014020204B45B7
:1043A000595F315F444F574E210D0A0020204B4585
:1043B000595F315F5550210D0A00000020204B4508
:1043C000595F325F444F574E210D0A0020204B4564
:1043D000595F325F5550210D0A00000020204B45E7
:1043E000595F335F444F574E210D0A0020204B4543
:1043F000595F335F5550210D0A00000020204B45C6
:10440000595F345F444F574E210D0A0020204B4521
:10441000595F345F5550210D0A0000004101002012
:10442000E801002052533438355F52656365697680
:104430006544617428292C253032582C2530325897
:104440002E0D0A00CAD6B6AFC4A3CABD2C41B1C353
:10445000CDA3D6B92E0D0A00CAD6B6AFC4A3CABD25
:104460002C41B1C3B5CDCBD92E0D0A00CAD6B6AFFB
:10447000C4A3CABD2C41B1C3B8DFCBD92E0D0A00ED
:10448000CAD6B6AFC4A3CABD2C42B1C3CDA3D6B958
:104490002E0D0A00CAD6B6AFC4A3CABD2C42B1C302
:1044A000B5CDCBD92E0D0A00CAD6B6AFC4A3CABDAE
:1044B0002C42B1C3B8DFCBD92E0D0A002D2D2D2DE6
:1044C0002D2D2D2D2D2D2D2D2D2D2D2D2D2D2D2D1C
:1044D0002D2D2D2D2D2D2D2D2D2D2D2D2D2D2D2D0C
:1044E0002D2D2D2D2D2D2D2D2D2D2D2D2D2D2D2DFC
:1044F0002D2D2D2D2D2D2D2D2D2D2D2D2D2D2D0D0C
:104500000A0000002445000800000020B801000057
:104510001205000868460008B80100203832000083
:10452000B0370008011E00FF005EBCE2613FDD8382
:10453000C29C7E20A3FD1F419DC3217FFCA2401E83
:104540005F01E3BD3E6082DC237D9FC1421CFEA073
:10455000E1BF5D0380DE3C62BEE0025CDF81633D63
:104560007C22C09E1D43A1FF4618FAA427799BC553
:1045700084DA3866E5BB5907DB856739BAE4065843
:104580001947A5FB7826C49A653BD987045AB8E633
:10459000A7F91B45C6987A24F8A6441A99C7257B23
:1045A0003A6486D85B05E7B98CD2306EEDB3510F13
:1045B0004E10F2AC2F7193CD114FADF3702ECC9203
:1045C000D38D6F31B2EC0E50AFF1134DCE90722CF3
:1045D0006D33D18F0C52B0EE326C8ED0530DEFB1E3
:1045E000F0AE4C1291CF2D73CA947628ABF51749D3
:1045F0000856B4EA6937D58B5709EBB536688AD4C3
:1046000095CB2977F4AA4816E9B7550B88D6346AB2
:104610002B7597C94A14F6A8742AC896154BA9F7A2
:10462000B6E80A54D7896B021335C0113F065B4FB9
:10463000666D7D077F6F777C395E79712AFF01B5E2
:10464000F129321D1A0A016908490A2102170139A4
:10465000182D010203040440090607080902040694
:08466000087CA24A0424591B46
:0400000508000131BD
:00000001FF
