:020000040800F2
:100000001034002045010008CD210008891D00089A
:10001000C9210008A10C0008113A000800000000E6
:10002000000000000000000000000000712C00082B
:10003000491900080000000041220008E1310008D1
:100040005F0100085F0100085F0100085F01000810
:100050005F0100085F0100085F0100085F01000800
:100060005F0100085F0100085F0100085F010008F0
:100070005F0100085F0100085F0100085F010008E0
:100080005F0100085F0100085F0100085F010008D0
:10009000A13700085F0100085F0100085F01000848
:1000A0005F0100085F0100085F0100085F010008B0
:1000B000A1320008913300085F0100085F010008C9
:1000C0005F0100085F0100085F0100085F01000890
:1000D0005F010008CD3500085F010008DD3500082C
:1000E0005F0100085F0100085F0100085F01000870
:1000F0005F0100085F0100085F0100085F01000860
:100100005F0100085F0100085F0100085F0100084F
:100110005F0100085F0100085F0100085F0100083F
:100120005F0100085F0100085F0100085F0100082F
:10013000DFF80CD000F0BCF9004800474D43000840
:10014000103400200648804706480047FEE7FEE7D7
:10015000FEE7FEE7FEE7FEE7FEE7FEE7FEE7FEE777
:10016000413200083101000880EA010210B502F0B6
:100170000043400022D04A001FD0010E01EB126163
:10018000C0F35600C2F3560240F4000042F40002ED
:10019000A0FB022000047F39140400D0401C50EA68
:1001A000124001D44000491EC2B20C0604EBD0102C
:1001B000401C4008802A02D003E0002010BD20F03F
:1001C0000100002900DA0020184310BD2DE9F04D90
:1001D00081EA030404F0004B21F0004514464FF07F
:1001E000000A23F0004150EA050220D054EA01023F
:1001F0001DD0C5F30A570246C5F31303C1F313001C
:10020000C1F30A5640F4801543F48013A7EB0608A7
:10021000101BD64608F2FD3873EB050002D308F137
:10022000010801E092185B41B8F1000F03DA0020E9
:100230000146BDE8F08D00204FF48011064684464B
:100240000EE0171B73EB050705D3121B63EB0503C9
:1002500006434CEA010C49084FEA300092185B4112
:1002600050EA0107EDD152EA030012D082EA0400FD
:1002700083EA0501084305D0101BAB4106D20122D9
:10028000002306E000224FF0004302E06FF001027D
:1002900053101AEB06004CEB085110EB0A0041EB2F
:1002A0000B01BDE8F04D00F0A5B80EB540F23341AA
:1002B00002910021CDE900110A460B4600F0A9F891
:1002C00003B000BD20F00040C10DC0F3160040F4A3
:1002D00000007F2901DA00207047962903DCC1F174
:1002E0009601C840704796398840704701F0004336
:1002F00030B421F0004150EA010206D00A0DA2F507
:100300006072C1F31301002A02DC30BC0020704788
:10031000440F44EAC104C100E01830BC00EBC250F5
:1003200000F031B82DE9F05F0546002092469B466B
:1003300088460646814640241BE0284641464746FB
:10034000224600F0D6F853465A46C01A914110D3BF
:1003500011461846224600F0BDF82D1A67EB010839
:100360004F4622460120002100F0B4F817EB0009A7
:100370004E41201EA4F10104DFDC484631462A46E6
:100380004346BDE8F09F0029A8BF7047401C4900C4
:1003900008BF20F00100704710B4B0FA80FC00FAEA
:1003A0000CF050EA010404BF10BC704749B1CCF115
:1003B000200421FA04F411FA0CF118BF01212143A1
:1003C0000843A3EB0C01CB1D4FEA00614FEA10205C
:1003D00042BF002010BC704700EBC35010440029FE
:1003E000A4BF10BC7047401C490008BF20F00100AA
:1003F00010BC704710B5141E73F1000408DA401CDD
:1004000041F1000192185B411A4301D120F0010033
:1004100010BD2DE9F04D92469B4611B1B1FA81F223
:1004200002E0B0FA80F22032904600F053F8044621
:100430000F4640EA0A0041EA0B0153465A46084378
:1004400013D0114653EA010019D0C8F140025046BA
:1004500000F04FF805460E4650465946424600F019
:1004600039F8084305D0012004E020463946BDE8AC
:10047000F08D0020054346EAE0762C4337430A9886
:100480006305E40AA0EB08000022FD0A44EA475491
:100490000A3002D500200146E9E70105101969413B
:1004A000DDE9084500196941BDE8F04DA2E700000B
:1004B000064C074D06E0E06840F0010394E80700B1
:1004C00098471034AC42F6D3FFF736FE10480008C8
:1004D00030480008202A04DB203A00FA02F100200C
:1004E00070479140C2F1200320FA03F31943904072
:1004F0007047202A04DB203A21FA02F000217047DD
:1005000021FA02F3D040C2F120029140084319467B
:10051000704770B58C1810F8015B15F0070301D116
:1005200010F8013B2A1106D110F8012B03E010F856
:10053000016B01F8016B5B1EF9D12B0705D4002379
:10054000521E0DD401F8013BFAE710F8013BCB1A1B
:10055000921C03E013F8015B01F8015B521EF9D510
:10056000A142D8D3002070BD21B1826842F00102BF
:10057000826003E0826822F001028260704700001E
:1005800010B504461248844208D10121401501F0FB
:1005900085FE0021601501F081FE17E00D488442C0
:1005A00008D10121001501F079FE0021201501F08C
:1005B00075FE0BE00848844208D10121C80301F010
:1005C0006DFE00214FF4004001F068FE10BD0000F8
:1005D0000024014000280140003C01400146002069
:1005E0008A6802F004020AB1012000E0002070478E
:1005F000014600208A6802F008020AB1012000E0EA
:100600000020704730B502460020002350680F4C90
:1006100020400D790C6844EA05242043506090681E
:100620000B4C2040D1E902542C434D7944EA450457
:1006300020439060D06A20F470000C7C641EE4B209
:10064000234340EA0350D06230BD0000FFFEF0FFBC
:10065000FDF7F1FF816841F0080181607047816812
:1006600041F004018160704700B587B001214FF46B
:10067000017001F003FE4FF4004001F0E3FD0220A1
:10068000ADF8040000208DF8070001A9174801F01B
:1006900073F91748FFF774FF002002908DF80C00E3
:1006A0008DF80D004FF4602004900020059001208B
:1006B0008DF8180002A90E48FFF7A4FF01210C488D
:1006C000FFF752FF0A48FFF7C5FF00BF0848FFF7D2
:1006D0008FFF0028FAD10648FFF7C1FF00BF04488A
:1006E000FFF77CFF0028FAD107B000BD00080140E9
:1006F000002401401FB50121082001F0BFFD4FF487
:100700000070ADF8040010208DF8070003208DF86C
:10071000060001A91C4801F02FF901F0F5F801F0DD
:100720004BF818B919A003F075F902E01CA003F00A
:1007300071F9002405E001F0A5F802A90855601C34
:10074000C4B2052CF7DB9DF808009DF80910084499
:100750009DF80A1008449DF80B100844C0B29DF89B
:100760000C10884203D014A003F054F90BE09DF85C
:100770000B0000909DF80A309DF809209DF80810A4
:1007800014A003F047F91FBD000C01404448543148
:10079000315F496E6974204F4B21202020000000FA
:1007A00044485431315F496E6974204572726F72EA
:1007B0002120202000000000526561642044617403
:1007C0006520436865636B204572726F72210D0A64
:1007D00000000000483A25642E25643B20543A2549
:1007E000642E25642E0D0A0008B501211C2001F09D
:1007F00045FD47F2C000ADF8000010208DF8030061
:1008000003208DF802006946114801F0B5F84FF455
:100810000040ADF8000010208DF8030069460D4837
:1008200001F0AAF80420ADF8000010208DF80300B4
:100830006946094801F0A0F84FF40040ADF8000007
:1008400048208DF803006946014801F095F808BD7D
:10085000000C0140000801400014014010B504469E
:10086000204603F019FD10BD10B50446204603F0E4
:1008700039FD10BD08B50121102001F0FFFC4FF437
:100880007070ADF8000010208DF8030003208DF883
:1008900002006946064801F06FF81020ADF800002C
:1008A00048208DF803006946014801F065F808BD4D
:1008B0000010014010B50446204603F0EDFC10BDC9
:1008C00010B50446204603F00DFD10BD70B504467A
:1008D00025464FF48061214801F0E2F84FF40061B1
:1008E0001E4801F0DDF8012001F040FA002625E065
:1008F00005F40040B0F5004F05D14FF48051174882
:1009000001F0D0F804E04FF48051144801F0C8F829
:10091000012001F02BFA4FF40061104801F0C2F8F9
:10092000012001F023FA4FF400610C4801F0B8F8FF
:100930004FF6FF7000EA4505701CC6B2102ED7DBDB
:100940004FF48061054801F0ADF8012001F00EFA86
:100950004FF48061014801F0A3F870BD0010014020
:1009600010B50821144801F09DF80421124801F047
:1009700099F80221104801F095F8402000F038F96C
:1009800008210D4801F08EF8C02000F031F9002454
:1009900004E0002000F02CF9601CC4B2102CF8DB3D
:1009A0000821054801F07EF8802000F021F9082197
:1009B000014801F077F810BD0010014008B5012191
:1009C000102001F05BFC0E20ADF8000010208DF827
:1009D000030003208DF802006946034800F0CCFFB5
:1009E000FFF7BEFF08BD00000010014001B581B057
:1009F0000BE06420009004E09DF80000401EC0B2AF
:100A000000909DF800000028F6DCBDF80400411EAF
:100A100089B201910028ECD10CBD00002DE9F04114
:100A200004460D466D480078A04203D16C4800682A
:100A3000A8427DD069480078A04201D0FFF790FF1E
:100A40006648047066480560402000F0D1F808212F
:100A5000644801F027F8A12C1BD1C02000F0C8F891
:100A60000F2000F0C5F8002000F0C2F8002607E0D3
:100A7000092000F0BDF8002000F0BAF8701CC6B2E2
:100A8000022EF5DB092000F0B3F8032000F0B0F8E7
:100A900097E0C02000F0ACF80A2095FBF0F100FBD5
:100AA000115051490F5C384600F0A2F80A2095FB1E
:100AB000F0F100FB11504C49085C0711384600F07A
:100AC00097F80A2095FBF0F00A2190FBF1F201FB68
:100AD000120045490F5C384600F08AF80A2095FB61
:100AE000F0F00A2190FBF1F201FB12003E49085C94
:100AF0000711384600F07CF8642095FBF0F03A4985
:100B00000F5C384600F074F8642095FBF0F036492D
:100B1000085C0711384600F06BF86CB93349887DE2
:100B200000F066F83149897D082242EA211000E090
:100B300052E000F05DF844E0012C0BD12B4908781D
:100B400000F056F829490978082242EA211000F0FD
:100B50004FF836E0022C0BD12449887800F048F891
:100B600022498978082242EA211000F041F828E061
:100B7000032C0BD11D49887900F03AF81B4989797B
:100B8000082242EA211000F033F81AE0042C0BD1BD
:100B90001649487C00F02CF81449497C082242EAA6
:100BA000211000F025F80CE0052C0AD10F49487BF4
:100BB00000F01EF80D49497B082242EA211000F09E
:100BC00017F80821074800F06DFF8A2000F010F8A0
:100BD0000821044800F066FFBDE8F0812C010020E8
:100BE00030010020001001409C470008AC4700087D
:100BF00070B504460821124800F052FF00251CE0A1
:100C000004210F4800F04CFF04F0010020B1022144
:100C10000B4800F047FF03E00221094800F040FFC5
:100C20000120FFF7E3FE0421054800F03BFF6410BC
:100C30000120FFF7DBFE681CC5B2082DE0DB70BDAC
:100C40000010014008B501210C2001F017FBA02085
:100C5000ADF8000010208DF8030003208DF802008D
:100C600069460D4800F088FE3820ADF800001020DD
:100C70008DF8030003208DF802006946074800F054
:100C80007BFE4020ADF8000048208DF80300694647
:100C9000014800F071FE08BD00080140000C014051
:100CA00000BFFEE710B50021837A012202FA03F1AA
:100CB0003D4A126842F001023B4B1A603A4A1C322C
:100CC00012688A43384B1C331A60027BCAB9364A11
:100CD0000C3212688A43344B0C331A604288C38842
:100CE00042EA0343304A4032847A42F83430028880
:100CF000838842EA03432C4A4032847A02EBC402DE
:100D00005360027B012A19D1274A0C3212680A4328
:100D1000254B0C331A604288038842EA0343224A77
:100D20004032847A42F83430C288838842EA0343EE
:100D30001D4A4032847A02EBC4025360C27A3AB947
:100D4000194A121D12688A43174B1B1D1A6006E0D0
:100D5000154A121D12680A43134B1B1D1A600289A3
:100D600032B9114A143212688A430F4B14331A6095
:100D70000289012A06D10C4A143212680A430A4B2E
:100D800014331A60427B012A06D1074A1C321268CA
:100D90000A43054B1C331A60034A126822F0010211
:100DA000014B1A6010BD0000006600401AB1436993
:100DB0000B43436102E043698B434361704730B5A5
:100DC000024600200023146824F002041460146812
:100DD00044F00104146000E05B1C546804F001045A
:100DE0001CB94FF6FF74A342F6D1546804F0010415
:100DF0000CB900206CE08C79012C04D1146844F00B
:100E00008004146003E0146824F080041460CC793A
:100E1000012C04D1146844F04004146003E0146809
:100E200024F0400414600C7A012C04D1146844F0BE
:100E30002004146003E0146824F0200414604C7A49
:100E4000012C04D1146844F01004146003E0146809
:100E500024F0100414608C7A012C04D1146844F03E
:100E60000804146003E0146824F008041460CC7AC9
:100E7000012C04D1146844F00404146003E01468E5
:100E800024F0040414608C78A407CD7844EA056447
:100E90000D7944EA05444D7944EA05540D886D1EE8
:100EA0002C43D461146824F001041460002300E092
:100EB0005B1C546804F001041CB14FF6FF74A3429C
:100EC000F6D1546804F001040CB1002000E00120C8
:100ED00030BD00002DE9F04F89B006460F46904620
:100EE0009946DDF848B04FF400742546DFF86CA150
:100EF0000121042001F0C2F90121480601F0AEF9F8
:100F0000E000ADF8200003208DF8220018208DF8B5
:100F1000230008A9524800F02FFDA000ADF82000E2
:100F200048208DF8230008A94D4800F025FD002039
:100F30008DF81A008DF81B008DF81C0001208DF82B
:100F40001D0000208DF81E008DF81F008DF816B0D2
:100F50008DF817608DF818808DF81970ADF8149021
:100F600005A94048FFF72BFF00208DF80E00012057
:100F70008DF80F008DF81000A54212D04FF6FF70CB
:100F800000EA4410ADF804000020ADF806004FF66A
:100F9000FF7000EA4510ADF808000020ADF80A0027
:100FA00013E04FF6FF7000EA4410ADF80400002093
:100FB000ADF80600CAF34F30ADF808004FF6FF70E9
:100FC00000EACA00001DADF80A000020ADF80C00D0
:100FD00001208DF8110001A8FFF764FE4FF4807422
:100FE0002148C07840F4807509208DF80E0001205A
:100FF0008DF80F008DF810004FF6FF7000EA4410D6
:10100000ADF804000020ADF806004FF6FF7000EACE
:101010004510ADF808000020ADF80A00ADF80C004E
:1010200001208DF8110001A8FFF73CFE01220221EA
:101030000C48FFF7BBFE14208DF8000001208DF84E
:10104000010000208DF8020001208DF803006846A1
:1010500001F0BEF8002009B0BDE8F08F01F00018E3
:1010600000080140006400403C01002010B500F57C
:10107000D87303EB01131B6803F004031372137A94
:1010800053B900F5D87303EB01131B6840F2FF74EA
:1010900004EA5353136009E000F5D87303EB01131E
:1010A0001B686FF0604404EAD303536000F5D87303
:1010B00003EB01131B6803F00203537200F5D873AE
:1010C00003EB01135B6803F00F03937200F5D87311
:1010D00003EB01135B681B0AD37400F5D87303EBB1
:1010E00001139B68D37200F5D87303EB01139B685F
:1010F0001C0A147300F5D87303EB01139B681C0CD6
:10110000547300F5D87303EB01139B681B0E9373A4
:1011100000F5D87303EB0113DB68D37300F5D873C4
:1011200003EB0113DB681C0A147400F5D87303EB9E
:101130000113DB681C0C547400F5D87303EB011326
:10114000DB681B0E937421B9C36843F02003C360AE
:1011500003E0036943F02003036110BD10B50B49A0
:101160000978491CC9B2094A1170084601EBD071CF
:101170004910A0EB410121B91021054800F092FC73
:1011800003E01021024800F08BFC10BD1700002086
:101190000008014010B50246002006E013784340E5
:1011A000034CE05C521C4B1ED9B20029F6DC10BD8A
:1011B0002300002070B5044620211A4800F072FC7C
:1011C0002021194800F06CFC00251DE0322003F0BE
:1011D00089F82021134800F063FC04F0800020B15E
:1011E0008021104800F05EFC03E080210D4800F0F3
:1011F00057FC322003F076F820210A4800F052FC18
:101200006006040E681CC5B2082DDFDB322003F037
:1012100069F88021034800F045FC2021024800F0D5
:1012200041FC70BD00080140000C01402DE9F04177
:10123000054688462021374800F032FC05F0BF05FE
:1012400000241DE0322003F04DF82021324800F048
:1012500027FC05F0800020B180212F4800F022FCFF
:1012600003E080212C4800F01BFC322003F03AF808
:101270002021294800F016FC6806050E601CC4B247
:10128000082CDFDB8021244800F00CFC002632E033
:101290000024002729E0322003F024F820211E48F2
:1012A00000F0FEFB072C04D180211B4800F0F8FB66
:1012B00003E08021184800F0F5FB322003F012F81B
:1012C0007806070E4021144800F0E1FB10B147F00A
:1012D000010701E007F0FE0720210F4800F0E2FBC4
:1012E000322002F0FFFF601CC4B2082CD3DB08F8E8
:1012F0000670701CC6B2032ECADB322002F0F2FF69
:101300008021054800F0CEFB2021024800F0CAFBF6
:10131000BDE8F081000C0140000801402DE9F041DA
:1013200006460F462021324800F0BAFB00241DE09B
:10133000322002F0D7FF20212E4800F0B1FB06F04A
:10134000800020B180212B4800F0ACFB03E080211D
:10135000284800F0A5FB322002F0C4FF20212548D8
:1013600000F0A0FB7006060E601CC4B2082CDFDB88
:101370000025322002F0B6FF2AE017F8058000248D
:101380001FE0322002F0AEFF20211A4800F088FB57
:1013900008F0800020B18021164800F083FB03E0B4
:1013A0008021144800F07CFB322002F09BFF2021BA
:1013B000104800F077FB4FEA48604FEA1068601C65
:1013C000C4B2082CDDDB322002F08CFF681CC5B2F1
:1013D000032DD2DB8021074800F064FB2021044864
:1013E00000F060FB322002F07DFFBDE8F0810000DC
:1013F000000C01400008014010B500240C491E20DB
:10140000FFF714FF0A48007800F0800070B1084828
:10141000007800F0030020B90548407800F0700023
:1014200010B100F03BF901E044F00104204610BD8A
:101430006C0100202DE9FC41002000900190002467
:1014400069461620FFF7F2FE9DF802008DF80400B1
:101450009DF801008DF805009DF800008DF806004C
:101460000198FEF722FF07464FF060420B4BFEF754
:10147000ADFE0546FEF73AFF044609492046FEF751
:1014800073FE044607492046FEF76EFE04462046DA
:10149000FEF718FF01900198BDE8FC81FFFF6F4146
:1014A0000000104100007A442DE9FC41002000902A
:1014B000019069461820FFF7B9FE9DF802008DF8EB
:1014C00004009DF801008DF805009DF800008DF8DE
:1014D00006000198FEF7E9FE07464FF060420C4B0C
:1014E000FEF774FE0546FEF701FF04460949204653
:1014F000FEF73AFE044608492046FEF735FE04464C
:101500002046FEF7DFFE01900198BDE8FC81000057
:10151000FFFF6F41008076440000204110B5044673
:1015200010215C4800F0BCFA0A2002F0B5FE102140
:10153000584800F0B7FA002C54D0FF2056490870E4
:101540004870FE208870FF20FFF7E8FE0020524917
:1015500008700F204870A02088704A20FFF7DEFE38
:1015600000204D490870487088706420FFF7D6FE4F
:101570000020494908704870012088704020FFF71A
:10158000CDFEFF2044490870487088705E20FFF748
:10159000C5FE802040490870002048708870742083
:1015A000FFF7BCFE00203C49087048708870782026
:1015B000FFF7B4FEFF20384908704870FE2088709D
:1015C000FF20FFF7ABFE2021324800F069FA0A2025
:1015D00002F088FEE820FFF7EDFD20212D4800F005
:1015E00061FA55E0FF202C4908704870FE20887091
:1015F000FF20FFF793FE0020274908704870012064
:1016000088704020FFF78AFE002023490870487048
:10161000602088706420FFF781FE00201E4908705A
:101620000F204870A02088704A20FFF777FEFF2027
:1016300019490870487088705E20FFF76FFE80209F
:101640001549087000204870802088707420FFF7CA
:1016500065FE002010490870487088707820FFF7F8
:101660005DFEFF200C4908704870FE208870FF2046
:10167000FFF754FE2021074800F012FA0A2002F07A
:1016800031FEE820FFF796FD2021024800F00AFA1B
:1016900010BD0000000C01406C01002010B5FF20BF
:1016A00003490870487088705E2000F003F810BD90
:1016B0006C01002070B506460D4620210B4800F055
:1016C000EFF90A2002F00EFE304600F011F8002477
:1016D00004E0285D00F00CF8601CC4B2032CF8DBB9
:1016E0002021024800F0DEF970BD0000000C01402E
:1016F00070B50446254600261DE00A2002F0F2FDE2
:101700002021124800F0CCF905F0800020B980219A
:101710000E4800F0C5F903E080210C4800F0C2F942
:10172000022002F0DFFD6806050E2021074800F0C8
:10173000B9F9701CC6B2082EDFDB0A2002F0D2FD18
:101740002021024800F0ACF970BD00000008014003
:10175000014609B909487047012901D10020FAE77B
:10176000022901D10648F6E7032901D10020F2E75A
:10177000042901D10020EEE70020ECE7340200202C
:101780005C0A002008B525208DF8000000208DF8A7
:10179000020001208DF80300684600F019FD2720A3
:1017A0008DF8000002208DF8020001208DF8030062
:1017B000684600F00DFD08BD10B50024194800680A
:1017C00020F0F000174908600846006840F08000EB
:1017D000086004E0601CC4B2012002F083FD4FF4F5
:1017E00000711048001F00F052F908B16E2CF1DBB7
:1017F000642C01DB012010BD002404E0601CC4B295
:10180000012002F06FFD4FF400710648001F00F048
:101810003EF908B9642CF1DB642C01DB0120EAE716
:101820000020E8E7040C014010B5002404E0601C2F
:10183000C4B2012002F056FD4FF40071104800F0D0
:1018400026F908B1642CF2DB002404E0601CC4B269
:10185000012002F047FD4FF40071094800F017F92C
:1018600008B9642CF2DB282002F03CFD4FF4007133
:10187000034800F00CF908B1012010BD0020FCE77E
:10188000000C014070B50024002506E06006040E3F
:10189000FFF7CAFF0443681CC5B2082DF6DB2046DB
:1018A00070BD000070B5044600F02EF8FFF784FF0D
:1018B000C0B9002504E0FFF7E5FF6055681CC5B21C
:1018C000052DF8DB207861780844A1780844E17898
:1018D0000844C0B22179884206D004A002F09AF8E8
:1018E000012070BD0120FCE70020FAE75265616429
:1018F000204461746520436865636B204572726F94
:1019000072210D0A0000000010B50E48006820F09A
:10191000F0000C4908600846006840F0300008609C
:1019200049150848001F00F0BBF8142002F0B4FC71
:101930004FF400710348001F00F0B4F81E2002F0BD
:10194000D1FC10BD040C01407047000008B5002018
:101950000090084800788DF80000064840788DF81F
:101960000100044880788DF80200684600F0D4FE3B
:1019700008BD0000200000202DE9F04102460025AE
:101980000026002000230024002791F803C00CF05B
:101990000F0591F803C00CF0100CBCF1000F03D040
:1019A00091F802C04CEA050591F800C0BCF1000FA7
:1019B00031D0146800202BE04FF0010C0CFA00F33A
:1019C000B1F800C00CEA03069E4220D183004FF01C
:1019D0000F0C0CFA03F7BC4305FA03FC4CEA0404B1
:1019E00091F803C0BCF1280F06D14FF0010C0CFA9E
:1019F00000FCC2F814C00AE091F803C0BCF1480F23
:101A000005D14FF0010C0CFA00FCC2F810C0401CCC
:101A10000828D1D31460B1F800C0BCF1FF0F34DD49
:101A2000546800202EE000F1080C4FF0010808FA7D
:101A30000CF3B1F800C00CEA03069E4221D18300EA
:101A40004FF00F0C0CFA03F7BC4305FA03FC4CEA09
:101A5000040491F803C0BCF1280F05D100F1080C73
:101A600008FA0CF8C2F8148091F803C0BCF1480FD2
:101A700007D100F1080C4FF0010808FA0CF8C2F881
:101A80001080401C0828CED35460BDE8F081024687
:101A9000002093680B400BB1012000E0002070474C
:101AA00041617047016170472DE9F04179A001F073
:101AB000B1FF7C480078012846D1022001F022FACB
:101AC000002001F047FA1E2002F00CFC76A001F085
:101AD000A1FF0A2407E0601EC4B20A2002F0DCFB6A
:101AE000FFF78AFC054605F0010008B9002CF2DC7E
:101AF000214670A001F08EFF002C21DDFFF7D4FC01
:101B000070490860FFF796FC6F4908606D480088CF
:101B10000A2190FBF1F201FB12066A48008890FB53
:101B2000F1F7694832463946036868A001F072FF50
:101B3000FFF7B4FD5B480078401C5A4908709DE0EF
:101B400069A001F067FF99E056480078022846D165
:101B5000012001F0D7F9012001F0FCF91E2002F06C
:101B6000C1FB65A001F056FF0A2407E0601EC4B265
:101B70000A2002F091FBFFF73FFC054605F001004B
:101B800008B9002CF2DC21464AA001F043FF002CEA
:101B900021DDFFF789FC4B490860FFF74BFC4A4900
:101BA0000860484800880A2190FBF1F201FB120608
:101BB0004448008890FBF1F74348324639460368B1
:101BC00050A001F027FFFFF769FD36480078401C60
:101BD0003449087052E044A001F01CFF4EE0314847
:101BE0000078032844D1002001F08CF9022001F094
:101BF000B1F91E2002F076FB49A001F00BFF0A2488
:101C000007E0601EC4B20A2002F046FBFFF7F4FBB7
:101C1000054605F0010008B9002CF2DC214625A09C
:101C200001F0F8FE002C1FDDFFF73EFC254908609F
:101C3000FFF700FC24490860224800880A2190FB35
:101C4000F1F201FB12061F48008890FBF1F71E48D5
:101C500032463946036835A001F0DCFEFFF71EFD71
:101C600001201049087009E01FA001F0D3FE05E033
:101C700035A001F0CFFE01200A4908701148008804
:101C80000A2190FBF1F0384908800F48008848800D
:101C9000BDE8F081435335343633BCECB2E22C203E
:101CA00000000000800100204368616E6E616C5F7F
:101CB000412C000054696D65436F756E743A25645C
:101CC0002E200000780100207C0100204120563A9F
:101CD0002533642E256456202C20493A2533646D23
:101CE000412E0D0A000000004353353436785F4919
:101CF0006E69742E0D0A00004368616E6E616C5F40
:101D0000422C00004220563A2533642E256456208A
:101D10002C20493A2533646D412E0D0A0000000045
:101D20004368616E6E616C5F432C00004320563A3D
:101D30002533642E256456202C20493A2533646DC2
:101D4000412E0D0A000000004368616E6E616C2038
:101D50004572726F722C676F746F204368616E6E8C
:101D6000616C5F41210D0A00AC010020014605E0D5
:101D70000F2001E0421ED0B20028FBDC0A1EA1F1B8
:101D8000010399B2F4D1704700BFFEE710B500F02F
:101D900095FA02F0DFF902F05DFA4FF4FA7002F002
:101DA0007BFA00F0F1F802F069F902F0E3F914A00F
:101DB00001F030FE01211CA001F02CFE204801683A
:101DC00020A001F027FE4FF4FA7002F065FAFEF74A
:101DD000F5FDFEF78FFC02F00BF9FEF74BFDFEF769
:101DE00003FDFEF72FFF0020FFF798FB40F2CF2105
:101DF000632001F031FBFEF737FC02F02BF910BD38
:101E00000D0A5374617274696E672055702E2E2E00
:101E10000D0A4A4F534F4E472D58533033205633F7
:101E20002E302E2E2E0D0A0056657273696F6E4E7F
:101E30006F3A20253032582E2E2E0D0A0000000059
:101E40009801002053797374656D436F7265436C1C
:101E50006F636B3A2025642E2E2E0D0A00000000C1
:101E600000B585B00121052000F008FA01218803A2
:101E700000F004FA4FF40070ADF8100018208DF84F
:101E8000130003208DF8120004A93B48FFF774FDEE
:101E90004FF48060ADF8100004208DF8130004A901
:101EA0003548FFF769FD4FF4E13000900020ADF8B0
:101EB0000400ADF80600ADF80800ADF80C000C20E9
:101EC000ADF80A0069462D4801F0F4FB012240F20A
:101ED00025512A4801F0C9FB0121284801F08FFB58
:101EE0004021264801F082FB0121092000F0C6F9BB
:101EF0000121880400F0B2F94FF48060ADF81000C1
:101F000018208DF8130003208DF8120004A91C4836
:101F1000FFF732FD4FF40060ADF8100004208DF89B
:101F2000130004A91648FFF727FD04A91448FFF77A
:101F300023FD4FF4965000900020ADF80400ADF85A
:101F40000600ADF80800ADF80C000C20ADF80A0052
:101F500069460C4801F0AEFB012240F225510948C8
:101F600001F083FB0121074801F049FB40210548AE
:101F700001F03CFB05B000BD000801400038014005
:101F8000000C01400048004008B50121042000F089
:101F900075F91020ADF800008DF8030003208DF8CE
:101FA000020069460148FFF7E7FC08BD0008014050
:101FB0000448806800F0010008B901207047002043
:101FC000FCE70000001001400448806800F4004075
:101FD00008B9012070470020FCE700000010014014
:101FE0000448806800F4804008B901207047002050
:101FF000FCE70000001001400448806800F4005035
:1020000008B9012070470020FCE7000000100140E3
:1020100070B505460C46012D33D17CB934A001F0D2
:10202000F9FC002037490870012000F0A1F80220D7
:1020300000F09EF8042000F09BF858E0012C0ED12F
:1020400031A001F0E7FC01202E49087000F098F85B
:10205000022000F095F8042000F08AF847E0022CF6
:1020600045D12EA001F0D6FC02202649087001209F
:1020700000F086F8022000F07BF8042000F080F8E1
:1020800035E0022D33D17CB929A001F0C3FC00203A
:102090002C490870082000F06BF8102000F068F858
:1020A000202000F065F822E0012C0FD126A001F0DD
:1020B000B1FC012023490870082000F061F81020CD
:1020C00000F05EF8202000F053F810E0022C0ED152
:1020D00022A001F09FFC02201A490870082000F09D
:1020E0004FF8102000F044F8202000F049F870BDAF
:1020F000D6F7D2BBB1B8B6FEA3ACCDA3D6B92E0DE0
:102100000A000000B8010020D6F7D2BBB1B8B6FE75
:10211000A3ACB5CDCBD92E0D0A000000D6F7D2BBAB
:10212000B1B8B6FEA3ACB8DFCBD92E0D0A000000C3
:10213000D6F7B6FEB1B8D2BBA3ACCDA3D6B92E0D9F
:102140000A000000C8010020D6F7B6FEB1B8D2BB25
:10215000A3ACB5CDCBD92E0D0A000000D6F7B6FE44
:10216000B1B8D2BBA3ACB8DFCBD92E0D0A000000AA
:10217000024909880143014A118070475201002039
:10218000024909888143014A1180704752010020A9
:1021900010B50B4800880B49098888420ED040F6DC
:1021A000FF70FEF793FB074800880549088064200C
:1021B00002F072F803480088FEF788FB10BD0000AB
:1021C000540100205201002000BFFEE770470000CC
:1021D00070B5002100230F22C47804B3154C246885
:1021E00004F4E064C4F5E064210AC1F10403CA40C8
:1021F000447804FA03F184781440214309010E4C19
:102200000678A155047804F01F050124AC40057838
:102210006D11AD0005F1E025C5F8004109E0047835
:1022200004F01F050124AC40044D0678761145F8F2
:10223000264070BD0CED00E000E400E080E100E02D
:102240007047000001460020034A506820F44040D7
:1022500008435060704700000010024029B1064A50
:10226000D2690243044BDA6104E0034AD269824333
:10227000014BDA61704700000010024029B1064AA4
:1022800092690243044B9A6104E0034A92698243D3
:10229000014B9A61704700000010024029B1064AC4
:1022A000D2680243044BDA6004E0034AD2688243F6
:1022B000014BDA60704700000010024070470000D8
:1022C00030B500210022002400232D4D6D6805F05B
:1022D0000C0121B1042905D0082923D105E0294D9D
:1022E000056022E0274D05601FE0254D6D6805F46F
:1022F0007012234D6D6805F48034022505EB92427F
:102300001CB9214D554305600BE01D4D6D6805F46A
:1023100000351DB11C4D5543056002E0194D554374
:10232000056002E0174D056000BF00BF144D6D68E9
:1023300005F0F0010909154D6B5C0568DD4045604D
:102340000F4D6D6805F4E061090A104D6B5C45683E
:10235000DD4085600A4D6D6805F46051C90A0B4D7A
:102360006B5C4568DD40C560054D6D6805F4404116
:10237000890B074D6B5CC568B5FBF3F5056130BD96
:102380000010024000127A0000093D008101002087
:10239000910100200348407820F002000149487074
:1023A00070470000200000200348407840F0020001
:1023B0000149487070470000200000200348407821
:1023C00020F00800014948707047000020000020FC
:1023D0000348407840F00800014948707047000009
:1023E000200000200348407820F010000149487088
:1023F00070470000200000200348407840F01000A3
:1024000001494870704700002000002003484078D0
:1024100020F0200001494870704700002000002093
:102420000348407840F020000149487070470000A0
:10243000200000200348407820F040000149487007
:1024400070470000200000200348407840F0400022
:102450000149487070470000200000200348407880
:1024600020F08000014948707047000020000020E3
:102470000348407840F080000149487070470000F0
:10248000200000200348807820F001000149887076
:1024900070470000200000200348807840F00100D1
:1024A00001498870704700002000002003488078B0
:1024B00020F00200014988707047000020000020D1
:1024C0000348807840F0020001498870704700009E
:1024D000200000200348807820F004000149887023
:1024E00070470000200000200348807840F004007E
:1024F00001498870704700002000002003480078E0
:1025000040F00100014908707047000020000020E1
:102510000348807820F00800014988707047000067
:10252000200000200348807840F0080001498870AE
:1025300070470000200000200348007820F00200CF
:10254000014908707047000020000020034800780F
:1025500040F0020001490870704700002000002090
:102560000348007820F00800014908707047000017
:10257000200000200348007840F00800014908705E
:1025800070470000200000200348007820F0400041
:1025900001490870704700002000002003480078BF
:1025A00040F0400001490870704700002000002002
:1025B0000348007820F0800001490870704700004F
:1025C000200000200348007840F080000149087096
:1025D00070470000200000200348407820F00100F0
:1025E00001494870704700002000002003484078EF
:1025F00040F00100014948707047000020000020B1
:1026000008B501210820FFF739FE03208DF80200EC
:1026100010208DF803000220ADF800006946044840
:10262000FFF7AAF9022002491431086008BD000032
:10263000000C014038B500254CE06946022001F04D
:10264000E3FD002844D02548007800F080000028F1
:102650003ED19DF800002249204A127888541F4834
:102660000078401C1D490870084600780A2801DDE2
:102670000020087019480078401E1949085CF228AB
:102680000DD116480078032809DAF22113480078A2
:10269000401E134A115401201049087018E01048D8
:1026A00040780E490978884212DC06210C48FEF772
:1026B00071FD04460A488079A04206D10748007897
:1026C00040F080000549087002E0002003490870CE
:1026D000681C85B2B5F5806FAFDB38BD35010020D1
:1026E000080200207047000002200149086070477E
:1026F000100C014070B504460D46022005490860E3
:102700002A46214601F08FFD02200249091F086078
:1027100070BD0000140C01403EB504460DA207CA6E
:102720008DE8070020788DF8020060788DF80300AE
:10273000A0788DF80400E0788DF805000621684641
:10274000FEF728FD8DF806009DF801106846FFF79A
:10275000D1FF3EBDF10901000000000302000000AE
:102760000220014908607047140C014010B50A208E
:1027700000F06EFA934948710B2000F069FA914914
:1027800088710C2000F064FA8E49C8710D2000F0A9
:102790005FFA8D4948710E2000F05AFA8A49887113
:1027A0000F2000F055FA8849C871022000F00EF998
:1027B00084498870032000F009F98349887000205B
:1027C00000F004F97F49C870012000F0FFF87E494D
:1027D000C870022000F098F97A490872012000F0D0
:1027E00093F978494872002000F08EF97549887293
:1027F000032000F089F974490872042000F084F97C
:1028000071494872052000F07FF96F4988720620EF
:1028100000F01EFA6B490871072000F019FA6A49A6
:102820000871042000F014FA10B1FFF7B3FD01E0C5
:10283000FFF7BAFD6348807828B96348807810B9FB
:10284000FFF798FE01E0FFF78BFE5E48007928B99C
:102850005D48007910B9FFF7C9FE01E0FFF7BCFE43
:102860005848007848BB5748407958B9554880794E
:1028700040B95448C07928B9FFF7AAFDFFF7B2FD67
:10288000FFF7C4FD4F484079A0B94E48807988B918
:102890004C48C07970B94B48007A58B94948407AD9
:1028A00040B94848807A28B94648807810B9FFF77F
:1028B0006BFE2DE0FFF772FE2AE042480078012807
:1028C00011D140484079012822D13E488079012821
:1028D0001ED13C48C079D8B9FFF770FDFFF78CFDD9
:1028E000FFF794FD14E037480078022810D13548EE
:1028F000407901280CD13348807948B93148C079F2
:10290000012805D1FFF75AFDFFF76CFDFFF788FDA1
:102910002D48007848BB2C48407958B92A4880791E
:1029200040B92948C07928B9FFF7CAFDFFF7D2FDA1
:10293000FFF7EEFD24484079A0B92348807988B993
:102940002148C07970B92048007A58B91E48407AA9
:1029500040B91D48807A28B91B48807810B9FFF724
:1029600027FE2DE0FFF72EFE2AE017480078012809
:1029700011D115484079012822D1134880790128C6
:102980001ED11148C079D8B9FFF790FDFFF7ACFD13
:10299000FFF7BEFD14E00C480078022810D10A4869
:1029A000407901280CD10848807948B90648C07997
:1029B000012805D1FFF77AFDFFF78CFDFFF7B2FD87
:1029C00010BD0000B8010020C801002010B5044669
:1029D000042C7DDA204600F04DF91420FDF770FF3D
:1029E00010214648FFF753F840B90A2044490855DA
:1029F0000020444908550846005D10BD4048005D70
:102A000000286FDD0320FDF755FF10213B48FFF73D
:102A10003EF840B90A203A4908550020394908557E
:102A20000846005DE9E70320FDF744FF1021334825
:102A3000FFF72DF840B90A203149085500203149E7
:102A400008550846005DD8E70320FDF733FF102145
:102A50002A48FFF71CF840B90A20294908550020E8
:102A6000284908550846005DC7E70520FDF722FF05
:102A700010212248FFF70BF840B90A2020490855D9
:102A80000020204908550846005DB6E70520FDF7FF
:102A900011FF10211948FEF7FAFF40B90A20184922
:102AA00008550020174908550846005DA5E7052090
:102AB000FDF700FF10211148FEF7E9FF48B90A2091
:102AC0000F49085500200F4908550846005D94E756
:102AD00011E00B48005D401E094908550948005D9A
:102AE0008BE7FFE70A2006490855012005490855EC
:102AF0000846005D81E7EF207FE7000000100140FD
:102B0000560100205A01002010B50446062C72DA46
:102B1000204600F04DFA3220FDF7A6FE4FF40041AA
:102B20004848FEF7B4FF40B90A204749085500203D
:102B3000464908550846005D10BD4348005D002821
:102B400075DD0320FDF78AFE4FF400413D48FEF796
:102B50009EFF40B90A203C49085500203B490855D2
:102B60000846005DE8E70320FDF778FE4FF40041DA
:102B70003448FEF78CFF40B90A203349085500203D
:102B8000324908550846005DD6E70320FDF766FE8A
:102B90004FF400412B48FEF77AFF40B90A202A493A
:102BA00008550020294908550846005DC4E705205E
:102BB000FDF754FE4FF400412248FEF768FF40B98C
:102BC0000A20214908550020204908550846005D83
:102BD000B2E70520FDF742FE4FF400411948FEF729
:102BE00056FF48B90A2018490855002017490855CA
:102BF0000846005DA0E723E00520FDF72FFE4FF417
:102C000000411048FEF743FF40B90A200E4908551D
:102C100000200E4908550846005D8DE70A48005D12
:102C2000401E094908550948005D85E7FFE70A206D
:102C3000054908550120054908550846005D7BE710
:102C4000EF2079E7000C01405E01002064010020C4
:102C500010B50446204600F00DF83220FDF730FE96
:102C600010210248FEF713FF10BD000000100140C4
:102C70007047000010B50446102C7BD2DFE804F04A
:102C8000081B2E4154677B8EA1B4C7DAF1EFEEED3D
:102C90004FF400719A48FEF703FF4FF48071984893
:102CA000FEF7FEFE80219648FEF7FAFE402194488A
:102CB000FEF7F6FE22E14FF400719148FEF7F2FEB6
:102CC0004FF480718E48FEF7EBFE80218C48FEF7B2
:102CD000E7FE40218A48FEF7E3FE0FE14FF4007162
:102CE0008748FEF7DDFE4FF480718548FEF7DAFE77
:102CF00080218348FEF7D4FE40218148FEF7D0FEB4
:102D0000FCE04FF400717E48FEF7CCFE4FF480717A
:102D10007B48FEF7C7FE80217948FEF7C1FE4021BF
:102D20007748FEF7BDFEE9E04FF400717448FEF706
:102D3000B7FE4FF480717248FEF7B2FE80217048F2
:102D4000FEF7B0FE40216E48FEF7AAFED6E04FF433
:102D500000716B48FEF7A6FE4FF480716848FEF7DD
:102D60009FFE80216648FEF79DFE40216448FEF7E5
:102D700097FEC3E0C1E04FF400716148FEF790FE9A
:102D80004FF480715E48FEF78DFE80215C48FEF7AF
:102D900089FE40215A48FEF783FEAFE04FF40071F0
:102DA0005748FEF77FFE4FF480715548FEF77AFED4
:102DB00080215348FEF776FE40215148FEF770FE11
:102DC0009CE04FF400714E48FEF76AFE4FF48071AC
:102DD0004B48FEF765FE80214948FEF761FE402121
:102DE0004748FEF75FFE89E04FF400714448FEF764
:102DF00059FE4FF480714248FEF752FE8021404850
:102E0000FEF74EFE40213E48FEF74CFE76E04FF4C2
:102E100000713B48FEF744FE4FF480713848FEF7DE
:102E200041FE80213648FEF73BFE40213448FEF744
:102E300039FE63E04FF400713148FEF733FE4FF482
:102E400080712F48FEF72EFE80212D48FEF728FEC8
:102E500040212B48FEF726FE50E03BE027E013E040
:102E6000FFE74FF400712648FEF71AFE4FF4807119
:102E70002348FEF715FE80212148FEF713FE40216E
:102E80001F48FEF70FFE39E04FF400711C48FEF7B3
:102E900009FE4FF480711A48FEF702FE802118489F
:102EA000FEF700FE40211648FEF7FCFD26E04FF439
:102EB00000711348FEF7F4FD4FF480711048FEF7DF
:102EC000F1FD80210E48FEF7EDFD40210C48FEF794
:102ED000E9FD13E04FF400710948FEF7E3FD4FF4FC
:102EE00080710748FEF7DEFD80210548FEF7DAFD18
:102EF00040210348FEF7D6FD00E000BF00BF10BD33
:102F00000010014010B5044624B1012C0BD0022C56
:102F10001BD111E040210E48FEF7C2FD80210C4874
:102F2000FEF7BEFD12E040210948FEF7BBFD8021FF
:102F30000748FEF7B5FD09E040210548FEF7B0FD62
:102F400080210348FEF7AEFD00E000BF00BF10BDCA
:102F5000000C014010B5044624B1012C0CD0022C09
:102F60001ED113E04FF400410F48FEF799FD0421F4
:102F70000E48FEF797FD14E04FF400410A48FEF7B3
:102F800091FD04210948FEF78BFD0AE04FF4004152
:102F90000548FEF785FD04210448FEF781FD00E0A9
:102FA00000BF00BF10BD0000000801400014014038
:102FB00010B50446082C74D2DFE804F00413233360
:102FC000435363744FF480514048FEF769FD8021FC
:102FD0003E48FEF765FD4FF480413C48FEF760FD3A
:102FE00071E04FF480513948FEF75CFD4FF4005119
:102FF0003648FEF755FD4FF480413448FEF750FD4A
:1030000061E04FF480513148FEF74AFD4FF4005122
:103010002E48FEF747FD4FF480412C48FEF740FD57
:1030200051E04FF480512948FEF73CFD4FF4005128
:103030002648FEF737FD4FF480412448FEF730FD67
:1030400041E04FF480512148FEF72AFD4FF4005132
:103050001E48FEF725FD4FF480411C48FEF722FD77
:1030600031E04FF480511948FEF71CFD4FF4005138
:103070001648FEF715FD4FF480411448FEF712FD87
:1030800021E04FF480511148FEF70AFD4FF4005142
:103090000E48FEF707FD4FF480410C48FEF702FD95
:1030A00011E00FE04FF480510848FEF7FBFC4FF4AD
:1030B00000510648FEF7F6FC4FF480410348FEF746
:1030C000F1FC00E000BF00BF10BD0000000C01409B
:1030D00010B500F001F810BD0CB500200190009073
:1030E0003348006840F480303149086000BF304800
:1030F000006800F4003000900198401C0190009896
:1031000018B90198B0F5A06FF1D12948006800F412
:10311000003010B10120009001E0002000900098E4
:10312000012843D12348006840F01000214908607D
:103130000846006820F0030008600846006840F078
:10314000020008601A48406819494860084640680B
:1031500048600846406840F480604860084640681F
:1031600020F47C1048600846406840F4E81048604D
:103170000846006840F08070086000BF0C48006896
:1031800000F000700028F9D00948406820F00300E2
:10319000074948600846406840F00200486000BFA8
:1031A0000348406800F00C000828F9D10CBD00006D
:1031B0000010024000200240042808D14FF0E02116
:1031C000096941F004014FF0E022116107E04FF07E
:1031D000E021096921F004014FF0E02211617047FC
:1031E00010B500F001F810BD10B5002406E011493B
:1031F00001EBC40000F0E4FF601CC4B2042CF6DB59
:103200000D480068401C0C490860084600686FF0D3
:103210000041884202D10020074908600748007831
:10322000401CC0B2054908700A2801DB0020087064
:1032300010BD0000D801002024010020280100203A
:1032400010B51348006840F00100114908600846B5
:103250004068104908400E494860084600680E4919
:1032600008400B4908600846006820F48020086088
:103270000846406820F4FE0048604FF41F00886054
:10328000FFF726FF4FF000600449086010BD000002
:10329000001002400000FFF8FFFFF6FE08ED00E01E
:1032A00010B53748007800F08000002862D1012175
:1032B000880700F013F9A8B13148007800F0400009
:1032C00080B12F48007800F03F003F2805D1002052
:1032D0002B4908702B49088004E029480078401CDD
:1032E000274908700221480700F0F8F8002841D06B
:1032F0002348007800F0400040282CD12048007876
:1033000040F080001E4908704FF0804000F0E3F864
:103310001C4908800221480700F0FAF81948008883
:10332000262814DD174800883E2810DA1448007853
:10333000C0280CD114480078AA2805D11348007879
:10334000401C1249087002E000201049087000205B
:103350000B4908700EE000200A4908804020084907
:1033600008700021000600F0DCF800214FF08040DA
:1033700000F0CEF803214FF0804000F09DF810BD22
:10338000180000201A000020090000200A00002078
:1033900010B501212A4800F0A1F800284FD0294893
:1033A000008840F6B83188420FDD002025490880AA
:1033B00025480078401CC0B223490870062190FBC4
:1033C000F1F201FB1200204908701E480088401CE1
:1033D0001C4908801D480078AA2818D11C4800887C
:1033E000401C1B49088008460088B0F57A7F16DD2E
:1033F0000020088017480078401C164908700846CD
:10340000007806280BDDBB201049087007E00F4844
:10341000007820B900200E4908800E490870FFF797
:10342000E3FE084800880A2190FBF1F201FB12003C
:1034300008B900F0A9FE0121014800F03DF810BDD7
:1034400000040040120000200B00002010000020AB
:1034500014000020160000207FB505460C4601210F
:103460000220FEF7FBFEADF80850ADF80440002046
:10347000ADF80A00ADF8060001A90E4800F054F8B6
:10348000012211460B4800F03AF81D208DF800008B
:1034900000208DF8010003208DF8020001208DF836
:1034A00003006846FEF794FE0121024800F007F889
:1034B0007FBD000000040040CA430282704721B172
:1034C000028842F00102028004E002884FF6FE7397
:1034D0001A40028070470146888E704730B5024618
:1034E000002000230024158A05EA0103958905EAD6
:1034F000010413B10CB1012000E0002030BD1AB16D
:1035000083890B43838102E083898B4383817047E6
:103510000A460021018C4FF6FD73194011430184C6
:103520007047818470470000002202881D4B98423A
:103530000ED01D4B98420BD0B0F1804F08D01B4BE2
:10354000984205D01A4B984202D01A4B984204D1A7
:103550004FF68F731A404B881A43174B984207D087
:10356000164B984204D04FF6FF431A40CB881A43BB
:1035700002808B8883850B8803850A4B98420BD089
:10358000094B984208D00E4B984205D00D4B9842FB
:1035900002D00D4B984201D10B7A0386012383821E
:1035A00070470000002C014000340140000400403E
:1035B00000080040000C00400010004000140040D3
:1035C00000400140004401400048014010B502485D
:1035D00000F02DF910BD00003402002010B50248A3
:1035E00000F025F910BD00005C0A002001F4007213
:1035F000B2F5007F00D100BFCA430280704721B1FD
:10360000828942F40052828104E082894DF6FF7380
:103610001A408281704770B50246002400230025BD
:10362000002040F66A16B14200D100BFC1F3421536
:1036300001F01F03012606FA03F3012D02D196893A
:10364000334006E0022D02D1168A334001E0968A0B
:1036500033400C12012606FA04F41688344013B1E4
:103660000CB1012000E0002070BDF0B5034600243D
:1036700000260025002040F66A17B94200D100BF9D
:103680001846C1F3421401F01F06012707FA06F598
:10369000012C01D10C3004E0022C01D1103000E0EB
:1036A00014301AB107682F43076002E00768AF4380
:1036B0000760F0BD2DE9F04786B005460E460024B0
:1036C000A24600BFA1460027B08900B100BF2F4627
:1036D0002C8A4CF6FF700440F08804432C82AC899D
:1036E0004EF6F3100440B0883189084371890843CD
:1036F0000443AC81AC8A4FF6FF400440B0890443D8
:10370000AC8201A8FEF7DCFD1F48874202D1DDF83C
:1037100010A001E0DDF80CA0A88900F4004040B141
:103720000AEBCA0000EB0A1031684900B0FBF1F85F
:1037300007E00AEBCA0000EB0A1031688900B0FB11
:10374000F1F86420B8FBF0F004012009642101FBCA
:103750001089A88900F4004040B1322000EBC90074
:10376000B0FBF1F000F00700044308E0322000EB6A
:1037700009106421B0FBF1F000F00F0004432C812C
:1037800006B0BDE8F0870000003801400146888897
:10379000C0F308007047C1F3080282807047000040
:1037A00010B586B0002401AA00210B48FDF75EFC8D
:1037B0000A480078AA280CD000BF05E00DF10F00E0
:1037C000005D07490855641C082CF7DBAA20034953
:1037D000087006B010BD0000006400400800002022
:1037E0000000002070B504460D46012000F034F9B9
:1037F000668B002000F030F90EB9002070BD218BDF
:10380000A068405C2870012000F026F9208B401C45
:1038100080B22083E189884201DB00202083608B15
:10382000401E6083002000F017F90120E6E770B524
:10383000044640F225512068FFF7EDFEE0B1206814
:10384000FFF7A4FFC5B2E18AA0684554E08A401C96
:1038500080B2E082E189884201DB0020E082608B57
:10386000E189884202DA608B401C6083606A10B193
:103870002846616A884700BF40F227712068FFF739
:10388000CAFE08B3A08A60B9002240F227712068FE
:10389000FFF7EBFE012240F226612068FFF7E5FE0C
:1038A00037E0638A6268D15C2068FFF774FF608A42
:1038B000401C80B26082A189884201DB00206082C6
:1038C000A08A401EA08224E040F226612068FFF713
:1038D000A2FEF0B1A08A50B9002240F22661206811
:1038E000FFF7C3FE206AA0B1206A804711E0638A17
:1038F0006268D15C2068FFF74EFF608A401C80B28E
:103900006082A189884201DB00206082A08A401E7B
:10391000A08270BD2DE9F04104460E4617460025F1
:1039200027E00CE0012000F097F8B4F814800020A4
:1039300000F092F8A089404500DD01E000BFF1E70A
:1039400000BF705D228A61688854012000F084F80D
:10395000208A401C80B22082A189884201DB00209D
:103960002082A08A401CA082002000F075F8681C0C
:1039700085B2BD42D5DB012240F227712068FFF7F6
:1039800074FEBDE8F081000016481749086017482A
:103990004860174888604FF480608881C8810020A3
:1039A00008824882C882088348838882C861086286
:1039B0004862104810490860104848601048886004
:1039C0004FF480608881C881002008824882C882C4
:1039D0000883488388820B48C8610B4808620B48FB
:1039E0004862704700380140340200205C02002029
:1039F0005C060020004800405C0A0020840A002089
:103A0000840E0020E926000861270008E52600084A
:103A100000BFFEE70FB4054B10B503A9044A029896
:103A200000F01EF810BC5DF814FB000031430008E4
:103A30003801002002E008C8121F08C1002AFAD18C
:103A400070477047002001E001C1121F002AFBD11E
:103A5000704780F31088704780F31088704700002B
:103A60002DE9FF4F8DB00F460546002606E02528BC
:103A70000BD0DDE90F1290476D1C761C28780028CA
:103A8000F5D111B03046BDE8F08F0024A246A14622
:103A90000122EC4900E0044315F8013F203B02FA03
:103AA00003F00842F7D128782A2810D06FF02F02AF
:103AB0002878A0F13001092914D80AEB8A0102EB19
:103AC000410144F0020400EB010A6D1CF0E701CF54
:103AD0005FEA000A03D544F40054CAF1000A44F036
:103AE00002046D1C28782E2817D115F8010F44F018
:103AF00004042A280ED06FF02F022878A0F130019C
:103B000009290AD809EB890102EB410100EB0109FF
:103B10006D1CF2E757F8049B6D1C28786C280FD0B9
:103B200006DC4C2817D068280DD06A2814D104E090
:103B3000742810D07A280FD10DE044F400140AE064
:103B400044F4801401E044F440146978814202D1C5
:103B500004F580146D1C6D1C2A786E2A1FD00CDCB5
:103B6000632A31D004DC002A8BD0582A11D1A3E07B
:103B7000642A68D0692A0CD165E0732A2ED004DC4F
:103B80006F2A73D0702A04D19BE0752A6FD0782AEF
:103B90006ED01046DDE90F129047761C50E1C4F359
:103BA0000250022806D0032809D0042801CF09D0EA
:103BB000066045E101CFF117C0E9006140E101CFA6
:103BC00006803DE106703BE117F8040B8DF800001C
:103BD00000208DF80100EB46012003E057F804BBFC
:103BE0004FF0FF3061074FF0000102D40DE008F103
:103BF0000101884649450FDA8045F8DB1BF80810BB
:103C00000029F4D108E008F1010188468142FADB7D
:103C10001BF808100029F6D1DDE90F23AAEB0800F4
:103C20008146214600F036F9304400EB080604E0F6
:103C3000DDE90F121BF8010B9047B8F10108F7D22C
:103C400021464846F7E00A21C4F302534FF0000B27
:103C50000891022B04D001CFC117032B09D00AE031
:103C6000FF1D27F00707F7E8020108E032E01FE038
:103C700020E000B2C117042B01D140B2C117031ECE
:103C800071F1000307DA4FF0000CD0EB0C006CEB85
:103C900001012D2302E0230504D52B238DF82430C8
:103CA000012303E0E30701D02023F7E7984658E01B
:103CB0000A2110E010210EE010204FF0000B0890B8
:103CC0000CE010214FF0000B44F004044FF0080901
:103CD000089103E008214FF0000B0891C4F3025350
:103CE000022B04D001CF0021032B06D006E0FF1DDC
:103CF00027F00707F7E8020103E080B2042B00D1A8
:103D0000C0B24FF0000823072BD5702A07D0DDF88A
:103D100020C08CF0100C5CEA0B0C05D00EE04023A8
:103D20008DF82430012308E050EA010306D0302347
:103D30008DF824308DF8252002239846DDF820C028
:103D40008CF0080C5CEA0B0C0BD150EA010301D19A
:103D5000630706D530238DF824304FF00108A9F110
:103D60000109582A04D038A20B9208AA0A920BE043
:103D70003AA2F9E75B46089AFCF7D4FA0B9B9B5CE6
:103D80000A9A521E0A92137050EA0102F2D10A985E
:103D9000ADEB000000F1200B600702D524F4803465
:103DA00001E04FF00109D94502DDA9EB0B0000E06D
:103DB000002000EB0B0141440890AAEB010AE0034C
:103DC00006D4DDE90F232146504600F063F806448F
:103DD0004FF0000908E009A911F80900DDE90F1208
:103DE000904709F10109761CC145F4DBE0030CD5CD
:103DF000DDE90F232146504600F04CF8064404E06C
:103E0000DDE90F1230209047761C0899481E089073
:103E10000029F5DC08E00A980A990078491C0A9103
:103E2000DDE90F129047761CBBF10001ABF1010BED
:103E3000F1DC21465046DDE90F2300F019F8064475
:103E40006D1C1BE60928010030313233343536371A
:103E500038396162636465660000000030313233D6
:103E60003435363738394142434445460000000076
:103E70002DE9F041044600251E461746880404D467
:103E800005E039462020B0476D1C641EF9D5284650
:103E9000BDE8F0812DE9F041044600251E4690461C
:103EA000C80301D5302700E02027880404D505E0A9
:103EB00041463846B0476D1C641EF9D52846BDE81A
:103EC000F08100000146042901DB0020704707480B
:103ED00000EBC1000079012806D10020034A02EB63
:103EE000C10210710120F1E70020EFE7D8010020A6
:103EF00070B50546304800EB05142068804700285F
:103F00003ED02079052802DA0520207152E0207980
:103F10000A2803DA2079401C20714BE0A07A38B9D6
:103F20000120A07205EB4501491CC8B200F038F928
:103F3000208900283EDDE088218988420DDAE0886A
:103F4000401C80B2E0802189884233D105EB4501D5
:103F5000C91CC8B200F024F92CE0E07A002829DD61
:103F6000207B401CC0B22073E17A884222DB002013
:103F7000207305EB4501491CC8B200F011F919E0A6
:103F80002079052802DD0520207110E0207918B184
:103F90002079401E20710AE0A07A012807D1002074
:103FA000A07205EB4501891CC8B200F0F9F80020A9
:103FB000E080207370BD0000CC1300200B48007916
:103FC0000A4A5279904201D100207047074800798F
:103FD000064A115C10460079401CC0B210710428DA
:103FE00001DB002010710846EFE700004A010020C5
:103FF00008B501211420FEF741F94FF4E050ADF867
:10400000000010208DF8030003208DF8020069469F
:104010000E48FDF7B1FC04210D48FDF743FD0821D2
:104020000B48FDF73FFD0C20ADF8000010208DF887
:10403000030069460648FDF79FFC04210448FDF78C
:1040400031FD08210248FDF72DFD08BD001001409B
:10405000000801400020074981F8A00081F8A10074
:1040600081F8A200044981F8A00081F8A10081F83C
:10407000A2007047271300208412002010B500F022
:1040800031F800F001F810BD08B501211020FEF74D
:10409000F5F803208DF8020004208DF803000120BC
:1040A000ADF8000069460E48FDF766FC4FF400408D
:1040B000ADF8000069460A48FDF75EFC4FF4804009
:1040C000ADF8000069460648FDF756FC4FF4005075
:1040D000ADF8000069460248FDF74EFC08BD00003F
:1040E000001001400021154A117151719171002099
:1040F00018E03221124A02EB001211810221104A0B
:1041000002EB0012117100210D4A02EB00129172B4
:104110000B4A02EB0012D172094A02EB0012117332
:10412000411CC8B20428E4DB0649054A116006496F
:104130001161064911620649116370474A01002066
:10414000CC130020B11F0008C91F0008E11F0008A0
:10415000F91F0008002008E00021054A42F830104D
:1041600002EBC0021171411CC8B20428F4DB704795
:10417000D801002010B5FFF707FCFDF771FEFEF730
:104180003FFAFDF7FFFA10BD10B5002404E0204609
:10419000FFF7AEFE601CC4B2042CF8DB10BD0000BB
:1041A00006494979054A505411464979491CC9B212
:1041B0005171042901DB0021517170474A0100202F
:1041C000017939B9016829B10168491E016009B94D
:1041D000012101717047000070B504460D46042CA2
:1041E00000DB70BD0120FFF734FC064840F8345076
:1041F0000020044901EBC4010871FFF72AFC00BF4D
:10420000EFE70000D801002070B505460E462846AD
:10421000FDF79EFA04460CB9002070BD31462046D9
:10422000FFF7E0FAF9E72DE9F04105460E4617469B
:104230002846FDF78DFA04460CB9BDE8F081E06927
:1042400008B1E06980473A4631462046FFF762FBF5
:1042500000BFF2E710B56FF00400FEF7ADFF0A48AB
:1042600000680A49B0FBF1F0094908700846007877
:1042700000EB4001C1EBC0104FF6FF7101EAC00036
:104280000449088010BD00009801002000127A0047
:104290001C0000201E0000200146114A12884A43DB
:1042A0004FF0E0235A6100229A611A46126942F0E7
:1042B00001021A6100BF4FF0E022106900F0010214
:1042C0001AB100F48032002AF5D04FF0E0221269D2
:1042D00022F001024FF0E0231A6100229A61704738
:1042E0001E0000200146114A12784A434FF0E02395
:1042F0005A6100229A611A46126942F001021A615B
:1043000000BF4FF0E022106900F001021AB100F482
:104310008032002AF5D04FF0E022126922F001022B
:104320004FF0E0231A6100229A6170471C000020C0
:1043300000BF054A128802F04002002AF9D0C2B23A
:10434000014B1B1D1A807047003801401FB500202B
:10435000029003900190002600250024002780464B
:10436000FEF76EFFFDF712FD0021A020FCF756FBC3
:1043700000204B23022203210090FCF7ABFDD5A0C7
:10438000FFF748FBDC48FFF745FBC8210120FFF79A
:1043900023FF40F6FF70FDF7EBFE0421D748FDF741
:1043A0007FFB0821D548FDF77BFBFEF7A7F8FEF75A
:1043B000CDF8FEF70DF8FEF71FF8FEF731F8FEF71F
:1043C0007FF8FEF791F8FEF7ADF8FEF751F880E1BF
:1043D000FCF7C4FE0120FFF775FD00287ED0C82140
:1043E0000120FFF7F9FE142E02DA701CC6B20DE0B0
:1043F000002602A8FDF756FA30B99DF80A00C04918
:1044000088809DF80800C880FDF74EFBBC48BD4A77
:10441000127830F81210BB480078FCF7FFFAFEF76C
:10442000A5F9FDF793FAFFF7C9FD0546002D30D039
:104430000C2D2CD2DFE805F006070B2B0F132B17E2
:104440001B2B1F2524E0B0A0FFF7E4FA20E0B2A068
:10445000FFF7E0FA1CE0B4A0FFF7DCFA18E0B6A022
:10446000FFF7D8FA14E0B8A0FFF7D4FA10E0BAA02A
:10447000FFF7D0FA0CE0FEF769F8BBA0FFF7CAFA25
:1044800006E0FEF759F8BCA0FFF7C4FA00E000BF51
:1044900000BFFEF7CFF8BC48007800F0800080280D
:1044A0003DD10020B8490870B84800798DF8040063
:1044B000B64840798DF805009DF8040010B99DF8C4
:1044C0000500F8B19DF8050000F00100D0B99DF895
:1044D000050000F00800082808D100E0EAE0012407
:1044E00000208DF804008DF8050018E09DF8050007
:1044F00000F01000102806D1002400208DF80400E0
:104500008DF805000BE09DF8050000F02000202844
:1045100005D1022400208DF804008DF80500002C40
:1045200076D1FDF787FFFDF7A3FFFDF7ABFF9DF801
:10453000050000F0020002280CD100209449087008
:104540000120FDF715FE0220FDF712FE0420FDF705
:104550000FFE6EE09DF8040000F0010058B101204C
:104560008B490870FDF70CFE0220FDF709FE0420C0
:10457000FDF7FEFD5DE09DF8050000F00400042855
:104580000CD10220824908700120FDF7F9FD0220BC
:10459000FDF7EEFD0420FDF7F3FD4AE09DF8050070
:1045A00000F0400040280CD100207A490870082013
:1045B000FDF7DEFD1020FDF7DBFD2020FDF7D8FD27
:1045C00037E09DF8040000F0020002280CD1012021
:1045D000704908700820FDF7D3FD1020FDF7D0FDCD
:1045E0002020FDF7C5FD24E09DF8050000F08000C7
:1045F00080281ED10220674908700820FDF7C0FD01
:104600001020FDF7B5FD2020FDF7BAFD11E0FFE712
:10461000012C06D1FDF718FFFDF720FFFDF732FF53
:1046200007E0022C05D1FDF705FFFDF717FFFDF7A9
:1046300033FFBC421BD0274600205749087054491D
:1046400008700120FDF794FD0220FDF791FD042084
:10465000FDF78EFD00204F4908700820FDF788FD0A
:104660001020FDF785FD2020FDF782FD2FE00CB323
:104670000820FEF7EDFA18B10920FEF7E9FAD0B9E3
:104680004548007848B94FF00108AA20424908700F
:1046900041462046FDF7BCFC19E03F480078BB28A6
:1046A00015D14FF00208CC203B4908704146204606
:1046B000FDF7AEFC0BE03848007840B14FF0000841
:1046C00000203549087041462046FDF7A1FCFDF762
:1046D0005FFD7DE643414E5F4D6F64655F496E69E6
:1046E000742C43414E5F426175643A2036304B6210
:1046F00070732E2E2E0D0A00C847000800080140D6
:10470000AC0100200B00002020204B45595F315F99
:10471000444F574E210D0A0020204B45595F315F11
:104720005550210D0A00000020204B45595F325F93
:10473000444F574E210D0A0020204B45595F325FF0
:104740005550210D0A00000020204B45595F335F72
:10475000444F574E210D0A0020204B45595F335FCF
:104760005550210D0A00000020204B45595F345F51
:10477000444F574E210D0A0020204B45595F345FAE
:104780005550210D0A0000003501002008020020CC
:10479000B8010020C8010020100000203F065B4F38
:1047A000666D7D077F6F777C395E7971777C3958CC
:1047B0005E79713D76740F0E753837545C736731CE
:1047C00049783E1C7E646E5A2D2D2D2D2D2D2D2DBC
:1047D0002D2D2D2D2D2D2D2D2D2D2D2D2D2D2D2D09
:1047E0002D2D2D2D2D2D2D2D2D2D2D2D2D2D2D2DF9
:1047F0002D2D2D2D2D2D2D2D2D2D2D2D2D2D2D2DE9
:104800002D2D2D2D2D2D2D2D2D2D2D0D0A000000A2
:104810003048000800000020AC010000120500082C
:1048200064490008AC01002064320000443A0008EA
:10483000012400FF005EBCE2613FDD83C29C7E205C
:10484000A3FD1F419DC3217FFCA2401E5F01E3BD6C
:104850003E6082DC237D9FC1421CFEA0E1BF5D0360
:1048600080DE3C62BEE0025CDF81633D7C22C09E54
:104870001D43A1FF4618FAA427799BC584DA386640
:10488000E5BB5907DB856739BAE406581947A5FB2C
:104890007826C49A653BD987045AB8E6A7F91B4520
:1048A000C6987A24F8A6441A99C7257B3A6486D814
:1048B0005B05E7B98CD2306EEDB3510F4E10F2AC00
:1048C0002F7193CD114FADF3702ECC92D38D6F31EC
:1048D000B2EC0E50AFF1134DCE90722C6D33D18FE0
:1048E0000C52B0EE326C8ED0530DEFB1F0AE4C12D4
:1048F00091CF2D73CA947628ABF517490856B4EAC0
:104900006937D58B5709EBB536688AD495CB2977AB
:10491000F4AA4816E9B7550B88D6346A2B7597C99F
:104920004A14F6A8742AC896154BA9F7B6E80A5493
:10493000D7896B021D352AFF01D5F129321D1A0ACC
:10494000016908490A2102150139162D01020304E3
:1049500004400906070809020406087CA24A042448
:04496000591B0000DF
:0400000508000131BD
:00000001FF
