:020000040800F2
:10000000D033002045010008D9200008CD1D00088C
:10001000D52000081D0F0008852D000800000000F5
:100020000000000000000000000000000D24000897
:10003000ED1B0008000000004D210008CD25000840
:100040005F0100085F0100085F0100085F01000810
:100050005F0100085F0100085F0100085F01000800
:100060005F0100085F0100085F0100085F010008F0
:100070005F0100085F0100085F0100085F010008E0
:100080005F0100085F0100085F0100085F010008D0
:10009000152B00085F0100085F0100085F010008E0
:1000A0005F0100085F0100085F0100085F010008B0
:1000B0008D2600087D2700085F0100085F01000809
:1000C0005F0100085F0100085F0100085F01000890
:1000D0005F010008412900085F010008512900085C
:1000E0005F0100085F0100085F0100085F01000870
:1000F0005F0100085F0100085F0100085F01000860
:100100005F0100085F0100085F0100085F0100084F
:100110005F0100085F0100085F0100085F0100083F
:100120005F0100085F0100085F0100085F0100082F
:10013000DFF80CD000F0BCF900480047C1360008D9
:10014000D03300200648804706480047FEE7FEE718
:10015000FEE7FEE7FEE7FEE7FEE7FEE7FEE7FEE777
:100160002D2600083101000880EA010210B502F0D6
:100170000043400022D04A001FD0010E01EB126163
:10018000C0F35600C2F3560240F4000042F40002ED
:10019000A0FB022000047F39140400D0401C50EA68
:1001A000124001D44000491EC2B20C0604EBD0102C
:1001B000401C4008802A02D003E0002010BD20F03F
:1001C0000100002900DA0020184310BD2DE9F04D90
:1001D00081EA030404F0004B21F0004514464FF07F
:1001E000000A23F0004150EA050220D054EA01023F
:1001F0001DD0C5F30A570246C5F31303C1F313001C
:10020000C1F30A5640F4801543F48013A7EB0608A7
:10021000101BD64608F2FD3873EB050002D308F137
:10022000010801E092185B41B8F1000F03DA0020E9
:100230000146BDE8F08D00204FF48011064684464B
:100240000EE0171B73EB050705D3121B63EB0503C9
:1002500006434CEA010C49084FEA300092185B4112
:1002600050EA0107EDD152EA030012D082EA0400FD
:1002700083EA0501084305D0101BAB4106D20122D9
:10028000002306E000224FF0004302E06FF001027D
:1002900053101AEB06004CEB085110EB0A0041EB2F
:1002A0000B01BDE8F04D00F0A5B80EB540F23341AA
:1002B00002910021CDE900110A460B4600F0A9F891
:1002C00003B000BD20F00040C10DC0F3160040F4A3
:1002D00000007F2901DA00207047962903DCC1F174
:1002E0009601C840704796398840704701F0004336
:1002F00030B421F0004150EA010206D00A0DA2F507
:100300006072C1F31301002A02DC30BC0020704788
:10031000440F44EAC104C100E01830BC00EBC250F5
:1003200000F031B82DE9F05F0546002092469B466B
:1003300088460646814640241BE0284641464746FB
:10034000224600F0D6F853465A46C01A914110D3BF
:1003500011461846224600F0BDF82D1A67EB010839
:100360004F4622460120002100F0B4F817EB0009A7
:100370004E41201EA4F10104DFDC484631462A46E6
:100380004346BDE8F09F0029A8BF7047401C4900C4
:1003900008BF20F00100704710B4B0FA80FC00FAEA
:1003A0000CF050EA010404BF10BC704749B1CCF115
:1003B000200421FA04F411FA0CF118BF01212143A1
:1003C0000843A3EB0C01CB1D4FEA00614FEA10205C
:1003D00042BF002010BC704700EBC35010440029FE
:1003E000A4BF10BC7047401C490008BF20F00100AA
:1003F00010BC704710B5141E73F1000408DA401CDD
:1004000041F1000192185B411A4301D120F0010033
:1004100010BD2DE9F04D92469B4611B1B1FA81F223
:1004200002E0B0FA80F22032904600F053F8044621
:100430000F4640EA0A0041EA0B0153465A46084378
:1004400013D0114653EA010019D0C8F140025046BA
:1004500000F04FF805460E4650465946424600F019
:1004600039F8084305D0012004E020463946BDE8AC
:10047000F08D0020054346EAE0762C4337430A9886
:100480006305E40AA0EB08000022FD0A44EA475491
:100490000A3002D500200146E9E70105101969413B
:1004A000DDE9084500196941BDE8F04DA2E700000B
:1004B000064C074D06E0E06840F0010394E80700B1
:1004C00098471034AC42F6D3FFF736FE583900088F
:1004D00078390008202A04DB203A00FA02F10020D3
:1004E00070479140C2F1200320FA03F31943904072
:1004F0007047202A04DB203A21FA02F000217047DD
:1005000021FA02F3D040C2F120029140084319467B
:10051000704770B58C1810F8015B15F0070301D116
:1005200010F8013B2A1106D110F8012B03E010F856
:10053000016B01F8016B5B1EF9D12B0705D4002379
:10054000521E0DD401F8013BFAE710F8013BCB1A1B
:10055000921C03E013F8015B01F8015B521EF9D510
:10056000A142D8D3002070BD21B1826842F00102BF
:10057000826003E0826822F001028260704700001E
:1005800010B504461248844208D10121401501F0FB
:100590000BFE0021601501F007FE17E00D488442B4
:1005A00008D10121001501F0FFFD0021201501F007
:1005B000FBFD0BE00848844208D10121C80301F08B
:1005C000F3FD00214FF4004001F0EEFD10BD0000EE
:1005D0000024014000280140003C01400146002069
:1005E0008A6802F004020AB1012000E0002070478E
:1005F000014600208A6802F008020AB1012000E0EA
:100600000020704730B502460020002350680F4C90
:1006100020400D790C6844EA05242043506090681E
:100620000B4C2040D1E902542C434D7944EA450457
:1006300020439060D06A20F470000C7C641EE4B209
:10064000234340EA0350D06230BD0000FFFEF0FFBC
:10065000FDF7F1FF816841F0080181607047816812
:1006600041F004018160704700B587B001214FF46B
:10067000017001F089FD4FF4004001F069FD022096
:10068000ADF8040000208DF8070001A9174801F01B
:10069000AEFA1748FFF774FF002002908DF80C00A7
:1006A0008DF80D004FF4602004900020059001208B
:1006B0008DF8180002A90E48FFF7A4FF01210C488D
:1006C000FFF752FF0A48FFF7C5FF00BF0848FFF7D2
:1006D0008FFF0028FAD10648FFF7C1FF00BF04488A
:1006E000FFF77CFF0028FAD107B000BD00080140E9
:1006F000002401401FB50121082001F045FD4FF401
:100700000070ADF8040010208DF8070003208DF86C
:10071000060001A91C4801F06AFA01F047FA01F04D
:1007200089F918B919A002F02FFB02E01CA002F011
:100730002BFB002405E001F0E3F902A90855601C39
:10074000C4B2052CF7DB9DF808009DF80910084499
:100750009DF80A1008449DF80B100844C0B29DF89B
:100760000C10884203D014A002F00EFB0BE09DF8A1
:100770000B0000909DF80A309DF809209DF80810A4
:1007800014A002F001FB1FBD000C0140444854318D
:10079000315F496E6974204F4B21202020000000FA
:1007A00044485431315F496E6974204572726F72EA
:1007B0002120202000000000526561642044617403
:1007C0006520436865636B204572726F72210D0A64
:1007D00000000000483A25642E25643B20543A2549
:1007E000642E25642E0D0A0008B501211C2001F09D
:1007F000CBFC47F2C000ADF8000010208DF80300DC
:1008000003208DF802006946114801F0F0F94FF419
:100810000040ADF8000010208DF8030069460D4837
:1008200001F0E5F90420ADF8000010208DF8030078
:100830006946094801F0DBF94FF40040ADF80000CB
:1008400048208DF803006946014801F0D0F908BD41
:10085000000C0140000801400014014008B50121CE
:10086000102001F091FC4FF47070ADF800001020E2
:100870008DF8030003208DF802006946064801F058
:10088000B6F91020ADF8000048208DF80300694645
:10089000014801F0ACF908BD0010014070B50446F4
:1008A00025464FF48061214801F035FA4FF400618C
:1008B0001E4801F030FA012001F07AFA002625E006
:1008C00005F40040B0F5004F05D14FF480511748B2
:1008D00001F023FA04E04FF48051144801F01BFAB0
:1008E000012001F065FA4FF40061104801F015FA9B
:1008F000012001F05DFA4FF400610C4801F00BFAA1
:100900004FF6FF7000EA4505701CC6B2102ED7DB0B
:100910004FF48061054801F000FA012001F048FA27
:100920004FF48061014801F0F6F970BD00100140FC
:1009300010B50821144801F0F0F90421124801F023
:10094000ECF90221104801F0E8F9402000F08EFA9D
:1009500008210D4801F0E1F9C02000F087FA0024D9
:1009600004E0002000F082FA601CC4B2102CF8DB16
:100970000821054801F0D1F9802000F077FA08211C
:10098000014801F0CAF910BD0010014008B501216D
:10099000102001F0F9FB0E20ADF8000010208DF8BA
:1009A000030003208DF802006946034801F01FF997
:1009B000FFF7BEFF08BD00000010014001B581B087
:1009C0000BE06420009004E09DF80000401EC0B2DF
:1009D00000909DF800000028F6DCBDF80400411EE0
:1009E00089B201910028ECD10CBD00002DE9F04145
:1009F00007460D46FE480078B84203D1FD4800681E
:100A0000A8426FD0FA480078B84201D0FFF790FFB3
:100A1000F7480770F7480560402000F027FA0821E2
:100A2000F54801F07AF9022F0CD1C02000F01EFA2F
:100A3000002604E0002000F019FA701CC6B2102E47
:100A4000F8DB01E2012F1BD1C02000F00FFA0F20CC
:100A500000F00CFA002000F009FA002607E0092057
:100A600000F004FA002000F001FA701CC6B2022E59
:100A7000F5DB092000F0FAF9032000F0F7F9E3E1D3
:100A8000062F30D1C02000F0F1F9002607E0002049
:100A900000F0ECF9042000F0E9F9701CC6B2032E56
:100AA000F5DB0124D549085D00F0E0F9D349095D83
:100AB000081100F0DBF90024D049085D00F0D6F9F8
:100AC000CE49095D081100F0D1F9002607E00020A9
:100AD00000F0CCF9042000F0C9F9701CC6B2032E56
:100AE000F5DBB1E1BBE1032F6DD1C02000F0BEF911
:100AF0000A20B5FBF0F100FB1150C04911F800804D
:100B0000404600F0B3F90A20B5FBF0F100FB1150AC
:100B1000BA49085C4FEA2018404600F0A7F90A20BD
:100B2000B5FBF0F00A21B0FBF1F201FB1200B34972
:100B300011F80080404600F099F90A20B5FBF0F06A
:100B40000A21B0FBF1F201FB1200AC49085C4FEA4C
:100B50002018404600F08AF96420B5FBF0F0A74960
:100B600011F80080404600F081F96420B5FBF0F0F8
:100B7000A249085C4FEA2018404600F077F99F49E7
:100B8000087800F073F99D490978082242EA21109B
:100B900000F06CF9002000F069F9002000F066F91F
:100BA000002000F063F9002000F060F9002000F060
:100BB0005DF9002000F05AF9002000F057F90020FC
:100BC00000F054F940E1042F6FD1C02000F04EF93D
:100BD00025F07F458A48854269D20A20B5FBF0F1AD
:100BE00000FB11548549085D00F040F98349095D17
:100BF000081100F03BF90A20B5FBF0F00A21B0FB28
:100C0000F1F201FB12047D49085D00F02FF97B49E8
:100C1000095D081100F02AF96420B5FBF0F00A2103
:100C2000B0FBF1F201FB12047449085D00F01EF9FB
:100C30007249095D081100F019F94FF47A70B5FB9B
:100C4000F0F00A21B0FBF1F201FB12046B49085DE0
:100C500000F00CF96949095D082242EA211000F010
:100C600005F942F21070B5FBF0F00A21B0FBF1F289
:100C700001FB12046149085D00F0F8F85F49095D65
:100C8000081100F0F3F85F48B5FBF0F00A21B0FB63
:100C9000F1F201FB12045949085D00F0E7F85749E9
:100CA000095D081100F0E2F86BE077E0FFE70A2049
:100CB000B5FBF0F00A21B0FBF1F201FB12044F4941
:100CC000085D00F0D3F84D49095D081100F0CEF839
:100CD0006420B5FBF0F00A21B0FBF1F201FB120435
:100CE0004649085D00F0C2F84449095D081100F06A
:100CF000BDF84FF47A70B5FBF0F00A21B0FBF1F2C9
:100D000001FB12043D49085D00F0B0F83B49095D64
:100D1000082242EA211000F0A9F842F21070B5FB57
:100D2000F0F00A21B0FBF1F201FB12043349085D37
:100D300000F09CF83149095D081100F097F831483E
:100D4000B5FBF0F00A21B0FBF1F201FB12042B49D4
:100D5000085D00F08BF82949095D081100F086F85C
:100D60002748B5FBF0F00A21B0FBF1F201FB1204B9
:100D70002249085D00F07AF82049095D081100F069
:100D800075F8002000F072F8002000F06FF80020E5
:100D900000F06CF8002000F069F855E0052F53D101
:100DA000C02000F063F80024204600F05FF82046E1
:100DB00000F05CF800BF204600F058F8204600F034
:100DC00055F800BF0D49085D00F050F80B49095D6A
:100DD000081100F04BF800BF0849085D00F046F824
:100DE0000649095D081100F041F800BF03490BE016
:100DF0002401002028010020001001402C010020C7
:100E000040420F00A0860100085D00F02FF8154950
:100E1000095D081100F02AF80E241249085D00F05F
:100E200025F81049095D081100F020F8002420463B
:100E300000F01CF8204600F019F800BF204600F032
:100E400015F8204600F012F80821074800F065FF69
:100E50008A2000F00BF80821034800F05EFFBDE88F
:100E6000F08100002C0100200010014070B5044604
:100E70000821124800F04FFF00251CE004210F4814
:100E800000F049FF04F0010020B102210B4800F0FE
:100E900044FF03E00221094800F03DFF0120FFF775
:100EA0008DFD0421054800F038FF64100120FFF794
:100EB00085FD681CC5B2082DE0DB70BD0010014047
:100EC00008B501210C2001F05FF9A020ADF8000069
:100ED00010208DF8030003208DF8020069460D48AC
:100EE00000F085FE3820ADF8000010208DF80300DA
:100EF00003208DF802006946074800F078FE402084
:100F0000ADF8000048208DF803006946014800F064
:100F10006EFE08BD00080140000C014000BFFEE766
:100F200010B50021837A012202FA03F13D4A1268CA
:100F300042F001023B4B1A603A4A1C3212688A4363
:100F4000384B1C331A60027BCAB9364A0C3212681D
:100F50008A43344B0C331A604288C38842EA034305
:100F6000304A4032847A42F834300288838842EA38
:100F700003432C4A4032847A02EBC4025360027B62
:100F8000012A19D1274A0C3212680A43254B0C3327
:100F90001A604288038842EA0343224A4032847A34
:100FA00042F83430C288838842EA03431D4A403203
:100FB000847A02EBC4025360C27A3AB9194A121D0C
:100FC00012688A43174B1B1D1A6006E0154A121D52
:100FD00012680A43134B1B1D1A60028932B9114A69
:100FE000143212688A430F4B14331A600289012AA3
:100FF00006D10C4A143212680A430A4B14331A60A1
:10100000427B012A06D1074A1C3212680A43054B6B
:101010001C331A60034A126822F00102014B1A6065
:1010200010BD0000006600401AB143690B434361E4
:1010300002E043698B434361704730B502460020AC
:101040000023146824F002041460146844F00104BE
:10105000146000E05B1C546804F001041CB94FF6F6
:10106000FF74A342F6D1546804F001040CB90020C7
:101070006CE08C79012C04D1146844F08004146075
:1010800003E0146824F080041460CC79012C04D1AE
:10109000146844F04004146003E0146824F0400431
:1010A00014600C7A012C04D1146844F020041460FC
:1010B00003E0146824F0200414604C7A012C04D15D
:1010C000146844F01004146003E0146824F0100461
:1010D00014608C7A012C04D1146844F00804146064
:1010E00003E0146824F008041460CC7A012C04D1C5
:1010F000146844F00404146003E0146824F0040449
:1011000014608C78A407CD7844EA05640D7944EA2C
:1011100005444D7944EA05540D886D1E2C43D46175
:10112000146824F001041460002300E05B1C546880
:1011300004F001041CB14FF6FF74A342F6D15468C9
:1011400004F001040CB1002000E0012030BD0000DB
:101150002DE9F04F89B006460F4690469946DDF8D6
:1011600048B04FF400742546DFF86CA1012104203B
:1011700001F00AF80121480600F0F6FFE000ADF8A2
:10118000200003208DF8220018208DF8230008A9E4
:10119000524800F02CFDA000ADF8200048208DF84A
:1011A000230008A94D4800F022FD00208DF81A0008
:1011B0008DF81B008DF81C0001208DF81D0000200B
:1011C0008DF81E008DF81F008DF816B08DF8176091
:1011D0008DF818808DF81970ADF8149005A9404865
:1011E000FFF72BFF00208DF80E0001208DF80F0077
:1011F0008DF81000A54212D04FF6FF7000EA44109F
:10120000ADF804000020ADF806004FF6FF7000EACC
:101210004510ADF808000020ADF80A0013E04FF6C5
:10122000FF7000EA4410ADF804000020ADF806009D
:10123000CAF34F30ADF808004FF6FF7000EACA005D
:10124000001DADF80A000020ADF80C0001208DF85B
:10125000110001A8FFF764FE4FF480742148C078A4
:1012600040F4807509208DF80E0001208DF80F00E4
:101270008DF810004FF6FF7000EA4410ADF804003E
:101280000020ADF806004FF6FF7000EA4510ADF8FB
:1012900008000020ADF80A00ADF80C0001208DF820
:1012A000110001A8FFF73CFE012202210C48FFF7C4
:1012B000BBFE14208DF8000001208DF801000020F5
:1012C0008DF8020001208DF80300684600F006FF4B
:1012D000002009B0BDE8F08F01F0001800080140BF
:1012E000006400404401002010B500F5D87303EB02
:1012F00001131B6803F004031372137A53B900F54A
:10130000D87303EB01131B6840F2FF7404EA5353D4
:10131000136009E000F5D87303EB01131B686FF04D
:10132000604404EAD303536000F5D87303EB011360
:101330001B6803F00203537200F5D87303EB01132B
:101340005B6803F00F03937200F5D87303EB01138E
:101350005B681B0AD37400F5D87303EB01139B6819
:10136000D37200F5D87303EB01139B681C0A147346
:1013700000F5D87303EB01139B681C0C547300F544
:10138000D87303EB01139B681B0E937300F5D8739E
:1013900003EB0113DB68D37300F5D87303EB011380
:1013A000DB681C0A147400F5D87303EB0113DB68C7
:1013B0001C0C547400F5D87303EB0113DB681B0E8F
:1013C000937421B9C36843F02003C36003E0036949
:1013D00043F02003036110BD10B50B490978491C87
:1013E000C9B2094A1170084601EBD0714910A0EB4F
:1013F000410121B91021054800F08FFC03E01021C4
:10140000024800F088FC10BD1100002000080140D7
:1014100010B50246002006E013784340034CE05C20
:10142000521C4B1ED9B20029F6DC10BD1A00002058
:1014300070B5044620211A4800F06FFC202119489D
:1014400000F069FC00251DE0322002F005F92021A2
:10145000134800F060FC04F0800020B180211048A7
:1014600000F05BFC03E080210D4800F054FC3220CA
:1014700002F0F2F820210A4800F04FFC6006040E4A
:10148000681CC5B2082DDFDB322002F0E5F88021B0
:10149000034800F042FC2021024800F03EFC70BDF1
:1014A00000080140000C01402DE9F0410546884646
:1014B0002021374800F02FFC05F0BF0500241DE077
:1014C000322002F0C9F82021324800F024FC05F057
:1014D000800020B180212F4800F01FFC03E0802114
:1014E0002C4800F018FC322002F0B6F820212948E0
:1014F00000F013FC6806050E601CC4B2082CDFDB8C
:101500008021244800F009FC002632E00024002756
:1015100029E0322002F0A0F820211E4800F0FBFB59
:10152000072C04D180211B4800F0F5FB03E080214B
:10153000184800F0F2FB322002F08EF87806070E11
:101540004021144800F0DEFB10B147F0010701E034
:1015500007F0FE0720210F4800F0DFFB322002F0E9
:101560007BF8601CC4B2082CD3DB08F80670701C32
:10157000C6B2032ECADB322002F06EF88021054885
:1015800000F0CBFB2021024800F0C7FBBDE8F08152
:10159000000C0140000801402DE9F04106460F46CD
:1015A0002021324800F0B7FB00241DE0322002F079
:1015B00053F820212E4800F0AEFB06F0800020B149
:1015C00080212B4800F0A9FB03E08021284800F08F
:1015D000A2FB322002F040F82021254800F09DFBBC
:1015E0007006060E601CC4B2082CDFDB002532201A
:1015F00002F032F82AE017F8058000241FE03220BC
:1016000002F02AF820211A4800F085FB08F080003B
:1016100020B18021164800F080FB03E080211448AF
:1016200000F079FB322002F017F82021104800F07A
:1016300074FB4FEA48604FEA1068601CC4B2082C83
:10164000DDDB322002F008F8681CC5B2032DD2DBC6
:101650008021074800F061FB2021044800F05DFB79
:10166000322001F0F9FFBDE8F0810000000C0140DC
:101670000008014010B500240C491E20FFF714FF9C
:101680000A48007800F0800070B10848007800F047
:10169000030020B90548407800F0700010B100F058
:1016A0003BF901E044F00104204610BD5C0100203C
:1016B0002DE9FC410020009001900024694616208D
:1016C000FFF7F2FE9DF802008DF804009DF801007E
:1016D0008DF805009DF800008DF806000198FEF7D2
:1016E000E4FD07464FF060420B4BFEF76FFD0546E9
:1016F000FEF7FCFD044609492046FEF735FD044689
:1017000007492046FEF730FD04462046FEF7DAFD85
:1017100001900198BDE8FC81FFFF6F41000010417E
:1017200000007A442DE9FC410020009001906946B8
:101730001820FFF7B9FE9DF802008DF804009DF80F
:1017400001008DF805009DF800008DF80600019855
:10175000FEF7ABFD07464FF060420C4BFEF736FD3F
:101760000546FEF7C3FD044609492046FEF7FCFC8A
:10177000044608492046FEF7F7FC04462046FEF7DB
:10178000A1FD01900198BDE8FC810000FFFF6F41C1
:10179000008076440000204110B5044610215C48CA
:1017A00000F0B9FA0A2001F031FF1021584800F08A
:1017B000B4FA002C54D0FF20564908704870FE201F
:1017C0008870FF20FFF7E8FE0020524908700F20C4
:1017D0004870A02088704A20FFF7DEFE00204D49A7
:1017E0000870487088706420FFF7D6FE00204949D1
:1017F00008704870012088704020FFF7CDFEFF2060
:1018000044490870487088705E20FFF7C5FE80204C
:10181000404908700020487088707420FFF7BCFEB3
:1018200000203C490870487088707820FFF7B4FEAB
:10183000FF20384908704870FE208870FF20FFF7AD
:10184000ABFE2021324800F066FA0A2001F004FFC6
:10185000E820FFF7EDFD20212D4800F05EFA55E06D
:10186000FF202C4908704870FE208870FF20FFF789
:1018700093FE00202749087048700120887040209E
:10188000FFF78AFE002023490870487060208870A6
:101890006420FFF781FE00201E4908700F20487069
:1018A000A02088704A20FFF777FEFF2019490870B2
:1018B000487088705E20FFF76FFE80201549087021
:1018C00000204870802088707420FFF765FE00209B
:1018D00010490870487088707820FFF75DFEFF207F
:1018E0000C4908704870FE208870FF20FFF754FEF6
:1018F0002021074800F00FFA0A2001F0ADFEE82091
:10190000FFF796FD2021024800F007FA10BD000005
:10191000000C01405C01002010B5FF200349087055
:10192000487088705E2000F003F810BD5C01002054
:1019300070B506460D4620210B4800F0ECF90A2050
:1019400001F08AFE304600F011F8002404E0285D22
:1019500000F00CF8601CC4B2032CF8DB2021024814
:1019600000F0DBF970BD0000000C014070B50446CA
:10197000254600261DE00A2001F06EFE20211248B7
:1019800000F0C9F905F0800020B980210E4800F070
:10199000C2F903E080210C4800F0BFF9022001F0F9
:1019A0005BFE6806050E2021074800F0B6F9701CA2
:1019B000C6B2082EDFDB0A2001F04EFE20210248CD
:1019C00000F0A9F970BD000000080140014609B906
:1019D00009487047012901D10020FAE7022901D105
:1019E0000648F6E7032901D10020F2E7042901D1D6
:1019F0000020EEE70020ECE7F40100201C0A0020A4
:101A000008B525208DF8000000208DF80200012087
:101A10008DF80300684600F061FB27208DF8000078
:101A200002208DF8020001208DF80300684600F0C6
:101A300055FB08BD10B500241948006820F0F000DF
:101A4000174908600846006840F08000086004E01C
:101A5000601CC4B2012001F0FFFD4FF4007110487A
:101A6000001F00F04FF908B16E2CF1DB642C01DB94
:101A7000012010BD002404E0601CC4B2012001F06C
:101A8000EBFD4FF400710648001F00F03BF908B968
:101A9000642CF1DB642C01DB0120EAE70020E8E79D
:101AA000040C014010B5002404E0601CC4B2012005
:101AB00001F0D2FD4FF40071104800F023F908B195
:101AC000642CF2DB002404E0601CC4B2012001F0AD
:101AD000C3FD4FF40071094800F014F908B9642CF3
:101AE000F2DB282001F0B8FD4FF40071034800F04C
:101AF00009F908B1012010BD0020FCE7000C0140ED
:101B000070B50024002506E06006040EFFF7CAFF4A
:101B10000443681CC5B2082DF6DB204670BD0000EA
:101B200038B5044600F042F8FFF784FF002821D1C1
:101B3000002504E0FFF7E4FF6055681CC5B2052DE1
:101B4000F8DB207861780844A1780844E1780844FB
:101B5000C0B22179884204D008A001F015F9012013
:101B600038BDE0780090A378627821780AA001F06F
:101B70000BF901E00120F3E70020F1E75265616411
:101B8000204461746520436865636B204572726F01
:101B900072210D0A00000000483A25642E25643B9E
:101BA00020543A25642E25642E0D0A0010B50E48E7
:101BB000006820F0F0000C4908600846006840F01A
:101BC0003000086049150848001F00F0A4F81420F0
:101BD00001F01CFD4FF400710348001F00F09DF858
:101BE0001E2001F039FD10BD040C014070472DE9A5
:101BF000F041024600250026002000230024002793
:101C000091F803C00CF00F0591F803C00CF0100C14
:101C1000BCF1000F03D091F802C04CEA050591F821
:101C200000C0BCF1000F31D0146800202BE04FF051
:101C3000010C0CFA00F3B1F800C00CEA03069E4256
:101C400020D183004FF00F0C0CFA03F7BC4305FAC8
:101C500003FC4CEA040491F803C0BCF1280F06D140
:101C60004FF0010C0CFA00FCC2F814C00AE091F825
:101C700003C0BCF1480F05D14FF0010C0CFA00FC79
:101C8000C2F810C0401C0828D1D31460B1F800C0BD
:101C9000BCF1FF0F34DD546800202EE000F1080C89
:101CA0004FF0010808FA0CF3B1F800C00CEA030683
:101CB0009E4221D183004FF00F0C0CFA03F7BC4376
:101CC00005FA03FC4CEA040491F803C0BCF1280FA8
:101CD00005D100F1080C08FA0CF8C2F8148091F84C
:101CE00003C0BCF1480F07D100F1080C4FF0010808
:101CF00008FA0CF8C2F81080401C0828CED35460B3
:101D0000BDE8F0810246002093680B400BB1012032
:101D100000E000207047416170470161704700009A
:101D200070B5022000F074FB002000F099FB1E202B
:101D300001F092FCFFF79EFC044604F00100F0B1B4
:101D4000FFF7F0FC0E490860FFF7B2FC0D49086090
:101D50000B4800880A2190FBF1F201FB12050848AC
:101D6000008890FBF1F62A46314607A001F00CF8F6
:101D70000448016809A001F007F8FFF7CDFD70BD28
:101D8000680100206C01002041CFE0B5E7D1B9D651
:101D9000B53D25642E25645609000000B5B1C7B0D5
:101DA000B5E7C1F7A3BA2564206D610D0A000000F4
:101DB000014605E00A2001E0421ED0B20028FBDC0B
:101DC0000A1EA1F1010399B2F4D1704700BFFEE7EA
:101DD00010B500F0F9F901F077FB01F0F5FB4FF4D5
:101DE000FA7001F013FC00F0F1F801F001FB01F0D2
:101DF0007BFB14A000F0C8FF01211CA000F0C4FF71
:101E00002048016820A000F0BFFF4FF4FA7001F0F5
:101E1000FDFBFEF7BBFDFEF76DFC01F0A3FAFEF73C
:101E20001DFDFEF7E1FCFFF74BF80020FFF7B4FCC7
:101E300040F2CF21632000F0C9FCFEF715FC01F051
:101E4000C3FA10BD0D0A5374617274696E67205530
:101E5000702E2E2E0D0A4A4F534F4E472D58533099
:101E6000332056332E302E2E2E0D0A0056657273F7
:101E7000696F6E4E6F3A20253032582E2E2E0D0A85
:101E8000000000008401002053797374656D436F76
:101E90007265436C6F636B3A2025642E2E2E0D0AFB
:101EA0000000000000B585B00121052000F06CF9AC
:101EB0000121880300F068F94FF40070ADF81000BC
:101EC00018208DF8130003208DF8120004A93B4858
:101ED000FFF78DFE4FF48060ADF8100004208DF800
:101EE000130004A93548FFF782FE4FF4E13000905B
:101EF0000020ADF80400ADF80600ADF80800ADF81C
:101F00000C000C20ADF80A0069462D4800F08CFD4D
:101F1000012240F225512A4800F061FD01212848A4
:101F200000F027FD4021264800F01AFD012109207C
:101F300000F02AF90121880400F016F94FF48060BE
:101F4000ADF8100018208DF8130003208DF8120052
:101F500004A91C48FFF74BFE4FF40060ADF81000D9
:101F600004208DF8130004A91648FFF740FE04A9C9
:101F70001448FFF73CFE4FF4965000900020ADF857
:101F80000400ADF80600ADF80800ADF80C000C2018
:101F9000ADF80A0069460C4800F046FD012240F207
:101FA0002551094800F01BFD0121074800F0E1FC24
:101FB0004021054800F0D4FC05B000BD00080140F8
:101FC00000380140000C01400048004008B50121E4
:101FD000042000F0D9F81020ADF800008DF80300BF
:101FE00003208DF8020069460148FFF700FE08BD96
:101FF000000801400448806800F0010008B9012091
:1020000070470020FCE70000001001400448806891
:1020100000F4004008B9012070470020FCE70000F0
:10202000001001400448806800F4804008B9012095
:1020300070470020FCE70000001001400448806861
:1020400000F4005008B9012070470020FCE70000B0
:102050000010014010B50446074800882043064997
:1020600008800846018805A000F08EFE024800881E
:10207000FEF714FC10BD00005A010020675F4C659C
:102080006453686F774461743A20253032582E2E9D
:102090002E0D0A0010B5044607480088A0430649E3
:1020A00008800846018805A000F06EFE02480088FE
:1020B000FEF7F4FB10BD00005A010020675F4C657D
:1020C0006453686F774461743A20253032582E2E5D
:1020D0002E0D0A0000BFFEE77047000070B500211A
:1020E00000230F22C47804B3154C246804F4E06480
:1020F000C4F5E064210AC1F10403CA40447804FA3B
:1021000003F184781440214309010E4C0678A1554F
:10211000047804F01F050124AC4005786D11AD0072
:1021200005F1E025C5F8004109E0047804F01F0539
:102130000124AC40044D0678761145F8264070BD68
:102140000CED00E000E400E080E100E070470000FA
:1021500001460020034A506820F440400843506084
:10216000704700000010024029B1064AD2690243BC
:10217000044BDA6104E0034AD2698243014BDA611D
:10218000704700000010024029B1064A92690243DC
:10219000044B9A6104E0034A92698243014B9A61BD
:1021A000704700000010024029B1064AD26802437D
:1021B000044BDA6004E0034AD2688243014BDA60E0
:1021C00070470000001002407047000030B5002149
:1021D0000022002400232D4D6D6805F00C0121B173
:1021E000042905D0082923D105E0294D056022E006
:1021F000274D05601FE0254D6D6805F47012234DD5
:102200006D6805F48034022505EB92421CB9214D1E
:10221000554305600BE01D4D6D6805F400351DB19B
:102220001C4D5543056002E0194D5543056002E021
:10223000174D056000BF00BF144D6D6805F0F0013B
:102240000909154D6B5C0568DD4045600F4D6D68F3
:1022500005F4E061090A104D6B5C4568DD4085605E
:102260000A4D6D6805F46051C90A0B4D6B5C4568F9
:10227000DD40C560054D6D6805F44041890B074D93
:102280006B5CC568B5FBF3F5056130BD001002401D
:1022900000127A0000093D0070010020800100203A
:1022A00008B501210820FFF76FFF03208DF8020019
:1022B00010208DF803000220ADF8000069460448A4
:1022C000FFF795FC022002491431086008BD0000A8
:1022D000000C014038B500254CE06946022001F0B1
:1022E0004DF9002844D02548007800F080000028EF
:1022F0003ED19DF800002249204A127888541F4898
:102300000078401C1D490870084600780A2801DD45
:102310000020087019480078401E1949085CF2280E
:102320000DD116480078032809DAF2211348007805
:10233000401E134A115401201049087018E010483B
:1023400040780E490978884212DC06210C48FFF7D4
:102350005FF804460A488079A04206D10748007811
:1023600040F080000549087002E000200349087031
:10237000681C85B2B5F5806FAFDB38BD3D0100202C
:10238000C801002070470000022001490860704722
:10239000100C014070B504460D4602200549086046
:1023A0002A46214601F0F9F802200249091F086077
:1023B00070BD0000140C01403EB504460DA207CAD2
:1023C0008DE8070020788DF8020060788DF8030012
:1023D000A0788DF80400E0788DF8050006216846A5
:1023E000FFF716F88DF806009DF801106846FFF714
:1023F000D1FF3EBDF1090100000000030200000012
:102400000220014908607047140C01407047000029
:1024100010B5044624B1012C0BD0022C1BD111E0C5
:1024200040210E48FFF777FC80210C48FFF773FC32
:1024300012E040210948FFF770FC80210748FFF7B0
:102440006AFC09E040210548FFF765FC802103484C
:10245000FFF763FC00E000BF00BF10BD000C0140AF
:1024600010B5044624B1012C0CD0022C1ED113E06F
:102470004FF400410F48FFF74EFC04210E48FFF7D0
:102480004CFC14E04FF400410A48FFF746FC0421DD
:102490000948FFF740FC0AE04FF400410548FFF708
:1024A0003AFC04210448FFF736FC00E000BF00BFFF
:1024B00010BD0000000801400014014010B500F0FC
:1024C00001F810BD0CB50020019000903348006861
:1024D00040F480303149086000BF3048006800F4A3
:1024E000003000900198401C0190009818B90198A4
:1024F000B0F5A06FF1D12948006800F4003010B1A8
:102500000120009001E0002000900098012843D1B4
:102510002348006840F01000214908600846006820
:1025200020F0030008600846006840F002000860E0
:102530001A4840681949486008464068486008469B
:10254000406840F4806048600846406820F47C1091
:1025500048600846406840F4E81048600846006853
:1025600040F08070086000BF0C48006800F0007008
:102570000028F9D00948406820F003000749486066
:102580000846406840F00200486000BF03484068C9
:1025900000F00C000828F9D10CBD0000001002402A
:1025A00000200240042808D14FF0E021096941F0E1
:1025B00004014FF0E022116107E04FF0E0210969CA
:1025C00021F004014FF0E0221161704710B500F0D6
:1025D00001F810BD10B5002406E0114901EBC4005C
:1025E00000F0A8FF601CC4B2042CF6DB0D480068A4
:1025F000401C0C490860084600686FF000418842A2
:1026000002D100200749086007480078401CC0B28A
:10261000054908700A2801DB0020087010BD000081
:10262000980100201C0100202001002010B5134853
:10263000006840F0010011490860084640681049F0
:1026400008400E494860084600680E4908400B499A
:1026500008600846006820F480200860084640684A
:1026600020F4FE0048604FF41F008860FFF726FF4B
:102670004FF000600449086010BD000000100240E7
:102680000000FFF8FFFFF6FE08ED00E010B5374848
:10269000007800F08000002862D10121880700F056
:1026A000D7F8A8B13148007800F0400080B12F4839
:1026B000007800F03F003F2805D100202B4908702A
:1026C0002B49088004E029480078401C27490870FD
:1026D0000221480700F0BCF8002841D023480078C8
:1026E00000F0400040282CD12048007840F08000C5
:1026F0001E4908704FF0804000F0A7F81C49088080
:102700000221480700F0BEF819480088262814DD89
:10271000174800883E2810DA14480078C0280CD1E9
:1027200014480078AA2805D113480078401C1249A3
:10273000087002E000201049087000200B49087062
:102740000EE000200A490880402008490870002156
:10275000000600F0A0F800214FF0804000F092F851
:1027600003214FF0804000F061F810BD12000020FE
:1027700014000020090000200A00002010B50121EB
:10278000104800F065F8D8B10F480078C82802DD7D
:1027900000200D4908700C480078401C0A49087058
:1027A000FFF718FF084800780A2190FBF1F201FBBF
:1027B000120008B900F0A2FE0121024800F036F82C
:1027C00010BD000000040040100000207FB5054649
:1027D0000C4601210220FFF7C7FCADF80850ADF808
:1027E00004400020ADF80A00ADF8060001A90E482B
:1027F00000F054F8012211460B4800F03AF81D2071
:102800008DF8000000208DF8010003208DF80200F3
:1028100001208DF803006846FFF760FC01210248A3
:1028200000F007F87FBD000000040040CA430282A8
:10283000704721B1028842F00102028004E0028860
:102840004FF6FE731A40028070470146888E70472B
:1028500030B50246002000230024158A05EA010352
:10286000958905EA010413B10CB1012000E00020B4
:1028700030BD1AB183890B43838102E083898B4386
:10288000838170470A460021018C4FF6FD73194081
:102890001143018470478184704700000022028840
:1028A0001D4B98420ED01D4B98420BD0B0F1804F7B
:1028B00008D01B4B984205D01A4B984202D01A4BB5
:1028C000984204D14FF68F731A404B881A43174B26
:1028D000984207D0164B984204D04FF6FF431A4057
:1028E000CB881A4302808B8883850B8803850A4B2B
:1028F00098420BD0094B984208D00E4B984205D015
:102900000D4B984202D00D4B984201D10B7A0386B1
:102910000123838270470000002C014000340140F5
:102920000004004000080040000C0040001000407F
:1029300000140040004001400044014000480140B4
:1029400010B5024800F02DF910BD0000F401002080
:1029500010B5024800F025F910BD00001C0A002047
:1029600001F40072B2F5007F00D100BFCA430280BB
:10297000704721B1828942F40052828104E0828949
:102980004DF6FF731A408281704770B502460024ED
:1029900000230025002040F66A16B14200D100BF96
:1029A000C1F3421501F01F03012606FA03F3012DBE
:1029B00002D19689334006E0022D02D1168A3340B7
:1029C00001E0968A33400C12012606FA04F41688B8
:1029D000344013B10CB1012000E0002070BDF0B50F
:1029E0000346002400260025002040F66A17B9425D
:1029F00000D100BF1846C1F3421401F01F060127A1
:102A000007FA06F5012C01D10C3004E0022C01D1AB
:102A1000103000E014301AB107682F43076002E05D
:102A20000768AF430760F0BD2DE9F04786B0054663
:102A30000E460024A24600BFA1460027B08900B17F
:102A400000BF2F462C8A4CF6FF700440F0880443E8
:102A50002C82AC894EF6F3100440B08831890843CB
:102A6000718908430443AC81AC8A4FF6FF400440AF
:102A7000B0890443AC8201A8FFF7A8FB1F48874236
:102A800002D1DDF810A001E0DDF80CA0A88900F467
:102A9000004040B10AEBCA0000EB0A10316849005F
:102AA000B0FBF1F807E00AEBCA0000EB0A1031684E
:102AB0008900B0FBF1F86420B8FBF0F004012009B4
:102AC000642101FB1089A88900F4004040B1322044
:102AD00000EBC900B0FBF1F000F00700044308E090
:102AE000322000EB09106421B0FBF1F000F00F0080
:102AF00004432C8106B0BDE8F08700000038014097
:102B000001468888C0F308007047C1F3080282803C
:102B10007047000010B586B0002401AA00210B48C0
:102B2000FEF7E2FB0A480078AA280CD000BF05E0B7
:102B30000DF10F00005D07490855641C082CF7DBF8
:102B4000AA200349087006B010BD000000640040D0
:102B5000080000200000002070B504460D4601204A
:102B600000F034F9668B002000F030F90EB9002037
:102B700070BD218BA068405C2870012000F026F910
:102B8000208B401C80B22083E189884201DB002039
:102B90002083608B401E6083002000F017F9012025
:102BA000E6E770B5044640F225512068FFF7EDFED8
:102BB000E0B12068FFF7A4FFC5B2E18AA0684554E0
:102BC000E08A401C80B2E082E189884201DB00207B
:102BD000E082608BE189884202DA608B401C60836E
:102BE000606A10B12846616A884700BF40F22771C9
:102BF0002068FFF7CAFE08B3A08A60B9002240F23D
:102C000027712068FFF7EBFE012240F22661206861
:102C1000FFF7E5FE37E0638A6268D15C2068FFF762
:102C200074FF608A401C80B26082A189884201DB07
:102C300000206082A08A401EA08224E040F226612B
:102C40002068FFF7A2FEF0B1A08A50B9002240F23E
:102C500026612068FFF7C3FE206AA0B1206A804782
:102C600011E0638A6268D15C2068FFF74EFF608ADA
:102C7000401C80B26082A189884201DB0020608212
:102C8000A08A401EA08270BD2DE9F04104460E4688
:102C90001746002527E00CE0012000F097F8B4F873
:102CA0001480002000F092F8A089404500DD01E08A
:102CB00000BFF1E700BF705D228A6168885401207F
:102CC00000F084F8208A401C80B22082A1898842CA
:102CD00001DB00202082A08A401CA082002000F09E
:102CE00075F8681C85B2BD42D5DB012240F2277120
:102CF0002068FFF774FEBDE8F08100001648174910
:102D0000086017484860174888604FF480608881E1
:102D1000C881002008824882C8820883488388824C
:102D2000C86108624862104810490860104848604D
:102D3000104888604FF480608881C8810020088234
:102D40004882C8820883488388820B48C8610B4840
:102D500008620B484862704700380140F4010020C7
:102D60001C0200201C060020004800401C0A002015
:102D7000440A0020440E0020892300080124000892
:102D80008523000800BFFEE70FB4054B10B503A96B
:102D9000044A029800F01EF810BC5DF814FB000015
:102DA000A53600084001002002E008C8121F08C133
:102DB000002AFAD170477047002001E001C1121FBC
:102DC000002AFBD1704780F31088704780F3108889
:102DD000704700002DE9FF4F8DB00F4605460026D5
:102DE00006E025280BD0DDE90F1290476D1C761CFC
:102DF00028780028F5D111B03046BDE8F08F0024C6
:102E0000A246A1460122EC4900E0044315F8013F27
:102E1000203B02FA03F00842F7D128782A2810D084
:102E20006FF02F022878A0F13001092914D80AEB9D
:102E30008A0102EB410144F0020400EB010A6D1C1F
:102E4000F0E701CF5FEA000A03D544F40054CAF169
:102E5000000A44F002046D1C28782E2817D115F8BA
:102E6000010F44F004042A280ED06FF02F022878B6
:102E7000A0F1300109290AD809EB890102EB4101CF
:102E800000EB01096D1CF2E757F8049B6D1C2878D4
:102E90006C280FD006DC4C2817D068280DD06A2883
:102EA00014D104E0742810D07A280FD10DE044F436
:102EB00000140AE044F4801401E044F440146978FA
:102EC000814202D104F580146D1C6D1C2A786E2A93
:102ED0001FD00CDC632A31D004DC002A8BD0582AA6
:102EE00011D1A3E0642A68D0692A0CD165E0732A65
:102EF0002ED004DC6F2A73D0702A04D19BE0752A8F
:102F00006FD0782A6ED01046DDE90F129047761CFC
:102F100050E1C4F30250022806D0032809D0042847
:102F200001CF09D0066045E101CFF117C0E900618A
:102F300040E101CF06803DE106703BE117F8040B4C
:102F40008DF8000000208DF80100EB46012003E021
:102F500057F804BB4FF0FF3061074FF0000102D477
:102F60000DE008F10101884649450FDA8045F8DB9C
:102F70001BF808100029F4D108E008F10101884687
:102F80008142FADB1BF808100029F6D1DDE90F2396
:102F9000AAEB08008146214600F036F9304400EBE8
:102FA000080604E0DDE90F121BF8010B9047B8F1A9
:102FB0000108F7D221464846F7E00A21C4F302533C
:102FC0004FF0000B0891022B04D001CFC117032B47
:102FD00009D00AE0FF1D27F00707F7E8020108E023
:102FE00032E01FE020E000B2C117042B01D140B253
:102FF000C117031E71F1000307DA4FF0000CD0EB8C
:103000000C006CEB01012D2302E0230504D52B23DA
:103010008DF82430012303E0E30701D02023F7E7F4
:10302000984658E00A2110E010210EE010204FF0E1
:10303000000B08900CE010214FF0000B44F004044A
:103040004FF00809089103E008214FF0000B0891A8
:10305000C4F30253022B04D001CF0021032B06D06E
:1030600006E0FF1D27F00707F7E8020103E080B242
:10307000042B00D1C0B24FF0000823072BD5702AD3
:1030800007D0DDF820C08CF0100C5CEA0B0C05D0EA
:103090000EE040238DF82430012308E050EA0103BC
:1030A00006D030238DF824308DF825200223984651
:1030B000DDF820C08CF0080C5CEA0B0C0BD150EA58
:1030C000010301D1630706D530238DF824304FF07A
:1030D0000108A9F10109582A04D038A20B9208AAC4
:1030E0000A920BE03AA2F9E75B46089AFDF71AF953
:1030F0000B9B9B5C0A9A521E0A92137050EA0102C3
:10310000F2D10A98ADEB000000F1200B600702D568
:1031100024F4803401E04FF00109D94502DDA9EB28
:103120000B0000E0002000EB0B0141440890AAEBEB
:10313000010AE00306D4DDE90F232146504600F0E2
:1031400063F806444FF0000908E009A911F80900E6
:10315000DDE90F12904709F10109761CC145F4DB46
:10316000E0030CD5DDE90F232146504600F04CF872
:10317000064404E0DDE90F1230209047761C0899E0
:10318000481E08900029F5DC08E00A980A990078A2
:10319000491C0A91DDE90F129047761CBBF1000132
:1031A000ABF1010BF1DC21465046DDE90F2300F0C5
:1031B00019F806446D1C1BE6092801003031323332
:1031C0003435363738396162636465660000000063
:1031D000303132333435363738394142434445464D
:1031E000000000002DE9F041044600251E46174668
:1031F000880404D405E039462020B0476D1C641EC5
:10320000F9D52846BDE8F0812DE9F04104460025B6
:103210001E469046C80301D5302700E020278804C9
:1032200004D505E041463846B0476D1C641EF9D50B
:103230002846BDE8F08100000146042901DB00209A
:103240007047074800EBC1000079012806D1002033
:10325000034A02EBC10210710120F1E70020EFE701
:103260009801002070B50546304800EB0514206831
:10327000804700283ED02079052802DA05202071F9
:1032800052E020790A2803DA2079401C20714BE0B3
:10329000A07A38B90120A07205EB4501491CC8B2DB
:1032A00000F038F9208900283EDDE0882189884235
:1032B0000DDAE088401C80B2E0802189884233D159
:1032C00005EB4501C91CC8B200F024F92CE0E07AF6
:1032D000002829DD207B401CC0B22073E17A88429F
:1032E00022DB0020207305EB4501491CC8B200F029
:1032F00011F919E02079052802DD0520207110E080
:10330000207918B12079401E20710AE0A07A0128A6
:1033100007D10020A07205EB4501891CC8B200F05E
:10332000F9F80020E080207370BD00008C130020AD
:103330000B4800790A4A5279904201D10020704727
:1033400007480079064A115C10460079401CC0B25B
:103350001071042801DB002010710846EFE700001F
:103360005201002008B501211420FEF70DFF4FF493
:10337000E050ADF8000010208DF8030003208DF818
:10338000020069460E48FEF732FC04210D48FEF7A4
:10339000C4FC08210B48FEF7C0FC0C20ADF800006F
:1033A00010208DF8030069460648FEF720FC042132
:1033B0000448FEF7B2FC08210248FEF7AEFC08BD47
:1033C00000100140000801400020074981F8A000DA
:1033D00081F8A10081F8A200044981F8A00081F8D9
:1033E000A10081F8A2007047E712002044120020DB
:1033F00010B500F031F800F001F810BD08B501215A
:103400001020FEF7C1FE03208DF8020004208DF885
:1034100003000120ADF8000069460E48FEF7E7FB07
:103420004FF40040ADF8000069460A48FEF7DFFBA4
:103430004FF48040ADF8000069460648FEF7D7FB20
:103440004FF40050ADF8000069460248FEF7CFFB8C
:1034500008BD0000001001400021154A1171517192
:103460009171002018E03221124A02EB0012118102
:103470000221104A02EB0012117100210D4A02EBE9
:10348000001291720B4A02EB0012D172094A02EB50
:1034900000121173411CC8B20428E4DB0649054A36
:1034A00011600649116106491162064911637047AE
:1034B000520100208C130020F51F00080D20000889
:1034C000252000083D200008002008E00021054AD2
:1034D00042F8301002EBC0021171411CC8B204283E
:1034E000F4DB70479801002010B5FFF707FCFEF7EA
:1034F000D9FCFEF7D5FEFEF783FA10BD10B5002407
:1035000004E02046FFF7AEFE601CC4B2042CF8DBDA
:1035100010BD000006494979054A505411464979C1
:10352000491CC9B25171042901DB00215171704756
:1035300052010020017939B9016829B10168491E99
:10354000016009B9012101717047000070B504469E
:103550000D46042C00DB70BD0120FFF734FC06484B
:1035600040F834500020044901EBC4010871FFF712
:103570002AFC00BFEFE700009801002070B5054667
:103580000E462846FEF722FA04460CB9002070BD0C
:1035900031462046FFF7E0FAF9E72DE9F04105460C
:1035A0000E4617462846FEF711FA04460CB9BDE848
:1035B000F081E06908B1E06980473A46314620462B
:1035C000FFF762FB00BFF2E710B56FF00400FEF7F3
:1035D000E9FF0A4800680A49B0FBF1F009490870A0
:1035E0000846007800EB4001C1EBC0104FF6FF71B8
:1035F00001EAC0000449088010BD000084010020D9
:1036000000127A0016000020180000200146114A1E
:1036100012884A434FF0E0235A6100229A611A4609
:10362000126942F001021A6100BF4FF0E0221069F6
:1036300000F001021AB100F48032002AF5D04FF0F8
:10364000E022126922F001024FF0E0231A61002209
:103650009A617047180000200146114A12784A43C7
:103660004FF0E0235A6100229A611A46126942F033
:1036700001021A6100BF4FF0E022106900F0010260
:103680001AB100F48032002AF5D04FF0E02212691E
:1036900022F001024FF0E0231A6100229A61704784
:1036A0001600002000BF054A128802F04002002ADE
:1036B000F9D0C2B2014B1B1D1A807047003801407F
:1036C0008AB000200890099056A000680790002555
:1036D0000024FEF7ABFFFEF77BFB00210120FDF786
:1036E00085F900204B23022203210090FDF730FDD5
:1036F0004DA0FFF749FB5548FFF746FBC8210120C5
:10370000FFF724FF40F6FF70FEF7A4FC04215048A9
:10371000FEF701FB08214E48FEF7FDFA81E0FDF7B8
:103720005BFE0120FFF788FD00287AD0C821012028
:10373000FFF70CFF092D02DA681CC5B200E0002576
:10374000FFF7F6FD0446002C47D00C2C43D2DFE8EF
:1037500004F006070E421218421C23422A363BE0B0
:1037600008A8FEF7DDF93BA0FFF70EFB34E03DA013
:10377000FFF70AFB30E03FA0FFF706FBFEF7D0FAA9
:103780002AE040A0FFF700FB26E00820FEF782FCBD
:1037900040A0FFF7F9FA1FE00820FEF75BFC41A00C
:1037A000FFF7F2FA18E043A0FFF7EEFAFF208DF8DA
:1037B0001C008DF81D0007A8FEF7FEFD0CE041A0DF
:1037C000FFF7E2FA00208DF81C008DF81D0007A815
:1037D000FEF7F2FD00E000BF00BFFEF77BFD3D48B5
:1037E000007800F0800080281BD100203949087043
:1037F0003948007A3849C979374A9279364B5B792A
:10380000CDE90232CDE90410334800793249C97854
:10381000CDE9001030488378427801782FA0FFF777
:10382000B3FA7CE7FF00FF0043414E5F4D6F6465D4
:103830005F496E69742C43414E5F426175643A2062
:1038400036304B6270732E2E2E0D0A001039000890
:103850000008014020204B45595F315F444F574ECF
:10386000210D0A0020204B45595F315F5550210D35
:103870000A00000020204B45595F325F444F574EED
:10388000210D0A0020204B45595F325F5550210D14
:103890000A00000020204B45595F335F444F574ECC
:1038A000210D0A0020204B45595F335F5550210DF3
:1038B0000A00000020204B45595F345F444F574EAB
:1038C000210D0A0020204B45595F345F5550210DD2
:1038D0000A0000003D010020C80100205253343886
:1038E000353A253032582530325820253032582587
:1038F0003032582530325820253032582025303289
:10390000582025303258253032582E0D0A0000003C
:103910002D2D2D2D2D2D2D2D2D2D2D2D2D2D2D2DD7
:103920002D2D2D2D2D2D2D2D2D2D2D2D2D2D2D2DC7
:103930002D2D2D2D2D2D2D2D2D2D2D2D2D2D2D2DB7
:103940002D2D2D2D2D2D2D2D2D2D2D2D2D2D2D2DA7
:103950002D2D2D0D0A0000007839000800000020F0
:103960009801000012050008B03A000898010020F4
:1039700038320000B82D0008011B00FF005EBCE2D9
:10398000613FDD83C29C7E20A3FD1F419DC3217F3B
:10399000FCA2401E5F01E3BD3E6082DC237D9FC12F
:1039A000421CFEA0E1BF5D0380DE3C62BEE0025C23
:1039B000DF81633D7C22C09E1D43A1FF4618FAA40F
:1039C00027799BC584DA3866E5BB5907DB856739FB
:1039D000BAE406581947A5FB7826C49A653BD987EF
:1039E000045AB8E6A7F91B45C6987A24F8A6441AE3
:1039F00099C7257B3A6486D85B05E7B98CD2306ECF
:103A0000EDB3510F4E10F2AC2F7193CD114FADF3BA
:103A1000702ECC92D38D6F31B2EC0E50AFF1134DAE
:103A2000CE90722C6D33D18F0C52B0EE326C8ED0A2
:103A3000530DEFB1F0AE4C1291CF2D73CA9476288E
:103A4000ABF517490856B4EA6937D58B5709EBB57A
:103A500036688AD495CB2977F4AA4816E9B7550B6E
:103A600088D6346A2B7597C94A14F6A8742AC89662
:103A7000154BA9F7B6E80A54D7896B021235C01165
:103A80003F065B4F666D7D077F6F777C395E79718E
:103A90002AFF010523F129321D2D01020304041020
:103AA000090607080902040608ACA24A041C2918E2
:0400000508000131BD
:00000001FF
