:020000040800F2
:100000002834002045010008CD250008752100088E
:10001000C9250008DD100008D543000800000000D5
:100020000000000000000000000000000133000894
:100030007D1D000800000000412600082D3B00083F
:100040005F0100085F0100085F0100085F01000810
:100050005F0100085F0100085F0100085F01000800
:100060005F0100085F0100085F0100085F010008F0
:100070005F0100085F0100085F0100085F010008E0
:100080005F0100085F0100085F0100085F010008D0
:10009000654100085F0100085F0100085F0100087A
:1000A0005F0100085F0100085F0100085F010008B0
:1000B000ED3B0008DD3C00085F0100085F0100081F
:1000C0005F0100085F0100085F0100085F01000890
:1000D0005F010008913F00085F010008A13F000890
:1000E0005F0100085F0100085F0100085F01000870
:1000F0005F0100085F0100085F0100085F01000860
:100100005F0100085F0100085F0100085F0100084F
:100110005F0100085F0100085F0100085F0100083F
:100120005F0100085F0100085F0100085F0100082F
:10013000DFF80CD000F0CEF900480047E54D00088C
:10014000283400200648804706480047FEE7FEE7BF
:10015000FEE7FEE7FEE7FEE7FEE7FEE7FEE7FEE777
:100160008D3B000831010008D2B201E000F8012BFC
:10017000491EFBD270470022F6E710B513460A4627
:1001800004461946FFF7F0FF204610BD80EA010241
:1001900010B502F00043400022D04A001FD0010EEB
:1001A00001EB1261C0F35600C2F3560240F40000A6
:1001B00042F40002A0FB022000047F39140400D0A6
:1001C000401C50EA124001D44000491EC2B20C0645
:1001D00004EBD010401C4008802A02D003E000202D
:1001E00010BD20F00100002900DA0020184310BDE6
:1001F0002DE9F04D81EA030404F0004B21F00045A5
:1002000014464FF0000A23F0004150EA050220D0C6
:1002100054EA01021DD0C5F30A570246C5F3130381
:10022000C1F31300C1F30A5640F4801543F4801360
:10023000A7EB0608101BD64608F2FD3873EB050045
:1002400002D308F1010801E092185B41B8F1000FF8
:1002500003DA00200146BDE8F08D00204FF4801144
:10026000064684460EE0171B73EB050705D3121BE9
:1002700063EB050306434CEA010C49084FEA3000E2
:1002800092185B4150EA0107EDD152EA030012D007
:1002900082EA040083EA0501084305D0101BAB4144
:1002A00006D20122002306E000224FF0004302E0C4
:1002B0006FF0010253101AEB06004CEB085110EBE3
:1002C0000A0041EB0B01BDE8F04D00F0A5B80EB5FA
:1002D00040F2334102910021CDE900110A460B465C
:1002E00000F0A9F803B000BD20F00040C10DC0F33C
:1002F000160040F400007F2901DA0020704796299B
:1003000003DCC1F19601C8407047963988407047B8
:1003100001F0004330B421F0004150EA010206D060
:100320000A0DA2F56072C1F31301002A02DC30BC91
:1003300000207047440F44EAC104C100E01830BCFB
:1003400000EBC25000F031B82DE9F05F0546002007
:1003500092469B4688460646814640241BE0284636
:1003600041464746224600F0D6F853465A46C01A40
:10037000914110D311461846224600F0BDF82D1ABF
:1003800067EB01084F4622460120002100F0B4F837
:1003900017EB00094E41201EA4F10104DFDC4846A2
:1003A00031462A464346BDE8F09F0029A8BF704762
:1003B000401C490008BF20F00100704710B4B0FA9B
:1003C00080FC00FA0CF050EA010404BF10BC704736
:1003D00049B1CCF1200421FA04F411FA0CF118BF50
:1003E000012121430843A3EB0C01CB1D4FEA00611F
:1003F0004FEA102042BF002010BC704700EBC350F2
:1004000010440029A4BF10BC7047401C490008BF1D
:1004100020F0010010BC704710B5141E73F10004E9
:1004200008DA401C41F1000192185B411A4301D1E6
:1004300020F0010010BD2DE9F04D92469B4611B110
:10044000B1FA81F202E0B0FA80F22032904600F078
:1004500053F804460F4640EA0A0041EA0B015346AE
:100460005A46084313D0114653EA010019D0C8F187
:100470004002504600F04FF805460E465046594699
:10048000424600F039F8084305D0012004E0204638
:100490003946BDE8F08D0020054346EAE0762C435E
:1004A00037430A986305E40AA0EB08000022FD0A1E
:1004B00044EA47540A3002D500200146E9E7010525
:1004C00010196941DDE9084500196941BDE8F04DA1
:1004D000A2E70000064C074D06E0E06840F001038B
:1004E00094E8070098471034AC42F6D3FFF724FE97
:1004F0001853000838530008202A04DB203A00FA79
:1005000002F1002070479140C2F1200320FA03F36A
:10051000194390407047202A04DB203A21FA02F068
:100520000021704721FA02F3D040C2F1200291402D
:1005300008431946704770B58C1810F8015B15F028
:10054000070301D110F8013B2A1106D110F8012B45
:1005500003E010F8016B01F8016B5B1EF9D12B076A
:1005600005D40023521E0DD401F8013BFAE710F820
:10057000013BCB1A921C03E013F8015B01F8015B0D
:10058000521EF9D5A142D8D3002070BD21B1826896
:1005900042F00102826003E0826822F00102826080
:1005A0007047000010B504461248844208D101216A
:1005B000401502F073F80021601502F06FF817E0A3
:1005C0000D48844208D10121001502F067F800218E
:1005D000201502F063F80BE00848844208D101219D
:1005E000C80302F05BF800214FF4004002F056F817
:1005F00010BD00000024014000280140003C0140E3
:10060000014600208A6802F004020AB1012000E0DD
:1006100000207047014600208A6802F008020AB1F3
:10062000012000E00020704730B502460020002382
:1006300050680F4C20400D790C6844EA0524204393
:10064000506090680B4C2040D1E902542C434D7906
:1006500044EA450420439060D06A20F470000C7C8A
:10066000641EE4B2234340EA0350D06230BD000070
:10067000FFFEF0FFFDF7F1FF816841F008018160A6
:100680007047816841F004018160704700B587B010
:1006900001214FF4017001F0F1FF4FF4004001F02F
:1006A000D1FF0220ADF8040000208DF8070001A959
:1006B000174801F00AFC1748FFF774FF002002906A
:1006C0008DF80C008DF80D004FF460200490002090
:1006D000059001208DF8180002A90E48FFF7A4FF2D
:1006E00001210C48FFF752FF0A48FFF7C5FF00BF82
:1006F0000848FFF78FFF0028FAD10648FFF7C1FF2F
:1007000000BF0448FFF77CFF0028FAD107B000BD06
:1007100000080140002401401FB50121082001F01C
:10072000ADFF4FF40070ADF8040010208DF8070005
:1007300003208DF8060001A91C4801F0C6FB01F05A
:10074000FDFA01F053FA18B919A003F091FE02E086
:100750001CA003F08DFE002405E001F0ADFA02A913
:100760000855601CC4B2052CF7DB9DF808009DF805
:10077000091008449DF80A1008449DF80B1008441D
:10078000C0B29DF80C10884203D014A003F070FE94
:100790000BE09DF80B0000909DF80A309DF80920B1
:1007A0009DF8081014A003F063FE1FBD000C01406B
:1007B00044485431315F496E6974204F4B212020E9
:1007C0002000000044485431315F496E697420456F
:1007D00072726F7221202020000000005265616457
:1007E000204461746520436865636B204572726FB5
:1007F00072210D0A00000000483A25642E25643B52
:1008000020543A25642E25642E0D0A0008B50121D6
:100810001C2001F033FF47F2C000ADF800001020AB
:100820008DF8030003208DF802006946114801F09D
:100830004CFB4FF40040ADF8000010208DF8030091
:1008400069460D4801F041FB0420ADF8000010207E
:100850008DF803006946094801F037FB4FF400406A
:10086000ADF8000048208DF803006946014801F00A
:100870002CFB08BD000C01400008014000140140A1
:1008800010B50446204604F053FA10BD10B50446D6
:10089000204604F073FA10BD08B50121102001F0C4
:1008A000EDFE4FF47070ADF8000010208DF80300DD
:1008B00003208DF802006946064801F006FB10206F
:1008C000ADF8000048208DF803006946014801F0AA
:1008D000FCFA08BD0010014010B50446204604F0A3
:1008E00027FA10BD10B50446204604F047FA10BDA3
:1008F00070B5044625464FF48061214801F079FB2C
:100900004FF400611E4801F074FB012001F024FC4B
:10091000002625E005F40040B0F5004F05D14FF466
:100920008051174801F067FB04E04FF480511448F0
:1009300001F05FFB012001F00FFC4FF40061104853
:1009400001F059FB012001F007FC4FF400610C4855
:1009500001F04FFB4FF6FF7000EA4505701CC6B270
:10096000102ED7DB4FF48061054801F044FB0120D5
:1009700001F0F2FB4FF48061014801F03AFB70BDD9
:100980000010014010B50821144801F034FB042187
:10099000124801F030FB0221104801F02CFB4020EE
:1009A00000F044FB08210D4801F025FBC02000F0B9
:1009B0003DFB002404E0002000F038FB601CC4B2C2
:1009C000102CF8DB0821054801F015FB802000F011
:1009D0002DFB0821014801F00EFB10BD0010014065
:1009E00008B50121102001F049FE0E20ADF80000ED
:1009F00010208DF8030003208DF80200694603489B
:100A000001F063FAFFF7BEFF08BD000000100140CF
:100A100001B581B00BE06420009004E09DF8000077
:100A2000401EC0B200909DF800000028F6DCBDF822
:100A30000400411E89B201910028ECD10CBD0000D8
:100A40002DE9F04104460D466D480078A04203D1DF
:100A50006C480068A8427DD069480078A04201D067
:100A6000FFF790FF6648047066480560402000F07C
:100A7000DDFA0821644801F0BEFAA12C1BD1C02088
:100A800000F0D4FA0F2000F0D1FA002000F0CEFAE6
:100A9000002607E0092000F0C9FA002000F0C6FA9D
:100AA000701CC6B2022EF5DB092000F0BFFA03204D
:100AB00000F0BCFA97E0C02000F0B8FA0A2095FBDD
:100AC000F0F100FB115051490F5C384600F0AEFACE
:100AD0000A2095FBF0F100FB11504C49085C07110E
:100AE000384600F0A3FA0A2095FBF0F00A2190FBAB
:100AF000F1F201FB120045490F5C384600F096FA0E
:100B00000A2095FBF0F00A2190FBF1F201FB1200A4
:100B10003E49085C0711384600F088FA642095FBCE
:100B2000F0F03A490F5C384600F080FA642095FBFB
:100B3000F0F03649085C0711384600F077FA6CB9D6
:100B40003349887D00F072FA3149897D082242EAF2
:100B5000211000E052E000F069FA44E0012C0BD1D2
:100B60002B49087800F062FA29490978082242EAFC
:100B7000211000F05BFA36E0022C0BD12449887872
:100B800000F054FA22498978082242EA211000F044
:100B90004DFA28E0032C0BD11D49087A00F046FAE3
:100BA0001B49097A082242EA211000F03FFA1AE0B4
:100BB000042C0BD11649487C00F038FA1449497CC2
:100BC000082242EA211000F031FA0CE0052C0AD18B
:100BD0000F49487B00F02AFA0D49497B082242EA76
:100BE000211000F023FA0821074801F004FA8B20B5
:100BF00000F01CFA0821044801F0FDF9BDE8F0817D
:100C0000300100203401002000100140345200085F
:100C1000445200082DE9F04106460C461546002EC8
:100C20007AD1FC480078A04203D1FB480068A84272
:100C300073D0F8480078A04201D0FFF7A3FEF54832
:100C40000470F5480560402000F0F0F90821F348F1
:100C500001F0D1F9C02000F0E9F90A2095FBF0F18C
:100C600000FB1150EE490F5C384600F0DFF90A2016
:100C700095FBF0F100FB1150E949085C071138467B
:100C800000F0D4F90A2095FBF0F00A2190FBF1F274
:100C900001FB1200E2490F5C384600F0C7F90A2058
:100CA00095FBF0F00A2190FBF1F201FB1200DC4908
:100CB000085C0711384600F0B9F9022C01D0052C68
:100CC00010D1642095FBF0F0D5490F5C384600F058
:100CD000ADF9642095FBF0F0D149085C0711384666
:100CE00000F0A4F900BFA01E0F287DD2DFE800F0BD
:100CF0000822391650678097AEC5DCF7F5F4F3008B
:100D0000C849887D00F092F9C649897D082242EAE7
:100D1000211000F08BF93FE14BE185E1C1490878F2
:100D200000F084F9BF490978082242EA211000F056
:100D30007DF931E1BB49087800F078F9B9490978C3
:100D4000082242EA211000F071F9B649887D00F0CE
:100D50006DF9B449897D082242EA211000F066F954
:100D60001AE1B049487800F061F9AE4949780822A3
:100D700042EA211000F05AF9AA49887D00F056F99C
:100D8000A849897D082242EA211000F04FF903E1C9
:100D9000A449087800F04AF9A2490978082242EAF1
:100DA000211000F043F99F49087800F03FF99D4970
:100DB0000978082242EA211000F038F9ECE099495C
:100DC000487800F033F997494978082242EA21101F
:100DD00000F02CF99349087800F028F99149097836
:100DE000082242EA211000E0D5E000F01FF9D3E02C
:100DF0008C49C87800F01AF98A49C978082242EA71
:100E0000211000F013F98749087800F00FF985499F
:100E10000978082242EA211000F008F9BCE0814973
:100E2000087800F003F97F490978082242EA211086
:100E300000F0FCF87B49887800F0F8F87949897867
:100E4000082242EA211000F0F1F8A5E0754948783F
:100E500000F0ECF873494978082242EA211000F0CA
:100E6000E5F87049887800F0E1F86E498978082241
:100E700042EA211000F0DAF88EE06A49087800F0C2
:100E8000D5F868490978082242EA211000F0CEF826
:100E90006449087A00F0CAF86249097A082242EAED
:100EA000211000F0C3F877E05E49487800F0BEF802
:100EB0005C494978082242EA211000F0B7F8594904
:100EC000087A00F0B3F85749097A082242EA21105B
:100ED00000F0ACF860E047E02FE017E0FFE7514991
:100EE000087800F0A3F84F490978082242EA211057
:100EF00000F09CF84B49487C00F098F84949497C3F
:100F0000082242EA211000F091F845E0454948786E
:100F100000F08CF843494978082242EA211000F099
:100F200085F84049487C00F081F83E49497C082218
:100F300042EA211000F07AF82EE03A49087800F0F1
:100F400075F838490978082242EA211000F06EF855
:100F50003449887900F06AF832498979082242EAEE
:100F6000211000F063F817E02E49487800F05EF891
:100F70002C494978082242EA211000F057F8294903
:100F8000887900F053F827498979082242EA21102C
:100F900000F04CF800E000BF00BF08211F4801F03E
:100FA0002AF88B2000F042F808211C4801F023F8B1
:100FB0003AE0FF20174908700821184801F01BF893
:100FC0000421164801F017F80221144801F013F823
:100FD000402000F02BF80821104801F00CF8C02048
:100FE00000F024F8002000F021F8002000F01EF8A6
:100FF000002000F01BF8002000F018F8022C01D0AF
:10100000052C05D1002000F011F8002000F00EF8AA
:1010100069E600003001002034010020001001408A
:101020003452000844520008BDE8F08170B504460F
:101030000821124800F0DDFF00251CE004210F48C4
:1010400000F0D7FF04F0010020B102210B4800F0AE
:10105000D2FF03E00221094800F0CBFF0120FFF797
:10106000D7FC0421054800F0C6FF64100120FFF7FB
:10107000CFFC681CC5B2082DE0DB70BD001001403C
:1010800008B501210C2001F0F9FAA020ADF800000C
:1010900010208DF8030003208DF8020069460D48EA
:1010A00000F013FF3820ADF8000010208DF8030089
:1010B00003208DF802006946074800F006FF402033
:1010C000ADF8000048208DF803006946014800F0A3
:1010D000FCFE08BD00080140000C014000BFFEE717
:1010E00010B50021837A012202FA03F13D4A126809
:1010F00042F001023B4B1A603A4A1C3212688A43A2
:10110000384B1C331A60027BCAB9364A0C3212685B
:101110008A43344B0C331A604288C38842EA034343
:10112000304A4032847A42F834300288838842EA76
:1011300003432C4A4032847A02EBC4025360027BA0
:10114000012A19D1274A0C3212680A43254B0C3365
:101150001A604288038842EA0343224A4032847A72
:1011600042F83430C288838842EA03431D4A403241
:10117000847A02EBC4025360C27A3AB9194A121D4A
:1011800012688A43174B1B1D1A6006E0154A121D90
:1011900012680A43134B1B1D1A60028932B9114AA7
:1011A000143212688A430F4B14331A600289012AE1
:1011B00006D10C4A143212680A430A4B14331A60DF
:1011C000427B012A06D1074A1C3212680A43054BAA
:1011D0001C331A60034A126822F00102014B1A60A4
:1011E00010BD0000006600401AB143690B43436123
:1011F00002E043698B434361704730B502460020EB
:101200000023146824F002041460146844F00104FC
:10121000146000E05B1C546804F001041CB94FF634
:10122000FF74A342F6D1546804F001040CB9002005
:101230006CE08C79012C04D1146844F080041460B3
:1012400003E0146824F080041460CC79012C04D1EC
:10125000146844F04004146003E0146824F040046F
:1012600014600C7A012C04D1146844F0200414603A
:1012700003E0146824F0200414604C7A012C04D19B
:10128000146844F01004146003E0146824F010049F
:1012900014608C7A012C04D1146844F008041460A2
:1012A00003E0146824F008041460CC7A012C04D103
:1012B000146844F00404146003E0146824F0040487
:1012C00014608C78A407CD7844EA05640D7944EA6B
:1012D00005444D7944EA05540D886D1E2C43D461B4
:1012E000146824F001041460002300E05B1C5468BF
:1012F00004F001041CB14FF6FF74A342F6D1546808
:1013000004F001040CB1002000E0012030BD000019
:101310002DE9F04F89B006460F4690469946DDF814
:1013200048B04FF400742546DFF868A1012104207D
:1013300001F0A4F90121480601F090F9E000ADF8B0
:10134000200003208DF8220018208DF8230008A922
:10135000514800F0BAFDA000ADF8200048208DF8FB
:10136000230008A94C4800F0B0FD00208DF81A00B9
:101370008DF81B008DF81C0001208DF81D00002049
:101380008DF81E008DF81F008DF816B08DF81760CF
:101390008DF818808DF81970ADF8149005A93F48A4
:1013A000FFF72BFF00208DF80E0001208DF80F00B5
:1013B0008DF81000A54212D04FF6FF7000EA4410DD
:1013C000ADF804000020ADF806004FF6FF7000EA0B
:1013D0004510ADF808000020ADF80A0013E04FF604
:1013E000FF7000EA4410ADF804000020ADF80600DC
:1013F000CAF34F30ADF808004FF6FF7000EACA009C
:10140000001DADF80A000020ADF80C0001208DF899
:10141000110001A8FFF764FE4FF4807425460920EF
:101420008DF80E0001208DF80F008DF810004FF69A
:10143000FF7000EA4410ADF804000020ADF806008B
:101440004FF6FF7000EA4510ADF808000020ADF837
:101450000A00ADF80C0001208DF8110001A8FFF77B
:101460003FFE012202210D48FFF7BEFE14208DF839
:10147000000001208DF8010000208DF802000120FD
:101480008DF80300684601F0A3F8002009B0BDE81C
:10149000F08F000001F000180008014000640040D7
:1014A00010B500F5D87303EB01131B6803F00403B8
:1014B0001372137A53B900F5D87303EB01131B6849
:1014C00040F2FF7404EA5353136009E000F5D87347
:1014D00003EB01131B686FF0604404EAD30353600D
:1014E00000F5D87303EB01131B6803F0020353727A
:1014F00000F5D87303EB01135B6803F00F039372DD
:1015000000F5D87303EB01135B681B0AD37400F575
:10151000D87303EB01139B68D37200F5D87303EB08
:1015200001139B681C0A147300F5D87303EB0113B5
:101530009B681C0C547300F5D87303EB01139B6874
:101540001B0E937300F5D87303EB0113DB68D373A1
:1015500000F5D87303EB0113DB681C0A147400F563
:10156000D87303EB0113DB681C0C547400F5D873BB
:1015700003EB0113DB681B0E937421B9C36843F0BE
:101580002003C36003E0036943F02003036110BD3F
:1015900010B50B490978491CC9B2094A11700846AF
:1015A00001EBD0714910A0EB410121B91021054890
:1015B00000F021FD03E01021024800F01AFD10BDEB
:1015C000190000200008014010B50246002006E086
:1015D00013784340034CE05C521C4B1ED9B20029E7
:1015E000F6DC10BD2600002070B5044620211A4804
:1015F00000F001FD2021194800F0FBFC00251DE052
:10160000322003F0BBFB2021134800F0F2FC04F071
:10161000800020B18021104800F0EDFC03E0802123
:101620000D4800F0E6FC322003F0A8FB20210A4818
:1016300000F0E1FC6006040E681CC5B2082DDFDB7B
:10164000322003F09BFB8021034800F0D4FC2021D2
:10165000024800F0D0FC70BD00080140000C0140C1
:101660002DE9F041054688462021374800F0C1FCAD
:1016700005F0BF0500241DE0322003F07FFB202190
:10168000324800F0B6FC05F0800020B180212F48E0
:1016900000F0B1FC03E080212C4800F0AAFC3220CD
:1016A00003F06CFB2021294800F0A5FC6806050E1C
:1016B000601CC4B2082CDFDB8021244800F09BFCB6
:1016C000002632E00024002729E0322003F056FBF8
:1016D00020211E4800F08DFC072C04D180211B48DE
:1016E00000F087FC03E08021184800F084FC3220E1
:1016F00003F044FB7806070E4021144800F070FC0C
:1017000010B147F0010701E007F0FE0720210F4864
:1017100000F071FC322003F031FB601CC4B2082CD5
:10172000D3DB08F80670701CC6B2032ECADB322069
:1017300003F024FB8021054800F05DFC20210248D5
:1017400000F059FCBDE8F081000C014000080140A8
:101750002DE9F04106460F462021324800F049FCB1
:1017600000241DE0322003F009FB20212E4800F068
:1017700040FC06F0800020B180212B4800F03BFCAB
:1017800003E08021284800F034FC322003F0F6FA10
:101790002021254800F02FFC7006060E601CC4B204
:1017A000082CDFDB0025322003F0E8FA2AE017F8E6
:1017B000058000241FE0322003F0E0FA20211A48BF
:1017C00000F017FC08F0800020B18021164800F0DE
:1017D00012FC03E08021144800F00BFC322003F0DF
:1017E000CDFA2021104800F006FC4FEA48604FEA8D
:1017F0001068601CC4B2082CDDDB322003F0BEFA96
:10180000681CC5B2032DD2DB8021074800F0F3FB32
:101810002021044800F0EFFB322003F0AFFABDE8CE
:10182000F0810000000C01400008014010B50024C8
:101830000C491E20FFF714FF0A48007800F08000D2
:1018400070B10848007800F0030020B905484078DE
:1018500000F0700010B100F03BF901E044F0010429
:10186000204610BD600100202DE9FC4100200090C1
:101870000190002469461620FFF7F2FE9DF8020051
:101880008DF804009DF801008DF805009DF800001A
:101890008DF806000198FEF71AFD07464FF06042EA
:1018A0000B4BFEF7A5FC0546FEF732FD0446094941
:1018B0002046FEF76BFC044607492046FEF766FC0F
:1018C00004462046FEF710FD01900198BDE8FC811A
:1018D000FFFF6F410000104100007A442DE9FC41F8
:1018E00000200090019069461820FFF7B9FE9DF88E
:1018F00002008DF804009DF801008DF805009DF8A8
:1019000000008DF806000198FEF7E1FC07464FF055
:1019100060420C4BFEF76CFC0546FEF7F9FC0446F2
:1019200009492046FEF732FC044608492046FEF7E6
:101930002DFC04462046FEF7D7FC01900198BDE837
:10194000FC810000FFFF6F410080764400002041D1
:1019500010B5044610215C4800F04BFB0A2003F050
:10196000E7F91021584800F046FB002C54D0FF2026
:10197000564908704870FE208870FF20FFF7E8FE87
:101980000020524908700F204870A02088704A201B
:10199000FFF7DEFE00204D49087048708870642013
:1019A000FFF7D6FE00204949087048700120887072
:1019B0004020FFF7CDFEFF20444908704870887032
:1019C0005E20FFF7C5FE8020404908700020487067
:1019D00088707420FFF7BCFE00203C4908704870F6
:1019E00088707820FFF7B4FEFF20384908704870EF
:1019F000FE208870FF20FFF7ABFE2021324800F068
:101A0000F8FA0A2003F0BAF9E820FFF7EDFD2021EB
:101A10002D4800F0F0FA55E0FF202C49087048707E
:101A2000FE208870FF20FFF793FE002027490870F2
:101A30004870012088704020FFF78AFE002023496B
:101A400008704870602088706420FFF781FE0020D5
:101A50001E4908700F204870A02088704A20FFF7A8
:101A600077FEFF2019490870487088705E20FFF7E4
:101A70006FFE802015490870002048708020887013
:101A80007420FFF765FE00201049087048708870C8
:101A90007820FFF75DFEFF200C4908704870FE209B
:101AA0008870FF20FFF754FE2021074800F0A1FABC
:101AB0000A2003F063F9E820FFF796FD2021024891
:101AC00000F099FA10BD0000000C014060010020F8
:101AD00010B5FF2003490870487088705E2000F040
:101AE00003F810BD6001002070B506460D462021A8
:101AF0000B4800F07EFA0A2003F040F9304600F06F
:101B000011F8002404E0285D00F00CF8601CC4B259
:101B1000032CF8DB2021024800F06DFA70BD0000B4
:101B2000000C014070B50446254600261DE00A2041
:101B300003F024F92021124800F05BFA05F0800040
:101B400020B980210E4800F054FA03E080210C48AF
:101B500000F051FA022003F011F96806050E202169
:101B6000074800F048FA701CC6B2082EDFDB0A20D6
:101B700003F004F92021024800F03BFA70BD000098
:101B800000080140014609B909487047012901D1FF
:101B90000020FAE7022901D10648F6E7032901D11E
:101BA0000020F2E7042901D10020EEE70020ECE755
:101BB0004C020020740A002008B525208DF8000092
:101BC00000208DF8020001208DF80300684600F027
:101BD000FFFC27208DF8000002208DF80200012074
:101BE0008DF80300684600F0F3FC08BD10B5002432
:101BF0001948006820F0F00017490860084600689E
:101C000040F08000086004E0601CC4B2012003F0D2
:101C1000B5F84FF400711048001F00F0E1F908B169
:101C20006E2CF1DB642C01DB012010BD002404E0EC
:101C3000601CC4B2012003F0A1F84FF40071064803
:101C4000001F00F0CDF908B9642CF1DB642C01DB36
:101C50000120EAE70020E8E7040C014010B5002469
:101C600004E0601CC4B2012003F088F84FF4007156
:101C7000104800F0B5F908B1642CF2DB002404E050
:101C8000601CC4B2012003F079F84FF400710948D8
:101C900000F0A6F908B9642CF2DB282003F06EF8F6
:101CA0004FF40071034800F09BF908B1012010BD0A
:101CB0000020FCE7000C014070B50024002506E080
:101CC0006006040EFFF7CAFF0443681CC5B2082D66
:101CD000F6DB204670BD000070B5044600F02EF81B
:101CE000FFF784FFC0B9002504E0FFF7E5FF60556A
:101CF000681CC5B2052DF8DB207861780844A1780E
:101D00000844E1780844C0B22179884206D004A092
:101D100002F0AEFB012070BD0120FCE70020FAE7D5
:101D200052656164204461746520436865636B207B
:101D30004572726F72210D0A0000000010B50E4846
:101D4000006820F0F0000C4908600846006840F088
:101D50003000086049150848001F00F04AF91420B7
:101D600002F0E6FF4FF400710348001F00F043F952
:101D70001E2003F003F810BD040C01407047000062
:101D800008B500200090084800788DF8000006484B
:101D900040788DF80100044880788DF8020068468C
:101DA00000F0BAFE08BD0000220000200149C86012
:101DB000704700000020024030B5044604254FF46F
:101DC000302000F06FF80546042D17D10C4800694B
:101DD00040F002000A49086108464461006940F089
:101DE000400008614FF4302000F05CF805460448DC
:101DF000006941F6FD71084001490861284630BD7F
:101E00000020024004200B49C96801F0010109B11A
:101E100001200EE00749C96801F0040109B1022060
:101E200007E00449C96801F0100109B1032000E08E
:101E300004207047002002400348006940F0800001
:101E400001490861704700000020024070B5044657
:101E50000D460426F00200F025F80646042E11D1A6
:101E60000948006940F00100074908612580F00237
:101E700000F018F806460448006941F6FE71084073
:101E800001490861304670BD002002400248034904
:101E900048600348486070472301674500200240BE
:101EA000AB89EFCD00B502460423FFF7ABFF034635
:101EB00003E0FFF7A7FF0346521E012B01D1002AC2
:101EC000F7D102B90523184600BD2DE9F0410246BD
:101ED00000250026002000230024002791F803C0DD
:101EE0000CF00F0591F803C00CF0100CBCF1000FC2
:101EF00003D091F802C04CEA050591F800C0BCF18E
:101F0000000F31D0146800202BE04FF0010C0CFAC8
:101F100000F3B1F800C00CEA03069E4220D1830012
:101F20004FF00F0C0CFA03F7BC4305FA03FC4CEA24
:101F3000040491F803C0BCF1280F06D14FF0010C46
:101F40000CFA00FCC2F814C00AE091F803C0BCF11E
:101F5000480F05D14FF0010C0CFA00FCC2F810C07C
:101F6000401C0828D1D31460B1F800C0BCF1FF0FA9
:101F700034DD546800202EE000F1080C4FF0010819
:101F800008FA0CF3B1F800C00CEA03069E4221D116
:101F900083004FF00F0C0CFA03F7BC4305FA03FC67
:101FA0004CEA040491F803C0BCF1280F05D100F1FC
:101FB000080C08FA0CF8C2F8148091F803C0BCF1C0
:101FC000480F07D100F1080C4FF0010808FA0CF88F
:101FD000C2F81080401C0828CED35460BDE8F081C0
:101FE0000246002093680B400BB1012000E0002066
:101FF00070474161704701617047000070B55248F9
:10200000007801282DD1022001F0C4FA002001F04F
:10201000E9FA1E2002F0B2FE0A2407E0601EC4B2F4
:102020000A2002F085FEFFF701FC054605F00100DD
:1020300008B9002CF2DC002C0FDDFFF74FFC434900
:102040000860FFF711FC42490860FFF741FD3E4878
:102050000078401C3C4908706BE00020FFF778FCDA
:1020600067E03948007802282DD1012001F092FA6A
:10207000012001F0B7FA1E2002F080FE0A2407E0DA
:10208000601EC4B20A2002F053FEFFF7CFFB0546E4
:1020900005F0010008B9002CF2DC002C0FDDFFF781
:1020A0001DFC2A490860FFF7DFFB29490860FFF79C
:1020B0000FFD25480078401C2349087039E00020B6
:1020C000FFF746FC35E02048007803282ED1002099
:1020D00001F060FA022001F085FA1E2002F04EFEA7
:1020E000FFF7A4FB05460A2407E0601EC4B20A20DD
:1020F00002F01EFEFFF79AFB054605F0010008B945
:10210000002CF2DC002C0DDDFFF7E8FB0F49086026
:10211000FFF7AAFB0E490860FFF7DAFC01200A4925
:10212000087006E00020FFF713FC02E001200649DA
:102130000870064800880A2190FBF1F005490880E4
:1021400003480088488070BD740100206C010020A5
:1021500070010020A0010020014605E00F2001E0F1
:10216000421ED0B20028FBDC0A1EA1F1010399B285
:10217000F4D1704700BFFEE710B500F09FFA02F0FF
:1021800023FD02F0B3FD4FF4FA7002F0D1FD00F030
:10219000FBF802F0A1FC02F027FD19A002F068F99B
:1021A000012121A002F064F92548016825A002F070
:1021B0005FF9642002F0BCFDFEF712FC0021A120B3
:1021C000FEF73EFCFEF7A8FA02F040FCFEF764FBC7
:1021D000FEF71CFBFEF754FF0020FFF7B9FB00F0F1
:1021E000F5FD4FF4FA7002F0A3FD40F2CF21632019
:1021F00001F014FEFEF74AFA02F05AFC10BD00008E
:102200000D0A5374617274696E672055702E2E2EFC
:102210000D0A4A4F534F4E472D58533033205633F3
:102220002E302E2E2E0D0A0056657273696F6E4E7B
:102230006F3A20253032582E2E2E0D0A0000000055
:102240008C01002053797374656D436F7265436C24
:102250006F636B3A2025642E2E2E0D0A00000000BD
:1022600000B585B00121052000F008FA012188039E
:1022700000F004FA4FF40070ADF8100018208DF84B
:10228000130003208DF8120004A93B48FFF71DFE40
:102290004FF48060ADF8100004208DF8130004A9FD
:1022A0003548FFF712FE4FF4E13000900020ADF802
:1022B0000400ADF80600ADF80800ADF80C000C20E5
:1022C000ADF80A0069462D4801F0D6FE012240F221
:1022D00025512A4801F0ABFE0121284801F071FE8A
:1022E0004021264801F064FE0121092000F0C6F9D2
:1022F0000121880400F0B2F94FF48060ADF81000BD
:1023000018208DF8130003208DF8120004A91C4832
:10231000FFF7DBFD4FF40060ADF8100004208DF8EE
:10232000130004A91648FFF7D0FD04A91448FFF7CD
:10233000CCFD4FF4965000900020ADF80400ADF8AD
:102340000600ADF80800ADF80C000C20ADF80A004E
:1023500069460C4801F090FE012240F225510948DF
:1023600001F065FE0121074801F02BFE40210548E0
:1023700001F01EFE05B000BD00080140003801401C
:10238000000C01400048004008B50121042000F085
:1023900075F91020ADF800008DF8030003208DF8CA
:1023A000020069460148FFF790FD08BD00080140A2
:1023B0000448806800F0010008B90120704700203F
:1023C000FCE70000001001400448806800F4004071
:1023D00008B9012070470020FCE700000010014010
:1023E0000448806800F4804008B90120704700204C
:1023F000FCE70000001001400448806800F4005031
:1024000008B9012070470020FCE7000000100140DF
:1024100070B505460C46012D33D17CB934A002F0CD
:1024200027F8002037490870012000F0A1F80220A9
:1024300000F09EF8042000F09BF858E0012C0ED12B
:1024400031A002F015F801202E49087000F098F82C
:10245000022000F095F8042000F08AF847E0022CF2
:1024600045D12EA002F004F8022026490870012070
:1024700000F086F8022000F07BF8042000F080F8DD
:1024800035E0022D33D17CB929A001F0F1FF002005
:102490002C490870082000F06BF8102000F068F854
:1024A000202000F065F822E0012C0FD126A001F0D9
:1024B000DFFF012023490870082000F061F8102098
:1024C00000F05EF8202000F053F810E0022C0ED14E
:1024D00022A001F0CDFF02201A490870082000F068
:1024E0004FF8102000F044F8202000F049F870BDAB
:1024F000D6F7D2BBB1B8B6FEA3ACCDA3D6B92E0DDC
:102500000A000000AC010020D6F7D2BBB1B8B6FE7D
:10251000A3ACB5CDCBD92E0D0A000000D6F7D2BBA7
:10252000B1B8B6FEA3ACB8DFCBD92E0D0A000000BF
:10253000D6F7B6FEB1B8D2BBA3ACCDA3D6B92E0D9B
:102540000A000000BC010020D6F7B6FEB1B8D2BB2D
:10255000A3ACB5CDCBD92E0D0A000000D6F7B6FE40
:10256000B1B8D2BBA3ACB8DFCBD92E0D0A000000A6
:10257000024909880143014A11807047480100203F
:10258000024909888143014A1180704748010020AF
:1025900010B50B4800880B49098888420ED040F6D8
:1025A000FF70FEF7A5F907480088054908806420F8
:1025B00002F0BEFB03480088FEF79AF910BD000048
:1025C0004A0100204801002000BFFEE770470000DC
:1025D00070B5002100230F22C47804B3154C246881
:1025E00004F4E064C4F5E064210AC1F10403CA40C4
:1025F000447804FA03F184781440214309010E4C15
:102600000678A155047804F01F050124AC40057834
:102610006D11AD0005F1E025C5F8004109E0047831
:1026200004F01F050124AC40044D0678761145F8EE
:10263000264070BD0CED00E000E400E080E100E029
:102640007047000001460020034A506820F44040D3
:1026500008435060704700000010024029B1064A4C
:10266000D2690243044BDA6104E0034AD26982432F
:10267000014BDA61704700000010024029B1064AA0
:1026800092690243044B9A6104E0034A92698243CF
:10269000014B9A61704700000010024029B1064AC0
:1026A000D2680243044BDA6004E0034AD2688243F2
:1026B000014BDA60704700000010024070470000D4
:1026C00030B500210022002400232D4D6D6805F057
:1026D0000C0121B1042905D0082923D105E0294D99
:1026E000056022E0274D05601FE0254D6D6805F46B
:1026F0007012234D6D6805F48034022505EB92427B
:102700001CB9214D554305600BE01D4D6D6805F466
:1027100000351DB11C4D5543056002E0194D554370
:10272000056002E0174D056000BF00BF144D6D68E5
:1027300005F0F0010909154D6B5C0568DD40456049
:102740000F4D6D6805F4E061090A104D6B5C45683A
:10275000DD4085600A4D6D6805F46051C90A0B4D76
:102760006B5C4568DD40C560054D6D6805F4404112
:10277000890B074D6B5CC568B5FBF3F5056130BD92
:102780000010024000127A0000093D00750100208F
:10279000850100200348407820F00200014948707C
:1027A00070470000220000200348407840F00200FB
:1027B000014948707047000022000020034840781B
:1027C00020F00800014948707047000022000020F6
:1027D0000348407840F00800014948707047000005
:1027E000220000200348407820F010000149487082
:1027F00070470000220000200348407840F010009D
:1028000001494870704700002200002003484078CA
:1028100020F020000149487070470000220000208D
:102820000348407840F0200001494870704700009C
:10283000220000200348407820F040000149487001
:1028400070470000220000200348407840F040001C
:10285000014948707047000022000020034840787A
:1028600020F08000014948707047000022000020DD
:102870000348407840F080000149487070470000EC
:10288000220000200348807820F001000149887070
:1028900070470000220000200348807840F00100CB
:1028A00001498870704700002200002003488078AA
:1028B00020F00200014988707047000022000020CB
:1028C0000348807840F0020001498870704700009A
:1028D000220000200348807820F00400014988701D
:1028E00070470000220000200348807840F0040078
:1028F00001498870704700002200002003480078DA
:1029000040F00100014908707047000022000020DB
:102910000348807820F00800014988707047000063
:10292000220000200348807840F0080001498870A8
:1029300070470000220000200348007820F00200C9
:102940000149087070470000220000200348007809
:1029500040F002000149087070470000220000208A
:102960000348007820F00800014908707047000013
:10297000220000200348007840F008000149087058
:1029800070470000220000200348007820F040003B
:1029900001490870704700002200002003480078B9
:1029A00040F04000014908707047000022000020FC
:1029B0000348007820F0800001490870704700004B
:1029C000220000200348007840F080000149087090
:1029D00070470000220000200348407820F00100EA
:1029E00001494870704700002200002003484078E9
:1029F00040F00100014948707047000022000020AB
:102A000008B501210820FFF739FE03208DF80200E8
:102A100010208DF803000220ADF80000694604483C
:102A2000FFF753FA022002491431086008BD000084
:102A3000000C014038B500254CE06946022002F048
:102A40002FF9002844D02548007800F080000028A5
:102A50003ED19DF800002249204A127888541F4830
:102A60000078401C1D490870084600780A2801DDDE
:102A70000020087019480078401E1949085CF228A7
:102A80000DD116480078032809DAF221134800789E
:102A9000401E134A115401201049087018E01048D4
:102AA00040780E490978884212DC06210C48FEF76E
:102AB0008BFD04460A488079A04206D10748007879
:102AC00040F080000549087002E0002003490870CA
:102AD000681C85B2B5F5806FAFDB38BD39010020C9
:102AE0002002002070470000022001490860704762
:102AF000100C014070B504460D46022005490860DF
:102B00002A46214602F0DBF802200249091F08602C
:102B100070BD0000140C01403EB504460DA207CA6A
:102B20008DE8070020788DF8020060788DF80300AA
:102B3000A0788DF80400E0788DF80500062168463D
:102B4000FEF742FD8DF806009DF801106846FFF77C
:102B5000D1FF3EBDF10901000000000302000000AA
:102B60000220014908607047140C014010B50A208A
:102B700000F082FB934948710B2000F07DFB9149E6
:102B800088710C2000F078FB8E49C8710D2000F090
:102B900073FB8D4948710E2000F06EFB8A498871E5
:102BA0000F2000F069FB8849C871022000F022FA6A
:102BB00084498870032000F01DFA83498870002042
:102BC00000F018FA7F49C870012000F013FA7E491E
:102BD000C870022000F0ACFA7A490872012000F0B7
:102BE000A7FA78494872002000F0A2FA7549887265
:102BF000032000F09DFA74490872042000F098FA4E
:102C000071494872052000F093FA6F4988720620D6
:102C100000F032FB6B490871072000F02DFB6A4978
:102C20000871042000F028FB10B1FFF7B3FD01E0AC
:102C3000FFF7BAFD6348807828B96348807810B9F7
:102C4000FFF798FE01E0FFF78BFE5E48007928B998
:102C50005D48007910B9FFF7C9FE01E0FFF7BCFE3F
:102C60005848007848BB5748407958B9554880794A
:102C700040B95448C07928B9FFF7AAFDFFF7B2FD63
:102C8000FFF7C4FD4F484079A0B94E48807988B914
:102C90004C48C07970B94B48007A58B94948407AD5
:102CA00040B94848807A28B94648807810B9FFF77B
:102CB0006BFE2DE0FFF772FE2AE042480078012803
:102CC00011D140484079012822D13E48807901281D
:102CD0001ED13C48C079D8B9FFF770FDFFF78CFDD5
:102CE000FFF794FD14E037480078022810D13548EA
:102CF000407901280CD13348807948B93148C079EE
:102D0000012805D1FFF75AFDFFF76CFDFFF788FD9D
:102D10002D48007848BB2C48407958B92A4880791A
:102D200040B92948C07928B9FFF7CAFDFFF7D2FD9D
:102D3000FFF7EEFD24484079A0B92348807988B98F
:102D40002148C07970B92048007A58B91E48407AA5
:102D500040B91D48807A28B91B48807810B9FFF720
:102D600027FE2DE0FFF72EFE2AE017480078012805
:102D700011D115484079012822D1134880790128C2
:102D80001ED11148C079D8B9FFF790FDFFF7ACFD0F
:102D9000FFF7BEFD14E00C480078022810D10A4865
:102DA000407901280CD10848807948B90648C07993
:102DB000012805D1FFF77AFDFFF78CFDFFF7B2FD83
:102DC00010BD0000AC010020BC01002000B59BB08C
:102DD000282111A8FDF7CFF900BF142211A94C48F2
:102DE00000F05DFABDF86A00BDF86810BDF8662015
:102DF000BDF86430CDE90D32CDE90F10BDF86200A9
:102E0000BDF86010BDF85C200992CDE90A210C9054
:102E1000BDF85A10BDF85800BDF85620BDF8543022
:102E2000CDE90532CDE90701BDF85210BDF85000DB
:102E3000BDF84E20BDF84C30CDE90132CDE903019B
:102E4000BDF84A000090BDF84830BDF84620BDF8F6
:102E50004410304801F00CFBBDF86800AA2805D0EA
:102E60002DA001F005FB01F0B7FAB6E7BDF844006C
:102E70002D49C880BDF846000881BDF8480048814A
:102E8000BDF84A008881BDF84C00C881BDF84E00ED
:102E90000882BDF850004882BDF852008882BDF813
:102EA0005400C882BDF856000883BDF85800488316
:102EB000BDF85A008883BDF85C00C883BDF85E0089
:102EC000088408460289C18818A001F0D1FA164882
:102ED000008A009014484389C28981891BA001F0AF
:102EE000C7FA1148008B00900F48C38A828A418A32
:102EF00024A001F0BDFA0C48008C00900A48C38B56
:102F0000828B418B2DA001F0B3FA1BB000BD0000F5
:102F100000FC0008A85200084E657720426F6172DD
:102F2000642E2E2E0D0A0000CC010020B5E7D1B989
:102F3000C9CFCFDE3A2532642EB5E7D1B9CFC2CFA3
:102F4000DE3A2532642E0D0A00000000B5E7C1F715
:102F5000C9CFCFDE3A2532642EB5E7C1F7CFC2CF55
:102F6000DE3A2532642EB5E7C1F7BBF9CAFD3A2532
:102F700033642EB5E7C1F7B1E4B1C83A2532642E07
:102F80000D0A0000CEC2B6C8C9CFCFDE3A253264E2
:102F90002ECEC2B6C8CFC2CFDE3A2532642ECAAA20
:102FA000B6C8C9CFCFDE3A2532642ECAAAB6C8CF7A
:102FB000C2CFDE3A2532642E0D0A0000D1B9C1A677
:102FC000C9CFCFDE3A2532642ED1B9C1A6CFC2CF48
:102FD000DE3A2532642EC1F7C1BFC9CFCFDE3A2514
:102FE00032642EC1F7C1BFCFC2CFDE3A2532642E84
:102FF0000D0A000010B50446042C7DDA204600F0CE
:1030000081F91420FDF76EFC10214648FEF7E8FF19
:1030100040B90A204449085500204449085508464B
:10302000005D10BD4048005D00286FDD0320FDF706
:1030300053FC10213B48FEF7D3FF40B90A203A4920
:1030400008550020394908550846005DE9E7032086
:10305000FDF742FC10213348FEF7C2FF40B90A20B9
:10306000314908550020314908550846005DD8E728
:103070000320FDF731FC10212A48FEF7B1FF40B9CB
:103080000A20294908550020284908550846005DAE
:10309000C7E70520FDF720FC10212248FEF7A0FF1E
:1030A00040B90A2020490855002020490855084603
:1030B000005DB6E70520FDF70FFC10211948FEF76B
:1030C0008FFF40B90A2018490855002017490855B4
:1030D0000846005DA5E70520FDF7FEFB102111481D
:1030E000FEF77EFF48B90A200F49085500200F4916
:1030F00008550846005D94E711E00B48005D401E4E
:10310000094908550948005D8BE7FFE70A20064991
:1031100008550120054908550846005D81E7EF2064
:103120007FE70000001001404C010020500100200A
:1031300010B50446062C72DA204600F081FA3220DF
:10314000FDF7A4FB4FF400414848FEF749FF40B9A2
:103150000A20474908550020464908550846005DA1
:1031600010BD4348005D002875DD0320FDF788FB96
:103170004FF400413D48FEF733FF40B90A203C4977
:10318000085500203B4908550846005DE8E7032044
:10319000FDF776FB4FF400413448FEF721FF40B9BC
:1031A0000A20334908550020324908550846005D79
:1031B000D6E70320FDF764FB4FF400412B48FEF7F0
:1031C0000FFF40B90A202A4908550020294908550F
:1031D0000846005DC4E70520FDF752FB4FF40041AF
:1031E0002248FEF7FDFE40B90A202149085500207B
:1031F000204908550846005DB2E70520FDF740FB71
:103200004FF400411948FEF7EBFE48B90A2018496F
:1032100008550020174908550846005DA0E723E03F
:103220000520FDF72DFB4FF400411048FEF7D8FEB6
:1032300040B90A200E49085500200E490855084695
:10324000005D8DE70A48005D401E094908550948A0
:10325000005D85E7FFE70A2005490855012005497B
:1032600008550846005D7BE7EF2079E7000C014038
:10327000540100205A01002010B50446204600F0F9
:1032800041F83220FDF72EFB10210248FEF7A8FE80
:1032900010BD00000010014001460888704730B59D
:1032A00003460C461546002207E01846FFF7F4FFD8
:1032B00024F812009B1C501C82B2AA42F5DB30BDE0
:1032C0002DE9F04105460E461746FEF7DFFD352095
:1032D000FEF76CFD0948FEF76FFD002407E036F8A5
:1032E00014102846FEF7B2FDAD1C601C84B2BC422F
:1032F000F5DBFEF7A1FDBDE8F081000000FC000851
:103300007047000010B50446102C7BD2DFE804F0B3
:10331000081B2E4154677B8EA1B4C7DAF1EFEEEDA6
:103320004FF400719A48FEF764FE4FF4807198489C
:10333000FEF75FFE80219648FEF75BFE4021944831
:10334000FEF757FE22E14FF400719148FEF753FE5D
:103350004FF480718E48FEF74CFE80218C48FEF7BA
:1033600048FE40218A48FEF744FE0FE14FF4007109
:103370008748FEF73EFE4FF480718548FEF73BFE1E
:1033800080218348FEF735FE40218148FEF731FE5B
:10339000FCE04FF400717E48FEF72DFE4FF4807183
:1033A0007B48FEF728FE80217948FEF722FE402167
:1033B0007748FEF71EFEE9E04FF400717448FEF70F
:1033C00018FE4FF480717248FEF713FE802170489A
:1033D000FEF711FE40216E48FEF70BFED6E04FF4DB
:1033E00000716B48FEF707FE4FF480716848FEF7E6
:1033F00000FE80216648FEF7FEFD40216448FEF78E
:10340000F8FDC3E0C1E04FF400716148FEF7F1FD43
:103410004FF480715E48FEF7EEFD80215C48FEF7B8
:10342000EAFD40215A48FEF7E4FDAFE04FF4007199
:103430005748FEF7E0FD4FF480715548FEF7DBFD7D
:1034400080215348FEF7D7FD40215148FEF7D1FDBA
:103450009CE04FF400714E48FEF7CBFD4FF48071B5
:103460004B48FEF7C6FD80214948FEF7C2FD4021CA
:103470004748FEF7C0FD89E04FF400714448FEF76D
:10348000BAFD4FF480714248FEF7B3FD80214048F9
:10349000FEF7AFFD40213E48FEF7ADFD76E04FF46C
:1034A00000713B48FEF7A5FD4FF480713848FEF7E8
:1034B000A2FD80213648FEF79CFD40213448FEF7EE
:1034C0009AFD63E04FF400713148FEF794FD4FF42C
:1034D00080712F48FEF78FFD80212D48FEF789FD72
:1034E00040212B48FEF787FD50E03BE027E013E04A
:1034F000FFE74FF400712648FEF77BFD4FF4807123
:103500002348FEF776FD80212148FEF774FD402117
:103510001F48FEF770FD39E04FF400711C48FEF7BC
:103520006AFD4FF480711A48FEF763FD8021184848
:10353000FEF761FD40211648FEF75DFD26E04FF4E1
:1035400000711348FEF755FD4FF480711048FEF7E7
:1035500052FD80210E48FEF74EFD40210C48FEF73B
:103560004AFD13E04FF400710948FEF744FD4FF4A3
:1035700080710748FEF73FFD80210548FEF73BFDBF
:1035800040210348FEF737FD00E000BF00BF10BD3B
:103590000010014010B5044624B1012C0BD0022CC0
:1035A0001BD111E040210E48FEF723FD80210C487D
:1035B000FEF71FFD12E040210948FEF71CFD8021A7
:1035C0000748FEF716FD09E040210548FEF711FD0A
:1035D00080210348FEF70FFD00E000BF00BF10BDD3
:1035E000000C014010B5044624B1012C0CD0022C73
:1035F0001ED113E04FF400410F48FEF7FAFC0421FE
:103600000E48FEF7F8FC14E04FF400410A48FEF7BC
:10361000F2FC04210948FEF7ECFC0AE04FF40041FB
:103620000548FEF7E6FC04210448FEF7E2FC00E052
:1036300000BF00BF10BD00000008014000140140A1
:1036400010B50446082C74D2DFE804F004132333C9
:10365000435363744FF480514048FEF7CAFC802105
:103660003E48FEF7C6FC4FF480413C48FEF7C1FCE3
:1036700071E04FF480513948FEF7BDFC4FF4005122
:103680003648FEF7B6FC4FF480413448FEF7B1FCF3
:1036900061E04FF480513148FEF7ABFC4FF400512C
:1036A0002E48FEF7A8FC4FF480412C48FEF7A1FC01
:1036B00051E04FF480512948FEF79DFC4FF4005132
:1036C0002648FEF798FC4FF480412448FEF791FC11
:1036D00041E04FF480512148FEF78BFC4FF400513C
:1036E0001E48FEF786FC4FF480411C48FEF783FC21
:1036F00031E04FF480511948FEF77DFC4FF4005142
:103700001648FEF776FC4FF480411448FEF773FC30
:1037100021E04FF480511148FEF76BFC4FF400514B
:103720000E48FEF768FC4FF480410C48FEF763FC3E
:1037300011E00FE04FF480510848FEF75CFC4FF4B5
:1037400000510648FEF757FC4FF480410348FEF74E
:1037500052FC00E000BF00BF10BD0000000C0140A3
:1037600038B5002401F058F90446002C70D00B2C19
:103770006FD2DFE804F00607B81822B8B86FB8B8FF
:103780008700B1E062480078102803D10320604927
:10379000087007E05E48007820B15D480078401C62
:1037A0005B490870A0E05A48007828B959A000F099
:1037B0005FFE03205649087096E05A48544909783C
:1037C00030F81100401C5749514A127821F8120074
:1037D0004F48007805280FD108464D49097830F840
:1037E0001100B0F5167F32DD4FF416704D49484A8E
:1037F000127821F812002AE04548007803280BD0FF
:1038000043480078042807D041480078062803D0B0
:103810003F48007807280DD142483D49097830F8E3
:1038200011000A2813DD0A213E48394A127820F88F
:1038300012100CE03B483649097830F81100632833
:1038400005DD63203749324A127821F812004BE037
:103850004EE048E033482E49097830F81100401E08
:1038600081B230482A4A127820F812102849097883
:1038700030F8110028B900212A48254A127820F88A
:10388000121031E02248007800282BD02548028908
:10389000C18825A000F0ECFD2248008A0090214854
:1038A000C3898289418928A000F0E2FD1D48008B70
:1038B00000901C48C38A828A418A31A000F0D8FD5A
:1038C0001848008C00901748C38B828B418B3AA01C
:1038D00000F0CEFD00F080FD00200D49087044A0EE
:1038E00000F0C6FD00E000BF00BF28204549087079
:1038F0004448007805280ADA0548007838B10020E5
:1039000040490870024908703FA000F0B1FD38BD81
:1039100025000020BDF8C8EBC9E8D6C3B2CBB5A5D9
:103920002E0D0A00CC010020B5E7D1B9C9CFCFDEFA
:103930003A2532642EB5E7D1B9CFC2CFDE3A25326F
:10394000642E0D0A00000000B5E7C1F7BBF9CAFDFF
:103950003A2533642EB5E7C1F7C9CFCFDE3A253219
:10396000642EB5E7C1F7CFC2CFDE3A2532642EB55B
:10397000E7C1F7B1E4B1C83A2532642E0D0A000060
:10398000CEC2B6C8C9CFCFDE3A2532642ECEC2B67B
:10399000C8CFC2CFDE3A2532642ECAAAB6C8C9CF74
:1039A000CFDE3A2532642ECAAAB6C8CFC2CFDE3ADD
:1039B0002532642E0D0A0000D1B9C1A6C9CFCFDED1
:1039C0003A2532642ED1B9C1A6CFC2CFDE3A253214
:1039D000642EC1F7C1BFC9CFCFDE3A2532642EC1F4
:1039E000F7C1BFCFC2CFDE3A2532642E0D0A0000E8
:1039F000B1A3B4E62CCDCBB3F6B2CBB5A52E0D0A50
:103A00000000000012000020B2BBB1A3B4E62CCD30
:103A1000CBB3F6B2CBB5A52E0D0A000010B500F061
:103A200001F810BD0CB500200190009033480068EB
:103A300040F480303149086000BF3048006800F42D
:103A4000003000900198401C0190009818B901982E
:103A5000B0F5A06FF1D12948006800F4003010B132
:103A60000120009001E0002000900098012843D13F
:103A70002348006840F010002149086008460068AB
:103A800020F0030008600846006840F0020008606B
:103A90001A48406819494860084640684860084626
:103AA000406840F4806048600846406820F47C101C
:103AB00048600846406840F4E810486008460068DE
:103AC00040F08070086000BF0C48006800F0007093
:103AD0000028F9D00948406820F0030007494860F1
:103AE0000846406840F00200486000BF0348406854
:103AF00000F00C000828F9D10CBD000000100240B5
:103B000000200240042808D14FF0E021096941F06B
:103B100004014FF0E022116107E04FF0E021096954
:103B200021F004014FF0E0221161704710B500F060
:103B300001F810BD10B5002406E0114901EBC400E6
:103B400001F08AF8601CC4B2042CF6DB0D48006852
:103B5000401C0C490860084600686FF0004188422C
:103B600002D100200749086007480078401CC0B215
:103B7000054908700A2801DB0020087010BD00000C
:103B8000F0010020280100202C01002010B513486E
:103B9000006840F00100114908600846406810497B
:103BA00008400E494860084600680E4908400B4925
:103BB00008600846006820F48020086008464068D5
:103BC00020F4FE0048604FF41F008860FFF726FFD6
:103BD0004FF000600449086010BD00000010024072
:103BE0000000FFF8FFFFF6FE08ED00E010B53748D3
:103BF000007800F08000002862D10121880700F0E1
:103C00004FF9A8B13148007800F0400080B12F484A
:103C1000007800F03F003F2805D100202B490870B4
:103C20002B49088004E029480078401C2749087087
:103C30000221480700F034F9002841D023480078D9
:103C400000F0400040282CD12048007840F080004F
:103C50001E4908704FF0804000F01FF91C49088091
:103C60000221480700F036F919480088262814DD9B
:103C7000174800883E2810DA14480078C0280CD174
:103C800014480078AA2805D113480078401C12492E
:103C9000087002E000201049087000200B490870ED
:103CA0000EE000200A4908804020084908700021E1
:103CB000000600F018F900214FF0804000F00AF9EA
:103CC00003214FF0804000F0D9F810BD1A00002009
:103CD0001C000020090000200A00002010B501216E
:103CE000464800F0DDF800287ED04548008840F6C0
:103CF000B83188420FDD00204149088041480078F2
:103D0000401CC0B23F490870062190FBF1F201FB54
:103D100012003C4908703A480088401C3849088025
:103D2000084600884FF47A7190FBF1F201FB120013
:103D3000B0F52F7F05D13448007810B90120324901
:103D400008702F4800884FF47A7190FBF1F201FB64
:103D50001200012806D12C480078012802D1002049
:103D600029490870264800884FF47A7190FBF1F2D7
:103D700001FB1200012808D124480078002804DD46
:103D800022480078401E2149087021480078AA285E
:103D900018D120480088401C1E4908800846008829
:103DA000B0F57A7F16DD002008801B480078401CA3
:103DB000194908700846007806280BDDBB20144915
:103DC000087007E01248007820B9002011490880E7
:103DD00011490870FFF7AEFE094800880A2190FBE0
:103DE000F1F201FB120000E006E008B900F006FF66
:103DF0000121024800F042F810BD0000000400401C
:103E0000140000200B0000201100002012000020F0
:103E10001000002016000020180000207FB5054685
:103E20000C4601210220FEF719FCADF80850ADF850
:103E300004400020ADF80A00ADF8060001A90E48C4
:103E400000F054F8012211460B4800F03AF81D200A
:103E50008DF8000000208DF8010003208DF802008D
:103E600001208DF803006846FEF7B2FB01210248ED
:103E700000F007F87FBD000000040040CA43028242
:103E8000704721B1028842F00102028004E00288FA
:103E90004FF6FE731A40028070470146888E7047C5
:103EA00030B50246002000230024158A05EA0103EC
:103EB000958905EA010413B10CB1012000E000204E
:103EC00030BD1AB183890B43838102E083898B4320
:103ED000838170470A460021018C4FF6FD7319401B
:103EE00011430184704781847047000000220288DA
:103EF0001D4B98420ED01D4B98420BD0B0F1804F15
:103F000008D01B4B984205D01A4B984202D01A4B4E
:103F1000984204D14FF68F731A404B881A43174BBF
:103F2000984207D0164B984204D04FF6FF431A40F0
:103F3000CB881A4302808B8883850B8803850A4BC4
:103F400098420BD0094B984208D00E4B984205D0AE
:103F50000D4B984202D00D4B984201D10B7A03864B
:103F60000123838270470000002C0140003401408F
:103F70000004004000080040000C00400010004019
:103F8000001400400040014000440140004801404E
:103F900010B5024800F02DF910BD00004C020020C1
:103FA00010B5024800F025F910BD0000740A002089
:103FB00001F40072B2F5007F00D100BFCA43028055
:103FC000704721B1828942F40052828104E08289E3
:103FD0004DF6FF731A408281704770B50246002487
:103FE00000230025002040F66A16B14200D100BF30
:103FF000C1F3421501F01F03012606FA03F3012D58
:1040000002D19689334006E0022D02D1168A334050
:1040100001E0968A33400C12012606FA04F4168851
:10402000344013B10CB1012000E0002070BDF0B5A8
:104030000346002400260025002040F66A17B942F6
:1040400000D100BF1846C1F3421401F01F0601273A
:1040500007FA06F5012C01D10C3004E0022C01D145
:10406000103000E014301AB107682F43076002E0F7
:104070000768AF430760F0BD2DE9F04786B00546FD
:104080000E460024A24600BFA1460027B08900B119
:1040900000BF2F462C8A4CF6FF700440F088044382
:1040A0002C82AC894EF6F3100440B0883189084365
:1040B000718908430443AC81AC8A4FF6FF40044049
:1040C000B0890443AC8201A8FEF7FAFA1F48874280
:1040D00002D1DDF810A001E0DDF80CA0A88900F401
:1040E000004040B10AEBCA0000EB0A1031684900F9
:1040F000B0FBF1F807E00AEBCA0000EB0A103168E8
:104100008900B0FBF1F86420B8FBF0F0040120094D
:10411000642101FB1089A88900F4004040B13220DD
:1041200000EBC900B0FBF1F000F00700044308E029
:10413000322000EB09106421B0FBF1F000F00F0019
:1041400004432C8106B0BDE8F08700000038014030
:1041500001468888C0F308007047C1F308028280D6
:104160007047000010B586B0002401AA00210B485A
:10417000FDF796F90A480078AA280CD000BF05E0A0
:104180000DF10F00005D07490855641C082CF7DB92
:10419000AA200349087006B010BD0000006400406A
:1041A000080000200000002070B504460D460120E4
:1041B00000F080F9668B002000F07CF90EB9002039
:1041C00070BD218BA068405C2870012000F072F95E
:1041D000208B401C80B22083E189884201DB0020D3
:1041E0002083608B401E6083002000F063F9012073
:1041F000E6E770B5044640F225512068FFF7EDFE72
:10420000E0B12068FFF7A4FFC5B2E18AA068455479
:10421000E08A401C80B2E082E189884201DB002014
:10422000E082608BE189884202DA608B401C608307
:10423000606A10B12846616A884700BF40F2277162
:104240002068FFF7CAFE08B3A08A60B9002240F2D6
:1042500027712068FFF7EBFE012240F226612068FB
:10426000FFF7E5FE37E0638A6268D15C2068FFF7FC
:1042700074FF608A401C80B26082A189884201DBA1
:1042800000206082A08A401EA08224E040F22661C5
:104290002068FFF7A2FEF0B1A08A50B9002240F2D8
:1042A00026612068FFF7C3FE206AA0B1206A80471C
:1042B00011E0638A6268D15C2068FFF74EFF608A74
:1042C000401C80B26082A189884201DB00206082AC
:1042D000A08A401EA08270BD2DE9F04104460E4622
:1042E0001746002527E00CE0012000F0E3F8B4F8C1
:1042F0001480002000F0DEF8A089404500DD01E0D8
:1043000000BFF1E700BF705D228A61688854012018
:1043100000F0D0F8208A401C80B22082A189884217
:1043200001DB00202082A08A401CA082002000F037
:10433000C1F8681C85B2BD42D5DB012240F227716D
:104340002068FFF774FEBDE8F081000016481749A9
:10435000086017484860174888604FF4806088817B
:10436000C881002008824882C882088348838882E6
:10437000C8610862486210481049086010484860E7
:10438000104888604FF480608881C88100200882CE
:104390004882C8820883488388820B48C8610B48DA
:1043A00008620B4848627047003801404C02002008
:1043B000740200207406002000480040740A0020A7
:1043C0009C0A00209C0E0020E92A0008612B0008AE
:1043D000E52A000800BFFEE700B58BB0282101A840
:1043E000FBF7C9FE2048C088ADF804001E480089CC
:1043F000ADF806001C484089ADF808001A488089CD
:10440000ADF80A001848C089ADF80C001648008ABB
:10441000ADF80E001448408AADF810001248808AAA
:10442000ADF812001048C08AADF814000E48008B99
:10443000ADF816000C48408BADF818000A48808B88
:10444000ADF81A000848C08BADF81C000648008C77
:10445000ADF81E00AA20ADF82800142201A90348D7
:10446000FEF72EFF0BB000BDCC01002000FC0008C1
:104470000FB4054B10B503A9044A029800F01EF8CA
:1044800010BC5DF814FB0000C94D00083C01002081
:1044900002E008C8121F08C1002AFAD1704770470D
:1044A000002001E001C1121F002AFBD1704780F3F8
:1044B0001088704780F31088704700002DE9FF4F87
:1044C0008DB00F460546002606E025280BD0DDE915
:1044D0000F1290476D1C761C28780028F5D111B07A
:1044E0003046BDE8F08F0024A246A1460122EC49E7
:1044F00000E0044315F8013F203B02FA03F00842B4
:10450000F7D128782A2810D06FF02F022878A0F150
:104510003001092914D80AEB8A0102EB410144F069
:10452000020400EB010A6D1CF0E701CF5FEA000A0C
:1045300003D544F40054CAF1000A44F002046D1C8F
:1045400028782E2817D115F8010F44F004042A28E2
:104550000ED06FF02F022878A0F1300109290AD877
:1045600009EB890102EB410100EB01096D1CF2E747
:1045700057F8049B6D1C28786C280FD006DC4C285B
:1045800017D068280DD06A2814D104E0742810D000
:104590007A280FD10DE044F400140AE044F48014AA
:1045A00001E044F440146978814202D104F580149A
:1045B0006D1C6D1C2A786E2A1FD00CDC632A31D04A
:1045C00004DC002A8BD0582A11D1A3E0642A68D0D9
:1045D000692A0CD165E0732A2ED004DC6F2A73D0CF
:1045E000702A04D19BE0752A6FD0782A6ED01046CD
:1045F000DDE90F129047761C50E1C4F30250022807
:1046000006D0032809D0042801CF09D0066045E16F
:1046100001CFF117C0E9006140E101CF06803DE123
:1046200006703BE117F8040B8DF8000000208DF8B0
:104630000100EB46012003E057F804BB4FF0FF30C8
:1046400061074FF0000102D40DE008F10101884636
:1046500049450FDA8045F8DB1BF808100029F4D132
:1046600008E008F1010188468142FADB1BF80810D6
:104670000029F6D1DDE90F23AAEB08008146214687
:1046800000F036F9304400EB080604E0DDE90F12D3
:104690001BF8010B9047B8F10108F7D221464846B4
:1046A000F7E00A21C4F302534FF0000B0891022BEC
:1046B00004D001CFC117032B09D00AE0FF1D27F05A
:1046C0000707F7E8020108E032E01FE020E000B24F
:1046D000C117042B01D140B2C117031E71F10003B1
:1046E00007DA4FF0000CD0EB0C006CEB01012D232E
:1046F00002E0230504D52B238DF82430012303E0A9
:10470000E30701D02023F7E7984658E00A2110E09C
:1047100010210EE010204FF0000B08900CE010214B
:104720004FF0000B44F004044FF00809089103E037
:1047300008214FF0000B0891C4F30253022B04D060
:1047400001CF0021032B06D006E0FF1D27F007074D
:10475000F7E8020103E080B2042B00D1C0B24FF0B1
:10476000000823072BD5702A07D0DDF820C08CF075
:10477000100C5CEA0B0C05D00EE040238DF82430C1
:10478000012308E050EA010306D030238DF82430DD
:104790008DF8252002239846DDF820C08CF0080C07
:1047A0005CEA0B0C0BD150EA010301D1630706D57B
:1047B00030238DF824304FF00108A9F10109582A5F
:1047C00004D038A20B9208AA0A920BE03AA2F9E7A9
:1047D0005B46089AFBF7B8FD0B9B9B5C0A9A521E3E
:1047E0000A92137050EA0102F2D10A98ADEB000070
:1047F00000F1200B600702D524F4803401E04FF073
:104800000109D94502DDA9EB0B0000E0002000EB17
:104810000B0141440890AAEB010AE00306D4DDE94C
:104820000F232146504600F063F806444FF000097C
:1048300008E009A911F80900DDE90F12904709F114
:104840000109761CC145F4DBE0030CD5DDE90F233B
:104850002146504600F04CF8064404E0DDE90F1212
:1048600030209047761C0899481E08900029F5DCF6
:1048700008E00A980A990078491C0A91DDE90F12AC
:104880009047761CBBF10001ABF1010BF1DC214636
:104890005046DDE90F2300F019F806446D1C1BE6B5
:1048A0000928010030313233343536373839616206
:1048B00063646566000000003031323334353637CA
:1048C0003839414243444546000000002DE9F0419B
:1048D000044600251E461746880404D405E03946E0
:1048E0002020B0476D1C641EF9D52846BDE8F08134
:1048F0002DE9F041044600251E469046C80301D527
:10490000302700E02027880404D505E041463846DA
:10491000B0476D1C641EF9D52846BDE8F081000043
:104920000146042901DB00207047074800EBC10065
:104930000079012806D10020034A02EBC102107160
:104940000120F1E70020EFE7F001002070B50546F7
:10495000304800EB05142068804700283ED02079BD
:10496000052802DA0520207152E020790A2803DAAE
:104970002079401C20714BE0A07A38B90120A07248
:1049800005EB4501491CC8B200F044F92089002814
:104990003EDDE088218988420DDAE088401C80B243
:1049A000E0802189884233D105EB4501C91CC8B29A
:1049B00000F030F92CE0E07A002829DD207B401C53
:1049C000C0B22073E17A884222DB0020207305EB1D
:1049D0004501491CC8B200F01DF919E020790528ED
:1049E00002DD0520207110E0207918B12079401EE9
:1049F00020710AE0A07A012807D10020A07205EBFF
:104A00004501891CC8B200F005F90020E080207340
:104A100070BD0000E41300200B4800790A4A527967
:104A2000904201D10020704707480079064A115C86
:104A300010460079401CC0B21071042801DB002030
:104A400010710846EFE700004001002008B5012181
:104A50001420FDF713FE4FF4E050ADF800001020D5
:104A60008DF8030003208DF8020069460E48FDF71B
:104A70002CFA04210D48FDF7BEFA08210B48FDF77A
:104A8000BAFA0C20ADF8000010208DF8030069463A
:104A90000648FDF71AFA04210448FDF7ACFA08218C
:104AA0000248FDF7A8FA08BD0010014000080140C7
:104AB0000020074981F8A00081F8A10081F8A20038
:104AC000044981F8A00081F8A10081F8A200704794
:104AD0003F1300209C12002010B500F031F800F0C8
:104AE00001F810BD08B501211020FDF7C7FD032016
:104AF0008DF8020004208DF803000120ADF80000BD
:104B000069460E48FDF7E1F94FF40040ADF80000AA
:104B100069460A48FDF7D9F94FF48040ADF8000026
:104B200069460648FDF7D1F94FF40050ADF8000092
:104B300069460248FDF7C9F908BD000000100140B0
:104B400010B500201A49087148718871002418E0D6
:104B5000C820184901EB041108810220154901EB16
:104B6000041108710020134901EB041188721149E6
:104B700001EB0411C8720F4901EB04110873601CAA
:104B8000C4B2042CE4DB0C480A4908600B480861F5
:104B90000B4808620B4808630F223221012000F005
:104BA00049F80F223221022000F044F810BD000025
:104BB00040010020E4130020B1230008C9230008AD
:104BC000E1230008F9230008002008E00021054A3D
:104BD00042F8301002EBC0021171411CC8B2042827
:104BE000F4DB7047F001002010B5FFF7AFFBFDF7D5
:104BF00037FBFDF705FFFCF7DFFF10BD10B5002404
:104C000004E02046FFF7A2FE601CC4B2042CF8DBCF
:104C100010BD000006494979054A505411464979AA
:104C2000491CC9B25171042901DB0021517170473F
:104C30004001002010B5074B03EB00131981054B11
:104C400003EB0013DA720023024C04EB001423730D
:104C500010BD0000E4130020017939B9016829B1C1
:104C60000168491E016009B9012101717047000006
:104C700070B504460D46042C00DB70BD0120FFF723
:104C800016FC064840F834500020044901EBC401EA
:104C90000871FFF70CFC00BFEFE70000F0010020F7
:104CA00070B505460E462846FCF76CFF04460CB965
:104CB000002070BD31462046FFF776FAF9E72DE96E
:104CC000F04105460E4617462846FCF75BFF0446B2
:104CD0000CB9BDE8F081E06908B1E06980473A4667
:104CE00031462046FFF7F8FA00BFF2E710B56FF043
:104CF0000400FEF707FF0A4800680A49B0FBF1F01C
:104D0000094908700846007800EB4001C1EBC0106B
:104D10004FF6FF7101EAC0000449088010BD000091
:104D20008C01002000127A001E00002020000020CC
:104D30000146114A12884A434FF0E0235A6100228B
:104D40009A611A46126942F001021A6100BF4FF0DF
:104D5000E022106900F001021AB100F48032002A4A
:104D6000F5D04FF0E022126922F001024FF0E0236B
:104D70001A6100229A617047200000200146114A02
:104D800012784A434FF0E0235A6100229A611A4692
:104D9000126942F001021A6100BF4FF0E02210696F
:104DA00000F001021AB100F48032002AF5D04FF071
:104DB000E022126922F001024FF0E0231A61002282
:104DC0009A6170471E00002000BF054A128802F059
:104DD0004002002AF9D0C2B2014B1B1D1A80704755
:104DE000003801401FB5002002900390019000257B
:104DF0000024002780460026FEF7C8FEFDF7BCF918
:104E000000204B23022203210090FCF781FAE2A04C
:104E1000FFF72EFBE948FFF72BFBC8210120FFF726
:104E200027FF40F6FF70FDF7A3FB0421E448FDF7E0
:104E3000E0F80821E248FDF7DCF8FDF75FFDFDF73B
:104E400085FDFDF7C5FCFDF7D7FCFDF7E9FCFDF797
:104E500037FDFDF749FDFDF765FDFDF709FD9AE119
:104E6000FCF796FB0120FFF75BFD00287ED0C821F0
:104E70000120FFF7FDFE142D02DA681CC5B20DE01B
:104E8000002502A8FCF728FF30B99DF80A00CD499B
:104E900088809DF80800C880FDF7B0F80A2095FBCF
:104EA000F0F100FB115010B9FDF750FD08E00A20A9
:104EB00095FBF0F100FB1150052801D1FDF73CFDF9
:104EC000FDF754FEFCF75CFFFDF7B4FDBE4800782B
:104ED00000F0800080283BD10020BB490870BB480F
:104EE00000798DF80400B94840798DF805009DF8E7
:104EF000040010B99DF8050050B39DF8050000F0BE
:104F0000010028BB9DF8050000F00800082806D124
:104F1000012400208DF804008DF8050018E09DF8AC
:104F2000050000F01000102806D1002400208DF8A4
:104F300004008DF805000BE09DF8050000F020004E
:104F4000202805D1022400208DF804008DF80500EA
:104F5000002C78D1FDF76EFCFDF78AFCFDF792FC82
:104F60009DF8050000F00200022800E0F7E00CD1F7
:104F70000020974908700120FDF7FAFA0220FDF79A
:104F8000F7FA0420FDF7F4FA6EE09DF8040000F053
:104F9000010058B101208E490870FDF7F1FA022096
:104FA000FDF7EEFA0420FDF7E3FA5DE09DF8050059
:104FB00000F0040004280CD102208549087001206B
:104FC000FDF7DEFA0220FDF7D3FA0420FDF7D8FA48
:104FD0004AE09DF8050000F0400040280CD1002078
:104FE0007C4908700820FDF7C3FA1020FDF7C0FACD
:104FF0002020FDF7BDFA37E09DF8040000F0020024
:1050000002280CD10120734908700820FDF7B8FA76
:105010001020FDF7B5FA2020FDF7AAFA24E09DF84C
:10502000050000F0800080281ED102206949087028
:105030000820FDF7A5FA1020FDF79AFA2020FDF7C9
:105040009FFA11E0FFE7012C06D1FDF7FDFBFDF70C
:1050500005FCFDF717FC07E0022C05D1FDF7EAFB84
:10506000FDF7FCFBFDF718FCBC421BD027460020D7
:1050700059490870564908700120FDF779FA022055
:10508000FDF776FA0420FDF773FA00205149087005
:105090000820FDF76DFA1020FDF76AFA2020FDF7D1
:1050A00067FA2FE00CB30820FEF7E6F818B10920E4
:1050B000FEF7E2F8D0B94848007848B94FF0010847
:1050C000AA204549087041462046FDF7A1F919E09C
:1050D00041480078BB2815D14FF00208CC203E494A
:1050E000087041462046FDF793F90BE03A480078F6
:1050F00040B14FF000080020374908704146204673
:10510000FDF786F93548C08A3449098B884226DD87
:105110002C48C0883149C98A88420CDD5EB9052611
:105120004FF40060FDF72CFA2C48C28A2548C1884C
:105130002BA0FFF79DF92348C08830442749C98A2E
:1051400088420CDA5EB100264FF40060FDF710FAD9
:105150002248C28A1B48C1882AA0FFF789F9FDF7B7
:1051600017FAFEF7FDFA3048007848B915482F4A7B
:10517000127830F812102D480078FBF761FC0AE035
:1051800016482949097830F811202748017828481D
:105190000078FBF73FFD63E643414E5F4D6F64656A
:1051A0005F496E69742C43414E5F426175643A20D9
:1051B00036304B6270732E2E2E0D0A00605200089E
:1051C00000080140A0010020390100202002002039
:1051D000AC010020BC01002010000020CC01002008
:1051E000CAAAB6C8253264284C696D69743A25325A
:1051F0006429A3ACC6F4B6AFB3FDCAAAC9E8B1B876
:10520000210D0A00CAAAB6C8253264284C696D6906
:10521000743A25326429A3ACB9D8B1D5B3FDCAAA72
:10522000C9E8B1B82E0D0A00250000200B000020AF
:10523000110000203F065B4F666D7D077F6F777C16
:10524000395E7971777C39585E79713D76740F0ECD
:10525000753837545C73673149783E1C7E646E5AEA
:105260002D2D2D2D2D2D2D2D2D2D2D2D2D2D2D2D6E
:105270002D2D2D2D2D2D2D2D2D2D2D2D2D2D2D2D5E
:105280002D2D2D2D2D2D2D2D2D2D2D2D2D2D2D2D4E
:105290002D2D2D2D2D2D2D2D2D2D2D2D2D2D2D2D3E
:1052A0002D2D2D0D0A00000053544D464C415348FE
:1052B0005F526561643A20253034582530345820D7
:1052C00025303458253034583B202530345825308B
:1052D00034582025303458253034583B202530347C
:1052E00058253034582025303458253034583B2048
:1052F0002530345825303458202530345825303462
:10530000583B202530345825303458202530345827
:10531000253034583B0D0A003853000800000020A7
:10532000A00100003605000860540008A00100201C
:1053300088320000A0440008012700FF005EBCE2A4
:10534000613FDD83C29C7E20A3FD1F419DC3217F61
:10535000FCA2401E5F01E3BD3E6082DC237D9FC155
:10536000421CFEA0E1BF5D0380DE3C62BEE0025C49
:10537000DF81633D7C22C09E1D43A1FF4618FAA435
:1053800027799BC584DA3866E5BB5907DB85673921
:10539000BAE406581947A5FB7826C49A653BD98715
:1053A000045AB8E6A7F91B45C6987A24F8A6441A09
:1053B00099C7257B3A6486D85B05E7B98CD2306EF5
:1053C000EDB3510F4E10F2AC2F7193CD114FADF3E1
:1053D000702ECC92D38D6F31B2EC0E50AFF1134DD5
:1053E000CE90722C6D33D18F0C52B0EE326C8ED0C9
:1053F000530DEFB1F0AE4C1291CF2D73CA947628B5
:10540000ABF517490856B4EA6937D58B5709EBB5A0
:1054100036688AD495CB2977F4AA4816E9B7550B94
:1054200088D6346A2B7597C94A14F6A8742AC89688
:10543000154BA9F7B6E80A54D7896B0226351A0A24
:10544000016908490A01163A01052C0203040440C7
:105450000906070809020406087CA24A0424591B0D
:0400000508000131BD
:00000001FF
